:10000000020BBD8F2F78867C007D007BFF7A0D79F7
:10001000867E007F0812084AE4788EF6E52F240ECB
:10002000F8C000788EE6FDD00025E025E028F8E64F
:100030007E007818C333CE33CED8F9FBAA06EDFF85
:100040003395E0FEEF25E0FFEE33FE741F2FF582BF
:10005000740E3EF583EAF0A3EBF0741F2FF5827463
:100060000E3EF583C083C082788EE6FD25E025E054
:10007000240F252FF8E67E007810C333CE33CED878
:10008000F9FFE04EFEA3E04FFFD082D083EEF0A355
:10009000EFF0EDFF3395E0FEEF25E0FFEE33FE7469
:1000A0001F2FF582740E3EF583C083C082788EE6E2
:1000B000FD25E025E02410252FF8E6FEE04EFFA305
:1000C000E0D082D083CFF0A3EFF0EDFF3395E0FED8
:1000D000EF25E0FFEE33FE741F2FF582740E3EF520
:1000E00083C083C082788EE625E025E02411252F89
:1000F000F8E6FFE0FEA3E04FFFD082D083EEF0A34E
:10010000EFF0788E06E66410600302001C788E76AD
:1001100010788EE6F9C3648094D04003020218E997
:10012000FD3395E0FCED25E0FFEC33FE740F2FF579
:1001300082740E3EF583E0FAA3E0FB74192FF5827A
:10014000740E3EF583E06AFAA3E06BFBED25E0FF59
:10015000EC33FE74032FF582740E3EF583E06AFCE7
:10016000A3E06BFD74FF2FF582740D3EF583E06C08
:10017000FEA3E06D25E0FFEE33FEE4FCFDC004C00D
:1001800005C006C007E6FD3395E0FCED25E0FFEC79
:1001900033FE740F2FF582740E3EF583E0FAA3E070
:1001A000FB74192FF582740E3EF583E06AFAA3E022
:1001B0006BFBED25E0FFEC33FE74032FF582740E2C
:1001C0003EF583E06AFCA3E06BFD74FF2FF58274BB
:1001D0000D3EF583E06CFEA3E06D781FCEC313CE19
:1001E00013D8F9FFD003D002D001D000EB4FFFEAC3
:1001F0004EFEAD07AC06788EE6FF3395E0FEEF25A8
:10020000E0FFEE33FE741F2FF582740E3EF583EC93
:10021000F0A3EDF006020111A82FE6FE08E6FF7834
:1002200091A60608A607E52F2402F8E6FE08E6FFD9
:100230007893A60608A607E52F2404F8E6FE08E64C
:10024000FF7895A60608A607E52F2406F8E6FE081F
:10025000E6FF7897A60608A607E52F2408F8E6FE2D
:1002600008E6FF7899A60608A607E4788EF6789146
:10027000E6FE08E67805C333CE33CED8F9FFE4FCBA
:10028000FDC004C005C006C0077891E6FE08E67808
:100290001BCEC313CE13D8F9FFD003D002D001D0A8
:1002A00000EB4FFFEA4EFE7893E6FC08E6F4FDEC27
:1002B000F4789756FCED0856FD7893E6FA08E6FBCD
:1002C000EA0856FAEB0856FBEA4CFCEB4D2FFFEC24
:1002D0003EFEEF789A26FDEE1836FC788EE6FF3368
:1002E00095E0FEEF25E0FFEE33FE741F2FF58274DC
:1002F0000E3EF583E0FEA3E02DFFEE3CFEEF788797
:1003000026FFEE1836FE788FF608EFF6EE18F6EFB9
:1003100008F67897E6FE08E6FF08A60608A607781E
:1003200095E6FE08E6FF08A60608A6077893E6FE0F
:1003300008E6781EC333CE33CED8F9FFE4FCFDC007
:1003400004C005C006C0077893E6FE08E67802CE32
:10035000C313CE13D8F9FFD003D002D001D000EBE5
:100360004FFFEA4EFE7895A60608A6077891E6FEAE
:1003700008E6FF08A60608A607788FE6FE08E6FF4F
:1003800008A60608A607788E06E664146003020233
:100390006E788E76147891E6FE08E67805C333CE43
:1003A00033CED8F9FFE4FCFDC004C005C006C00789
:1003B0007891E6FE08E6781BCEC313CE13D8F9FF7A
:1003C000D003D002D001D000EB4FFFEA4EFE78936D
:1003D000E6FC08E6FDEC0866FCED0866FD08E6FABA
:1003E00008E6FBEC6AFCED6B2FFFEC3EFEEF789A23
:1003F00026FDEE1836FC788EE6FF3395E0FEEF25FD
:10040000E0FFEE33FE741F2FF582740E3EF583E09D
:10041000FEA3E02DFFEE3CFEEF788926FFEE1836B6
:10042000788FF608A60718E6F608E6F67899A60289
:1004300008A6037895E6FE08E6FF08A60608A607C4
:100440007893E6FE08E6781EC333CE33CED8F9FFA4
:10045000E4FCFDC004C005C006C0077893E6FE08B2
:10046000E67802CEC313CE13D8F9FFD003D002D062
:1004700001D000EB4FFFEA4EFE7895A60608A607CE
:100480007891E6FE08E6FF08A60608A607788FE63C
:10049000FE08E6FF08A60608A607788E06E664288A
:1004A0006003020395788E76287891E6FE08E67858
:1004B00005C333CE33CED8F9FFE4FCFDC004C0053C
:1004C000C006C0077891E6FE08E6781BCEC313CEBF
:1004D00013D8F9FFD003D002D001D000EB4FFFEAD0
:1004E0004EFE7893E6FC08E6FDEC789756FCED08A6
:1004F00056FD7893E6FA08E6FBEA0856FAEB08564A
:10050000FBEA4CFCEB4DFD18E6FA08E6FBEA085660
:10051000FAEB0856FBEC4AFCED4B2FFFEC3EFEEFEE
:10052000789A26FDEE1836FC788EE6FF3395E0FECD
:10053000EF25E0FFEE33FE741F2FF582740E3EF5BB
:1005400083E0FEA3E02DFFEE3CFEEF788B26FFEE6E
:100550001836FE788FF608EFF6EE18F6EF08F67804
:1005600097E6FE08E6FF08A60608A6077895E6FEC9
:1005700008E6FF08A60608A6077893E6FE08E678D0
:100580001EC333CE33CED8F9FFE4FCFDC004C00552
:10059000C006C0077893E6FE08E67802CEC313CE05
:1005A00013D8F9FFD003D002D001D000EB4FFFEAFF
:1005B0004EFE7895A60608A6077891E6FE08E6FFA7
:1005C00008A60608A607788FE6FE08E6FF08A60636
:1005D00008A607788E06E6643C60030204A9788EBC
:1005E000763C7891E6FE08E67805C333CE33CED864
:1005F000F9FFE4FCFDC004C005C006C0077891E621
:10060000FE08E6781BCEC313CE13D8F9FFD003D073
:1006100002D001D000EB4FFFEA4EFE7893E6FC08D3
:10062000E6FDEC0866FCED0866FD08E6FA08E6FB68
:10063000EC6AFCED6B2FFFEC3EFEEF789A26FDEEA8
:100640001836FC788EE6FF3395E0FEEF25E0FFEEEE
:1006500033FE741F2FF582740E3EF583E0FEA3E097
:100660002DFFEE3CFEEF1826FFEE1836788FF608C9
:10067000A60718E6F608E6F67899A60208A6037813
:1006800095E6FE08E6FF08A60608A6077893E6FEAC
:1006900008E6781EC333CE33CED8F9FFE4FCFDC0A4
:1006A00004C005C006C0077893E6FE08E67802CECF
:1006B000C313CE13D8F9FFD003D002D001D000EB82
:1006C0004FFFEA4EFE7895A60608A6077891E6FE4B
:1006D00008E6FF08A60608A607788FE6FE08E6FFEC
:1006E00008A60608A607788E06E664506003020591
:1006F000E2A82FE6FE08E6789226FFEE1836FEA85E
:100700002FA60608A607E52F2402F8E6FE08E678DD
:100710009426FFEE1836FEE52F2402F8A60608A65A
:1007200007E52F2404F8E6FE08E6789626FFEE1883
:1007300036FEE52F2404F8A60608A607E52F2406B2
:10074000F8E6FE08E6789826FFEE1836FEE52F2438
:1007500006F8A60608A607E52F2408F8E6FE08E630
:10076000789A26FFEE1836FEE52F2408F8A606082C
:10077000A607E52F244EF8E4F622E709F608DFFA8B
:100780008046E709F208DFFA803E88828C83E70919
:10079000F0A3DFFA8032E309F608DFFA8078E30994
:1007A000F208DFFA807088828C83E309F0A3DFFA15
:1007B000806489828A83E0A3F608DFFA8058898200
:1007C0008A83E0A3F208DFFA804C80D280FA80C6E8
:1007D00080D4806980F28033801080A680EA809A7D
:1007E00080A880DA80E280CA803389828A83ECFA2A
:1007F000E493A3C8C582C8CCC583CCF0A3C8C58286
:10080000C8CCC583CCDFE9DEE7800D89828A83E42A
:1008100093A3F608DFF9ECFAA9F0EDFB2289828AAE
:1008200083ECFAE0A3C8C582C8CCC583CCF0A3C8CA
:10083000C582C8CCC583CCDFEADEE880DB89828A4A
:1008400083E493A3F208DFF980CC88F0EF60010E17
:100850004E60C388F0ED2402B4040050B9F582EB79
:100860002402B4040050AF23234582239007CA73A7
:10087000BB010689828A83E0225002E722BBFE0286
:10088000E32289828A83E49322BB010689828A83D8
:10089000F0225002F722BBFE01F322BC000BBE0087
:1008A00029EF8DF084FFADF022E4CCF875F008EF6D
:1008B0002FFFEE33FEEC33FCEE9DEC984005FCEE92
:1008C0009DFE0FD5F0E9E4CEFD22EDF8F5F0EE84C3
:1008D00020D21CFEADF075F008EF2FFFED33FD4088
:1008E00007985006D5F0F222C398FD0FD5F0EA2202
:1008F000E88FF0A4CC8BF0A42CFCE98EF0A42CFCA7
:100900008AF0EDA42CFCEA8EF0A4CDA8F08BF0A424
:100910002DCC3825F0FDE98FF0A42CCD35F0FCEB83
:100920008EF0A4FEA9F0EB8FF0A4CFC5F02ECD3948
:10093000FEE43CFCEAA42DCE35F0FDE43CFC22753F
:10094000F008758200EF2FFFEE33FECD33CDCC33B0
:10095000CCC58233C5829BED9AEC99E58298400C18
:10096000F582EE9BFEED9AFDEC99FC0FD5F0D6E4F6
:10097000CEFBE4CDFAE4CCF9A88222B800C1B900DC
:1009800059BA002DEC8BF084CFCECDFCE5F0CBF93D
:100990007818EF2FFFEE33FEED33FDEC33FCEB3335
:1009A000FB10D703994004EB99FB0FD8E5E4F9FA63
:1009B000227818EF2FFFEE33FEED33FDEC33FCC948
:1009C00033C910D7059BE99A4007EC9BFCE99AF9DB
:1009D0000FD8E0E4C9FAE4CCFB2275F010EF2FFF4A
:1009E000EE33FEED33FDCC33CCC833C810D7079BB4
:1009F000EC9AE899400AED9BFDEC9AFCE899F80F17
:100A0000D5F0DAE4CDFBE4CCFAE4C8F922D083D007
:100A100082F8E4937012740193700DA3A393F87499
:100A20000193F5828883E473740293B5F00674032E
:100A3000936860E9A3A3A3A380D874FF78A4F60801
:100A4000F6E50D650B7001E47035E50CFE7C00E405
:100A5000250EF50EEC3EF50D789BE6F9789CE6FA4E
:100A6000789DE6FB789EE6FC789FE6FD78A0E6FEA2
:100A700078A1E6FF850AB3850D83850E82E473E4D1
:100A800078A2F608F678A2E6FE08E6FFC39401EE27
:100A90009400502DEF25E02408F8E6FC08E6FDE57B
:100AA0000DB50513E4B5040F78A2E6FE08E6FF08CD
:100AB000A60608A607800A78A306E6187001068035
:100AC000C478A4E6FC08E6FDF47002ECF4700302BE
:100AD0000B11E50DF50BED240FFFEFFE7C00E42577
:100AE0000EF50EEC3EF50DF50C789BE6F9789CE6DC
:100AF000FA789DE6FB789EE6FC789FE6FD78A0E616
:100B0000FE78A1E6FF850AB3850D83850E82E47326
:100B100022E50F240FFFE433EFF52B752C00120DA7
:100B2000B6E478A2F608F678A2E6FE08E6FFC3EE81
:100B300094015029E42403FDE4350DCD2FFFED3E53
:100B4000FE120D2E78A2E6FC08E6252CF582E52B98
:100B50003CF583EFF006E61870010680CAE50DFF4C
:100B60007E00E50F25E02408F8A60608A6078F0BEF
:100B7000E50FFD7C00240FFFEFFE7A00E4250EF563
:100B80000EEA3EF50DF50CED2401FFEC33FE7D0180
:100B900012089B8D0F789BE6F9789CE6FA789DE623
:100BA000FB789EE6FC789FE6FD78A0E6FE78A1E65D
:100BB000FF850AB3850D83850E82E47322787FE476
:100BC000F6D8FD7581A5020C04020C49E493A3F844
:100BD000E493A34003F68001F208DFF48029E49354
:100BE000A3F85407240CC8C333C4540F4420C8834B
:100BF0004004F456800146F6DFE4800B010204084D
:100C000010204080900E12E47E019360BCA3FF543C
:100C10003F30E509541FFEE493A360010ECF54C09A
:100C200025E060A840B8E493A3FAE493A3F8E49322
:100C3000A3C8C582C8CAC583CAF0A3C8C582C8CA2A
:100C4000C583CADFE9DEE780BE7F107E00120F4950
:100C50005394D75395D77F007E4B120E00E4F531A5
:100C60006380207F907E01120F000531C3E531645F
:100C700080948640EB052AE52A7002052978A17642
:100C800033750D12750E00020A3A789F767F789DB3
:100C90007603789C7600750D11750E00020A3A7F76
:100CA00033120CF8052AE52A70020529AE29AF2A6D
:100CB000120CBE7BFF7A0D7983120D5A80BF15325C
:100CC0001532A832A60608A607A832E6FE08E6FFF7
:100CD0007C007D0A12089BEF4E6003120CBEA83206
:100CE000E6FE08E6FF7C007D0A12089BED2430FF3B
:100CF000120E1C05320532221532A832A607A83280
:100D0000E6FD2452F9E719476005E4FEFF801CED7B
:100D10002450F9E71947700FA832E6FFA832E624FD
:100D20004FF876000876017E007F010532228E267C
:100D30008F27E4F528120D8EEF20E0F9C2807F03A3
:100D4000120D9DE526FF120D9DAF27E527120D9D83
:100D5000E4FF120D9D8F28D280228B208A218922C8
:100D6000AB20AA21A92212087060130522E5227087
:100D700002052114F9120870FF120E0A80E22261A6
:100D80006263000D0A007999EBA1BCDCC1D6C28078
:100D90007F05120D9DE4FF120D9DD280225391DF3D
:100DA0008FB2E59130E5FBAFB222E4F50FF50DF51A
:100DB0000EF50CF50B22E4FD7F01120E175394FE85
:010DC0002210
:100DC30053C8FED2CCD2CDC2C943C8045380F94321
:100DD3009506EF8EF0120A0D0DEF4B000DE7E100C3
:100DE30000000DF775CBFF75CAF7800C75CBFF7547
:100DF300CAE68004E4FEFF227E007F0122120DC3B7
:100E0300439840439810228F993099FDC29922024A
:0C0E1300290000008FB38DB422020E0AEB
:100F00008E2D8F2EE47F2BFEFDFCAB1FAA1EA91D8C
:100F1000A81C1208F0E47B04FAF9F812097BE4FD3E
:100F2000FCC3ED952EEC952D501EE4FBFAC3EB9F10
:100F3000EE6480F8EA64809850070BBB00010A80D9
:100F4000EC0DBD00010C80D922EE3395E08F1F8E91
:060F50001EF51DF51C2238
:101100008F188D198A1A8B1BE51B451A7003021163
:10111000BCE5182450F9E71947700AE5182452F97C
:10112000E71947600BE5182451F87600087601228C
:10113000E51B151BAE1A7002151A4E607FE51824C8
:1011400052F9E719477075A819E6FFE518244EF81B
:10115000E606FEE518240E2EF8A607E518240BF87F
:10116000740826F618E436F6E518240AF8E6F608B8
:10117000E6F6E518240BF9E71947702AE518240C60
:10118000F80806E618700106E518240CF8E6F608DB
:10119000E6F6E518240DF9E71947700AE518245119
:1011A000F87600087601E518244EF9E7B4200863C4
:0D11B0008020AF1812000305190211302233
:10120000EF240AF8E4F608F6EF240CF8E4F608F602
:10121000EF244EF8E4F6A8077623087601EF2402BF
:10122000F876AB087689EF2404F876DC0876FEEFD2
:101230002406F87654087676EF2408F876E10876E6
:10124000F0EF244FF8E4F608F6EF2451F8E4F6083E
:02125000F62284
:101300008F30A807E8244EF9D3E7648094B74052A1
:10131000E8244EF8E606FFE530240E2FF87680E547
:1013200030244EF9C3E7648094C05012E530244E57
:10133000F8E606FFE530240E2FF8E4F680E1AF3042
:10134000120003E530244EF9C3E7648094B850419D
:10135000E530244EF8E606FFE530240E2FF8E4F6DB
:1013600080E1E530244EF8E606FFE530240E2FF844
:101370007680E530244EF9C3E7648094B85012E5D6
:1013800030244EF8E606FFE530240E2FF8E4F68010
:10139000E1E530240CF9E7FE09E77818CEC313CE57
:1013A00013D8F9FFE5302426F8A607E530240CF918
:1013B000E7FE09E77810CEC313CE13D8F9FFE53066
:1013C0002427F8A607E530240CF9E7FFE5302428A8
:1013D000F8A607E530240DF9E7FFE5302429F8A643
:1013E00007E530240AF9E7FE09E77818CEC313CEE3
:1013F00013D8F9FFE530242AF8A607E530240AF9C6
:10140000E7FE09E77810CEC313CE13D8F9FFE53015
:10141000242BF8A607E530240AF9E7FFE530242C51
:10142000F8A607E530240BF9E7FFE530242DF8A6F0
:0614300007AF30020003CB
:10190000120D8EEF20E0F9C2807F06120D9DD2806D
:10191000C2807F62120D9DD280C2807F06120D9D13
:10192000D28022121962228E238F248D25120D8ED1
:10193000EF20E0F9C2807F06120D9DD280C2807F29
:1019400002120D9DE523FF120D9DAF24E524120D1B
:101950009DAF25120D9DD280C2807F04120D9DD2B5
:1019600080223098FDC298AF99228B108A1189127B
:10197000E4FFFEC3EF9517E5166480F8EE648098E7
:10198000502BAB100512E512AA117002051114F9C3
:10199000120870FDAB130515E515AA1470020514A5
:1019A00014F9ED1208890FBF00010E80C622AD07A1
:1019B000AC06E5AD20E4FB8CABEDF5AC75AD0822D3
:00000001FF
