:10000000020C258F25787D7C007D007BFF7A0E79A0
:10001000AF7E007F08120845E47885F608F6E525EE
:10002000240EF8C0007885E6FC08E6FDD00025E047
:1000300025E028F8E67E007818C333CE33CED8F911
:10004000FBAA06ED25E0FFEC33FE74102FF5827459
:100050000F3EF583EAF0A3EBF074102FF582740FD6
:100060003EF583C083C0827885E6FC08E6FD25E086
:1000700025E0240F2525F8E67E007810C333CE3323
:10008000CED8F9FFE04EFEA3E04FFFD082D083EE42
:10009000F0A3EFF0ED25E0FFEC33FE74102FF582B6
:1000A000740F3EF583C083C0827885E6FC08E6FDC8
:1000B00025E025E024102525F8E6FEE04EFFA3E02C
:1000C000D082D083CFF0A3EFF0ED25E0FFEC33FE3C
:1000D00074102FF582740F3EF583C083C08278863A
:1000E000E625E025E024112525F8E6FFE0FEA3E063
:1000F0004FFFD082D083EEF0A3EFF0788606E618AB
:100100007001067886E664101846600302001E78C7
:100110008576000876107885E6FC08E6FD25E0FF88
:10012000EC33FE74002FF582740F3EF583E0FAA3E2
:10013000E0FB740A2FF582740F3EF583E06AFAA3A0
:10014000E06BFBED25E0FFEC33FE74F42FF58274D9
:100150000E3EF583E06AFCA3E06BFD74F02FF582A0
:10016000740E3EF583E06CFEA3E06D25E0FFEE33F8
:10017000FEE4FCFDC004C005C006C00718E6FC088C
:10018000E6FD25E0FFEC33FE74002FF582740F3E90
:10019000F583E0FAA3E0FB740A2FF582740F3EF5B5
:1001A00083E06AFAA3E06BFBED25E0FFEC33FE741D
:1001B000F42FF582740E3EF583E06AFCA3E06BFD3C
:1001C00074F02FF582740E3EF583E06CFEA3E06DB3
:1001D000781FCEC313CE13D8F9FFD003D002D001BD
:1001E000D000EB4FFFEA4EFEAD07AC067886E62561
:1001F000E0FF18E633FE74102FF582740F3EF5838E
:10020000ECF0A3EDF00806E6187001067886E664C7
:100210005018466003020116A825E6FE08E6FF789E
:1002200089A60608A607E5252402F8E6FE08E6FFEB
:10023000788BA60608A607E5252404F8E6FE08E65E
:10024000FF788DA60608A607E5252406F8E6FE0831
:10025000E6FF788FA60608A607E5252408F8E6FE3F
:1002600008E6FF7891A60608A607E47885F608F662
:100270007889E6FE08E67805C333CE33CED8F9FF99
:10028000E4FCFDC004C005C006C0077889E6FE088E
:10029000E6781BCEC313CE13D8F9FFD003D002D01B
:1002A00001D000EB4FFFEA4EFE788BE6FC08E6F447
:1002B000FDECF4788F56FCED0856FD798BE7788DD0
:1002C00056FA09E70856FBEA4CFCEB4D2FFFEC3ED3
:1002D000FEEF789226FDEE1836FC7886E625E0FFE4
:1002E00018E633FE74102FF582740F3EF583E0FE9E
:1002F000A3E02DFFEE3CFEEF787E26FFEE1836FEE3
:100300007887F608EFF6EE18F6EF08F6788FE6FE37
:1003100008E6FF08A60608A607788DE6FE08E6FFB1
:1003200008A60608A607788BE6FE08E6781EC33303
:10033000CE33CED8F9FFE4FCFDC004C005C006C032
:1003400007788BE6FE08E67802CEC313CE13D8F901
:10035000FFD003D002D001D000EB4FFFEA4EFE7871
:100360008DA60608A6077889E6FE08E6FF08A60619
:1003700008A6077887E6FE08E6FF08A60608A6078F
:10038000788606E6187001067886E66414184660DA
:1003900003020270788576000876147889E6FE08F4
:1003A000E67805C333CE33CED8F9FFE4FCFDC004B4
:1003B000C005C006C0077889E6FE08E6781BCEC3F4
:1003C00013CE13D8F9FFD003D002D001D000EB4FE9
:1003D000FFEA4EFE798BE7788D66FC09E70866FD3B
:1003E00008E6FA08E6FBEC6AFCED6B2FFFEC3EFE3C
:1003F000EF789226FDEE1836FC7886E625E0FF18A9
:10040000E633FE74102FF582740F3EF583E0FEA3F1
:10041000E02DFFEE3CFEEF7880267988F7EE183667
:1004200019F77887E6F608E6F67891A60208A6039B
:10043000788DE6FE08E6FF08A60608A607788BE694
:10044000FE08E6781EC333CE33CED8F9FFE4FCFDB8
:10045000C004C005C006C007788BE6FE08E6780237
:10046000CEC313CE13D8F9FFD003D002D001D000F1
:10047000EB4FFFEA4EFE788DA60608A6077889E6C0
:10048000FE08E6FF08A60608A6077887E6FE08E647
:10049000FF08A60608A607788606E6187001067803
:1004A00086E664281846600302039B788576000878
:1004B00076287889E6FE08E67805C333CE33CED8B1
:1004C000F9FFE4FCFDC004C005C006C0077889E65A
:1004D000FE08E6781BCEC313CE13D8F9FFD003D0A5
:1004E00002D001D000EB4FFFEA4EFE798BE7788F08
:1004F00056FC09E70856FD19E7788D56FA09E70812
:1005000056FBEA4CFCEB4DFD09E70856FA09E708F3
:1005100056FBEC4AFCED4B2FFFEC3EFEEF789226AB
:10052000FDEE1836FC7886E625E0FF18E633FE740B
:10053000102FF582740F3EF583E0FEA3E02DFFEE51
:100540003CFEEF788226FFEE1836FE7887F608EF3D
:10055000F6EE18F6EF08F6788FE6FE08E6FF08A636
:100560000608A607788DE6FE08E6FF08A60608A698
:1005700007788BE6FE08E6781EC333CE33CED8F973
:10058000FFE4FCFDC004C005C006C007788BE6FE92
:1005900008E67802CEC313CE13D8F9FFD003D002F9
:1005A000D001D000EB4FFFEA4EFE788DA60608A6DC
:1005B000077889E6FE08E6FF08A60608A6077887FA
:1005C000E6FE08E6FF08A60608A607788606E618EF
:1005D0007001067886E6643C184660030204B2782F
:1005E00085760008763C7889E6FE08E67805C33310
:1005F000CE33CED8F9FFE4FCFDC004C005C006C070
:10060000077889E6FE08E6781BCEC313CE13D8F927
:10061000FFD003D002D001D000EB4FFFEA4EFE79AD
:100620008BE7788D66FC09E70866FD08E6FA08E6C0
:10063000FBEC6AFCED6B2FFFEC3EFEEF789226FDA3
:10064000EE1836FC7886E625E0FF18E633FE7410D7
:100650002FF582740F3EF583E0FEA3E02DFFEE3C04
:10066000FEEF18267988F7EE183619F77887E6F640
:1006700008E6F67891A60208A603788DE6FE08E65D
:10068000FF08A60608A607788BE6FE08E6781EC3D4
:1006900033CE33CED8F9FFE4FCFDC004C005C0065C
:1006A000C007788BE6FE08E67802CEC313CE13D8D7
:1006B000F9FFD003D002D001D000EB4FFFEA4EFE8D
:1006C000788DA60608A6077889E6FE08E6FF08A644
:1006D0000608A6077887E6FE08E6FF08A60608A62D
:1006E00007788606E6187001067886E66450184694
:1006F00060030205E6A92509E7788A26FF19E718AD
:1007000036FEA825A60608A607E5252403F9E778FE
:100710008C26FF19E71836FEE5252402F8A6060800
:10072000A607E5252405F9E7788E26FF19E7183690
:10073000FEE5252404F8A60608A607E5252407F902
:10074000E7789026FF19E71836FEE5252406F8A677
:100750000608A607E5252409F9E7789226FF19E798
:100760001836FEE5252408F8A60608A607E5252480
:100770004EF8E4F622E709F608DFFA8046E709F2C8
:1007800008DFFA803E88828C83E709F0A3DFFA80D5
:1007900032E309F608DFFA8078E309F208DFFA802D
:1007A0007088828C83E309F0A3DFFA806489828AEF
:1007B00083E0A3F608DFFA805889828A83E0A3F2F7
:1007C00008DFFA804C80D280FA80C680D4806980AD
:1007D000F28033801080A680EA809A80A880DA8038
:1007E000E280CA803389828A83ECFAE493A3C8C585
:1007F00082C8CCC583CCF0A3C8C582C8CCC583CC85
:10080000DFE9DEE7800D89828A83E493A3F608DFBF
:10081000F9ECFAA9F0EDFB2289828A83ECFAE0A3D5
:10082000C8C582C8CCC583CCF0A3C8C582C8CCC516
:1008300083CCDFEADEE880DB89828A83E493A3F25B
:1008400008DFF980CC88F0EF60010E4E60C388F0BD
:10085000ED2402B4040050B9F582EB2402B4040084
:1008600050AF23234582239007C573BB01068982BD
:100870008A83E0225002E722BBFE02E32289828AB9
:1008800083E49322BB010689828A83F0225002F717
:1008900022BBFE01F322BC000BBE0029EF8DF084C9
:1008A000FFADF022E4CCF875F008EF2FFFEE33FE39
:1008B000EC33FCEE9DEC984005FCEE9DFE0FD5F070
:1008C000E9E4CEFD22EDF8F5F0EE8420D21CFEAD79
:1008D000F075F008EF2FFFED33FD4007985006D577
:1008E000F0F222C398FD0FD5F0EA22E88FF0A4CCF5
:1008F0008BF0A42CFCE98EF0A42CFC8AF0EDA42C47
:10090000FCEA8EF0A4CDA8F08BF0A42DCC3825F015
:10091000FDE98FF0A42CCD35F0FCEB8EF0A4FEA900
:10092000F0EB8FF0A4CFC5F02ECD39FEE43CFCEA0D
:10093000A42DCE35F0FDE43CFC2275F00875820054
:10094000EF2FFFEE33FECD33CDCC33CCC58233C594
:10095000829BED9AEC99E58298400CF582EE9BFE25
:10096000ED9AFDEC99FC0FD5F0D6E4CEFBE4CDFA80
:10097000E4CCF9A88222B800C1B90059BA002DEC24
:100980008BF084CFCECDFCE5F0CBF97818EF2FFFBC
:10099000EE33FEED33FDEC33FCEB33FB10D7039964
:1009A0004004EB99FB0FD8E5E4F9FA227818EF2F11
:1009B000FFEE33FEED33FDEC33FCC933C910D70530
:1009C0009BE99A4007EC9BFCE99AF90FD8E0E4C94F
:1009D000FAE4CCFB2275F010EF2FFFEE33FEED337F
:1009E000FDCC33CCC833C810D7079BEC9AE89940AC
:1009F0000AED9BFDEC9AFCE899F80FD5F0DAE4CD0E
:100A0000FBE4CCFAE4C8F922D083D082F8E49370F6
:100A100012740193700DA3A393F8740193F5828867
:100A200083E473740293B5F0067403936860E9A3DA
:100A3000A3A3A380D88F26A807E8244EF9D3E764A0
:100A40008094B74052E8244EF8E606FFE526240ECF
:100A50002FF87680E526244EF9C3E7648094C050D1
:100A600012E526244EF8E606FFE526240E2FF8E4CC
:100A7000F680E1AF26120003E526244EF9C3E764B1
:100A80008094B85041E526244EF8E606FFE526247A
:100A90000E2FF8E4F680E1E526244EF8E606FFE5A1
:100AA00026240E2FF87680E526244EF9C3E76480CD
:100AB00094B85012E526244EF8E606FFE526240EEB
:100AC0002FF8E4F680E1E526240CF9E7FE09E77843
:100AD00018CEC313CE13D8F9FFE5262426F8A607AF
:100AE000E526240CF9E7FE09E77810CEC313CE13F0
:100AF000D8F9FFE5262427F8A607E526240CF9E710
:100B0000FFE5262428F8A607E526240DF9E7FFE5EA
:100B1000262429F8A607E526240AF9E7FE09E7783E
:100B200018CEC313CE13D8F9FFE526242AF8A6075A
:100B3000E526240AF9E7FE09E77810CEC313CE13A1
:100B4000D8F9FFE526242BF8A607E526240AF9E7BD
:100B5000FFE526242CF8A607E526240BF9E7FFE598
:100B600026242DF8A607AF260200038F108D118AC8
:100B7000128B13E51345127003020C24E510245068
:100B8000F9E71947700AE5102452F9E71947600B95
:100B9000E5102451F8760008760122E5131513AE0E
:100BA00012700215124E607CE5102452F9E71947C5
:100BB0007072A811E6FFE510244EF8E606FEE51077
:100BC000240E2EF8A607E510240BF8740826F61854
:100BD000E436F6E510240AF8E6F608E6F6E5102411
:100BE0000BF9E71947702AE510240CF80806E618F7
:100BF000700106E510240CF8E6F608E6F6E5102488
:100C00000DF9E71947700AE5102451F876000876C7
:100C100001E510244EF9E7B42005AF1012000305DA
:100C200011020B9B22787FE4F6D8FD758192020CAD
:100C30006C020CB1E493A3F8E493A34003F68001A3
:100C4000F208DFF48029E493A3F85407240CC8C306
:100C500033C4540F4420C8834004F456800146F640
:100C6000DFE4800B0102040810204080900EFDE4B8
:100C70007E019360BCA3FF543F30E509541FFEE49E
:100C800093A360010ECF54C025E060A840B8E49360
:100C9000A3FAE493A3F8E493A3C8C582C8CAC583A2
:100CA000CAF0A3C8C582C8CAC583CADFE9DEE78027
:100CB000BE7F107E00120EC65394D75395D77F0087
:100CC0007E4B120EEBE47829F66380207F907E0144
:100CD000120D68782906C3E66480948640EB0522ED
:100CE000E522700205217F2A120D167DA87B037A6A
:100CF00000120B6B7F2A120E280522E522700205D6
:100D000021638020AE21AF22120DEE7BFF7A0E7997
:100D1000AC120E8380D0EF240AF8E4F608F6EF2434
:100D20000CF8E4F608F6EF244EF8E4F6A80776236C
:100D3000087601EF2402F876AB087689EF2404F8F0
:100D400076DC0876FEEF2406F87654087676EF24F3
:100D500008F876E10876F0EF244FF8E4F608F6EFAD
:100D60002451F8E4F608F6228E238F24E47F2BFE2C
:100D7000FDFCAB17AA16A915A8141208EBE47B0416
:100D8000FAF9F8120976E4FDFCC3ED9524EC9523FD
:100D9000501EE4FBFAC3EB9FEE6480F8EA6480988F
:100DA00050070BBB00010A80EC0DBD00010C80D97F
:100DB0002253C8FED2CCD2CDC2C943C8045380F955
:100DC000439506EF8EF0120A080DDD4B000DD5E1BC
:100DD0000000000DE575CBFF75CAF7800C75CBFFE1
:100DE00075CAE68004E4FEFF227E007F01221528FA
:100DF0001528A828A60608A607A828E6FE08E6FFE4
:100E00007C007D0A120896EF4E6003120DEEA828B2
:100E1000E6FE08E6FF7C007D0A120896ED2430FF0E
:100E2000120F0705280528228F27A807E82452F962
:100E3000E719476004E4FEFF22E5272450F9E7198B
:100E400047700FAF27120A35E527244FF8760008C0
:100E500076017E007F01228E1E8F1FE4F520120E88
:100E6000B7EF20E0F9C2807F03120ED3E51EFF1218
:100E70000ED3AF1FE51F120ED3E4FF120ED38F2047
:100E8000D280228B188A19891AAB18AA19A91A12AA
:100E9000086B6013051AE51A7002051914F9120897
:100EA0006BFF120EF580E222616263000D0A007989
:100EB00099EBA1BCDCC1D6C2807F05120ED3E4FF42
:100EC000120ED3D28022EE3395E08F178E16F515D1
:100ED000F514225391DF8FB2E59130E5FBAFB222DA
:100EE000E4FD7F01120F025394FE22120DB14398CC
:100EF00040439810228F993099FDC2992202210017
:0A0F000000008FB38DB422020EF53D
:10190000120EB7EF20E0F9C2807F06120ED3D2800C
:10191000C2807F62120ED3D280C2807F06120ED3A5
:10192000D28022121962228E1B8F1C8D1D120EB7BF
:10193000EF20E0F9C2807F06120ED3D280C2807FF2
:1019400002120ED3E51BFF120ED3AF1CE51C120EC4
:10195000D3AF1D120ED3D280C2807F04120ED3D219
:1019600080223098FDC298AF99228B088A09890A93
:10197000E4FFFEC3EF950FE50E6480F8EE648098F7
:10198000502BAB08050AE50AAA097002050914F9EB
:1019900012086BFDAB0B050DE50DAA0C7002050CD2
:1019A00014F9ED1208840FBF00010E80C622AD07A6
:1019B000AC06E5AD20E4FB8CABEDF5AC75AD0822D3
:00000001FF
