:100000000203A6BB010689828A83E0225002E7220E
:10001000BBFE02E32289828A83E49322BB01068924
:10002000828A83F0225002F722BBFE01F322E88F7E
:10003000F0A4CC8BF0A42CFCE98EF0A42CFC8AF06C
:10004000EDA42CFCEA8EF0A4CDA8F08BF0A42DCC6E
:100050003825F0FDE98FF0A42CCD35F0FCEB8EF0C7
:10006000A4FEA9F0EB8FF0A4CFC5F02ECD39FEE4AD
:100070003CFCEAA42DCE35F0FDE43CFC2275F008F2
:10008000758200EF2FFFEE33FECD33CDCC33CCC5E0
:100090008233C5829BED9AEC99E58298400CF582FB
:1000A000EE9BFEED9AFDEC99FC0FD5F0D6E4CEFB6D
:1000B000E4CDFAE4CCF9A88222B800C1B90059BA5B
:1000C000002DEC8BF084CFCECDFCE5F0CBF9781889
:1000D000EF2FFFEE33FEED33FDEC33FCEB33FB1083
:1000E000D703994004EB99FB0FD8E5E4F9FA22789D
:1000F00018EF2FFFEE33FEED33FDEC33FCC933C9AF
:1001000010D7059BE99A4007EC9BFCE99AF90FD8B8
:10011000E0E4C9FAE4CCFB2275F010EF2FFFEE33D8
:10012000FEED33FDCC33CCC833C810D7079BEC9A17
:10013000E899400AED9BFDEC9AFCE899F80FD5F0A0
:10014000DAE4CDFBE4CCFAE4C8F9228A838982E4BC
:100150007375270575280075080275140075150A52
:1001600075120075130B5394D75395D77F107E00EB
:1001700012038CE4F525F5266380207FC87E0012EB
:1001800002100526E52670020525C39406E52564C0
:1001900080948040E37F207E031202101203B2E4B9
:1001A000F525F526E5262403FFE5253410FE120388
:1001B0001CE5282526F582E5273525F583EFF00592
:1001C00026E52670020525C39440E52564809480C9
:1001D00040D27F907E011202107A05790012014B05
:1001E0007F207E03120210E4F525F5266380207F30
:1001F000C87E001202100526E52670020525C3946C
:100200000AE5256480948040E37FC87E00020210E6
:100210008E378F38E47F2BFEFDFCAB2CAA2BA92A4E
:10022000A82912002EE47B04FAF9F81200B9E4FDC3
:10023000FCC3ED9538EC9537501EE4FBFAC3EB9FF9
:10024000EE6480F8EA64809850070BBB00010A80D6
:10025000EC0DBD00010C80D922D017751600D01905
:10026000751800D013751200D015751400E4F5331D
:10027000F534C3E5349513E53395125014638020AB
:100280007F907E011202100534E53470E50533805D
:10029000E1E4E518C0E0E4E516C0E022228B1D8A07
:1002A0001E891FE4FFFEC3EF9524E5236480F8EE6A
:1002B000648098502BAB1D051FE51FAA1E70020518
:1002C0001E14F9120003FDAB200522E522AA2170BD
:1002D00002052114F9ED12001C0FBF00010E80C6AB
:1002E000228E2D8F2E8D2F12037DEF20E0F9C280FC
:1002F0007F06120399D280C2807F02120399E52DF6
:10030000FF120399AF2EE52E120399AF2F12039916
:10031000D280C2807F04120399D280228E308F3126
:10032000E4F53212037DEF20E0F9C2807F0312036F
:1003300099E530FF120399AF31E531120399E4FFDB
:100340001203998F32D2802212037DEF20E0F9C28E
:10035000807F06120399D280C2807F62120399D2F5
:1003600080C2807F06120399D28022AD07AC06E5D9
:10037000AD20E4FB8CABEDF5AC75AD0822C2807FFF
:1003800005120399E4FF120399D28022EE3395E01F
:100390008F2C8E2BF52AF529225391DF8FB2E59110
:1003A00030E5FBAFB222787FE4F6D8FD75813802E4
:1003B0000151E4FD7F011203BD5394FE228FB38DE2
:0203C000B42265
:101000007F907E01120210E4F535F5366380207F73
:10101000907E011202100536E53670020535C39444
:101020000CE5356480948040E37F907E01020210DD
:00000001FF
