:100000000209508F993099FDC29922020CC58B5379
:100010008A548955E4FFFEC3EF955AE5596480F888
:10002000EE648098502BAB530555E555AA547002E9
:10003000055414F9120056FDAB560558E558AA5759
:100040007002055714F9ED12009C0FBF00010E80DD
:02005000C622C6
:10005300020A52BB010689828A83E0225002E72208
:10006300BBFE02E32289828A83E49322BB010CE56F
:100073008229F582E5833AF583E0225006E9258259
:10008300F8E622BBFE06E92582F8E222E58229F59D
:1000930082E5833AF583E49322BB010689828A834E
:1000A300F0225002F722BBFE01F322BC000BBE007C
:1000B30029EF8DF084FFADF022E4CCF875F008EF62
:1000C3002FFFEE33FEEC33FCEE9DEC984005FCEE87
:1000D3009DFE0FD5F0E9E4CEFD22EDF8F5F0EE84B8
:1000E30020D21CFEADF075F008EF2FFFED33FD407D
:1000F30007985006D5F0F222C398FD0FD5F0EA22F7
:10010300E88FF0A4CC8BF0A42CFCE98EF0A42CFC9B
:100113008AF0EDA42CFCEA8EF0A4CDA8F08BF0A419
:100123002DCC3825F0FDE98FF0A42CCD35F0FCEB78
:100133008EF0A4FEA9F0EB8FF0A4CFC5F02ECD393D
:10014300FEE43CFCEAA42DCE35F0FDE43CFC227534
:10015300F008758200EF2FFFEE33FECD33CDCC33A5
:10016300CCC58233C5829BED9AEC99E58298400C0D
:10017300F582EE9BFEED9AFDEC99FC0FD5F0D6E4EB
:10018300CEFBE4CDFAE4CCF9A88222B800C1B900D1
:1001930059BA002DEC8BF084CFCECDFCE5F0CBF932
:1001A3007818EF2FFFEE33FEED33FDEC33FCEB332A
:1001B300FB10D703994004EB99FB0FD8E5E4F9FA58
:1001C300227818EF2FFFEE33FEED33FDEC33FCC93D
:1001D30033C910D7059BE99A4007EC9BFCE99AF9D0
:1001E3000FD8E0E4C9FAE4CCFB2275F010EF2FFF3F
:1001F300EE33FEED33FDCC33CCC833C810D7079BA9
:10020300EC9AE899400AED9BFDEC9AFCE899F80F0B
:10021300D5F0DAE4CDFBE4CCFAE4C8F922E6FC0835
:10022300E6FD08E6FE08E6FF22ECF608EDF608EE2A
:10023300F608EFF622D083D082F8E49370127401AB
:1002430093700DA3A393F8740193F5828883E473E9
:10025300740293B5F0067403936860E9A3A3A3A3A0
:1002630080D88A838982E47375F020800E75F0103C
:10027300800575F0087D007E007F003392D530D570
:1002830003120615EC334010EF33FFEE33FEED336C
:10029300FDEC33FCD5F0ED22E5F0247EA2D513CCA2
:1002A30092E7CDCEFF22EDD2E7CD33EC3392D524C6
:1002B300814006E4FFFEFDFC22FCE4CFCECDCC243E
:1002C300E0501174FF80EDC3CC13CCCD13CDCE130E
:1002D300CECF13CF0470F030D5DE020615E9D2E796
:1002E300C933E833F892D5EDD2E7CD33EC33FC5084
:1002F30002B2D522EC30E7100FBF000C0EBE00088F
:100303000DBD00040BEB6014A2D5EB13FCED92E7DB
:10031300FD2274FFFCFDFEFF22E480F8A2D574FFEA
:1003230013FC7D80E480EF020315E86480F8E93371
:10033300E83360110460F0ED33EC337009E8FCE955
:10034300FDEAFEEBFF220460DED3EB9FEA9EE99D0C
:10035300E8C2E78CF0C2F795F0400CE8CCF8E9CDA1
:10036300F9EACEFAEBCFFB1202E085D0F058047025
:100373000320D5B3E80470075002B2D502031F92DD
:10038300D5EC0460F7E4CCC0E0C398F8603B941864
:100393006008400DD0E0FB0202F7E4FBFAC9FC80E1
:1003A30028E830E406E4C9FBE4CAFCE830E305E4EA
:1003B300C9CACBFCE854076010F8C3E913F9EA1380
:1003C300FAEB13FBEC13FCD8F130F52FC3E49CFCE0
:1003D300EF9BFFEE9AFEED99FDD0E0FBEF4E4D4C07
:1003E300701222DB0302031CEC2CFCEF33FFEE3311
:1003F300FEED33FDED30E7EB0202F7EF2BFFEE3AB4
:10040300FEED39FDD0E0FB50130BBB000302031FCD
:10041300ED13FDEE13FEEF13FFEC13FC0202F7ECFA
:100423004D6011E8497017ED33EC3304600DE4FCC3
:10043300FFFEFD22E933E8330470F80203151202CC
:10044300E058046009E4CC248150062850090203D3
:100453001F28400302031CC0E0EB4A7044B9800626
:10046300D0E0FB02030BEF4E701CBD8008EBFFEAEC
:10047300FEE9FD80EBE98DF0A4FEE5F002050BE952
:10048300CDF9EAFEEBFFEF89F0A4FCE5F0CE89F0AD
:10049300A42EFFE435F0CD89F0A42DFEE435F080E1
:1004A30067EF4E7005BD80D780C3EF8BF0A4ACF02F
:1004B300EE8BF0A42CFCE435F0F8EF8AF0A42CE5E5
:1004C300F038FCE433CB8DF0A42CFCE5F03BF8EEE4
:1004D3008AF0A42CFCE5F038F8E433CF89F0A42C9F
:1004E300FCE5F038CF3400CE89F0A42FFFE5F03ED1
:1004F300FEE433C98DF0A42EFEE5F039CD8AF0A4D5
:100503002FFFE5F03EFEE43DFD33D0E0FB50070B4B
:10051300BB000F02031FEC2CFCEF33FFEE33FEEDA9
:1005230033FD0202F702031FEC5D046005E8590482
:1005330070030203151202E0580460F6EC4860F2FF
:10054300EC7004FDFEFF22C860DB2481C85009C3A0
:10055300986002500602031C9850CAF582E9294BA1
:100563004A7005AB8202030B75F0007C1A7880C3D6
:10057300EF9BEE9AED99400DC3EF9BFFEE9AFEEDD4
:1005830099FDE842F0DC23ACF0D0E0FFD0E0FED0F0
:10059300E0FDAB8220E7101BEB60BAEC2CFCEF33E1
:1005A300FFEE33FEED33FD0202F7E803F830E70513
:1005B300C0F075F000EF2FFFEE33FEED33FD40B8D2
:1005C30030E7C280AAC0E0EFFBEEFAEDF9ECF812D7
:1005D3000422D0E0F5F0EFFBEEFAEDF9ECF81206A9
:1005E30023A3A3A3A3E8C0E0E9C0E0EAC0E0EBC013
:1005F300E0C0F012042212063FA3A3A3A312033107
:10060300D0F0D0E0FBD0E0FAD0E0F9D0E0F8D5F0BC
:10061300D422C3E49FFFE49EFEE49DFDE49CFC2200
:10062300E493FC740193FD740293FE740393FF221D
:10063300E0F8A3E0F9A3E0FAA3E0FB22E493F87463
:100643000193F9740293FA740393FB22ECF0A3ED84
:10065300F0A3EEF0A3EFF02274FFF55DF55EE55134
:10066300AE507806CEC313CE13D8F9B54D48EEB5C8
:100673004C44E54FAE4E7806C333CE33CED8F9FFA4
:100683007C00E551543F2FF551EC3EF55078B8E628
:10069300F978B9E6FA78BAE6FB78BBE6FC78BCE60B
:1006A300FD78BDE6FE78BEE6FF854BB385508385B6
:1006B300518212026922E4F55BF55CE55C25E024D6
:1006C300B3F9E551AE507806CEC313CE13D8F9670C
:1006D3007003EE19677008855B5D855C5E800E05AF
:1006E3005CE55C7002055B6403455B70CEE55EF41C
:1006F3007003E55DF4606CE551AE507806CEC3132C
:10070300CE13D8F9F54D8E4CE55E243DFFE4355DFF
:10071300FEEF7806C333CE33CED8F9FF7C00E55124
:10072300543F2FF551EC3EF550E551AE507806CECF
:10073300C313CE13D8F9F54F8E4E78B8E6F978B9CE
:10074300E6FA78BAE6FB78BBE6FC78BCE6FD78BD52
:10075300E6FE78BEE6FF854BB38550838551821252
:10076300026922E552243DFFE433FEEF7806C333EA
:10077300CE33CED8F98E5FF560120DDCE4F55BF570
:100783005CE55154C02403FFE43550CF255CCF35DD
:100793005BFE120CF1E560255CF582E55F355BF5E8
:1007A30083EFF0055CE55C7002055BC39440E55B99
:1007B300940040CDE551AE507806CEC313CE13D886
:1007C300F9FFE55225E024B2F8A60608A6078E4CE9
:1007D3008F4DE552FD7C00243DFFEC33FEEF7806A0
:1007E300C333CE33CED8F9FF7A00E551543F2FF50A
:1007F30051EA3EF550E551AE507806CEC313CE1301
:10080300D8F9F54F8E4EED2401FFE43CFE7C007DCC
:10081300031200AE8D5278B8E6F978B9E6FA78BAE1
:10082300E6FB78BBE6FC78BCE6FD78BDE6FE78BE69
:10083300E6FF854BB3855083855182120269227F7F
:10084300107E00120DC25394D75395D77F007E4B71
:10085300120DE77BFF7A0D79F1120D1DAE0CAF0D72
:10086300120BC07BFF7A0D79F7120D1DE4F575F5B8
:10087300766380207F907E01120AFF0576E576700D
:10088300020575C39406E5756480948040E37B108C
:100893007D037F20120D80120DB47B007A00791145
:1008A300120BFAE4F50CF50DF508F509F50AF50B4D
:1008B300758902F58CD2AFD2A9D28CE4F575F576A1
:1008C300C3E5769436E5756480948050287F0312DF
:1008D3000D65AD07AC06ECFFAE76747C2EF8A6076B
:1008E300AF05747D2EF8A60774022576F576E435F8
:1008F30075F57580CB85B34B755010755100120695
:100903005BE50B6401450A7019F50AF50B6380205A
:10091300AE0CAF0D120BC07BFF7A0D79F7120D1DD4
:10092300D2AF753D00753E00753F7C75401478BAB3
:10093300760078B9760078B8760E78BC760385B3FE
:100943004B7550117551C012065B0208BE787FE4E7
:10095300F6D8FD7581C2020997020842E493A3F811
:10096300E493A34003F68001F208DFF48029E493C3
:10097300A3F85407240CC8C333C4540F4420C883BA
:100983004004F456800146F6DFE4800B01020408BC
:1009930010204080900C94E47E019360BCA3FF542C
:1009A3003F30E509541FFEE493A360010ECF54C00A
:1009B30025E060A840B8E493A3FAE493A3F8E49392
:1009C300A3C8C582C8CAC583CAF0A3C8C582C8CA9A
:1009D300C583CADFE9DEE780BE754300754402754F
:1009E3004500754602C3E5449436E543648094802C
:1009F300505C85474985484AAD44747C2DF8E6FF31
:100A0300EFFE747D2DF8E6FD3395E0FCE42DF5480B
:100A1300EE3CF547C3E548954AFDE5479549FC1289
:100A2300027078BF12022C78BF1202201202A912A0
:100A33000C30747C2546F8A64874022544F544E43A
:100A43003543F5430546E546709B0545809722C02F
:100A5300E0C0F0C083C082C0D075D000C000C00128
:100A6300C002C003C004C005C006C0077577007587
:100A73007800E521701B30A215E4FF120DCF057835
:100A8300E57870020577142422F8A60780E875211B
:100A9300015391BFD007D006D005D004D003D002B4
:100AA300D001D000D0D0D082D083D0F0D0E032E5D6
:100AB300A45403FFE4FDFC703EEF14600A14600FBE
:100AC30014602024037030AFA27C00AD078028AFF0
:100AD300A2EF75F004A4FDACF0E5A3C41313540313
:100AE3002DE43CAFA2EF75F010A4FDACF0E5A3C478
:100AF300540F2DFDE43CFCAE04AF05228E798F7AB2
:100B0300E47F2BFEFDFCAB69AA68A967A866120106
:100B130003E47B04FAF9F812018EE4FDFCC3ED95BE
:100B23007AEC9579501EE4FBFAC3EB9FEE6480F8F0
:100B3300EA64809850070BBB00010A80EC0DBD00EE
:100B4300010C80D92253C8FED2CCD2CDC2C943C82E
:100B5300045380F9439506EF8EF01202380B744B61
:100B6300000B6CE10000000B7C75CBFF75CAF780AE
:100B73000C75CBFF75CAE68004E4FEFF227E007F7E
:100B830001228E6D8F6E8D6F120DA5EF20E0F9C2DD
:100B9300807F06120DCFD280C2807F02120DCFE577
:100BA3006DFF120DCFAF6EE56E120DCFAF6F120D4D
:100BB300CFD280C2807F04120DCFD28022157B1545
:100BC3007BA87BA60608A607A87BE6FE08E6FF7CB3
:100BD300007D0A1200AEEF4E6003120BC0A87BE645
:100BE300FE08E6FF7C007D0A1200AEED2430FF1202
:100BF3000E14057B057B22D2A38B618A628963E491
:100C0300F564F565AB61AA62A96385658285648332
:100C130012006FFF120DCF0565E56570020564C311
:100C2300940FE5646480948040DAC2A3228E738FAC
:100C330074D3E5749400E573648094804020E57375
:100C430064809480500BAC73AD74EC12027012127A
:100C530030E5741574AE73700215734E70F322E4AD
:100C6300F541F542C3E54295407480F865419850DB
:100C73001DAB3DAA3EA93F85428285418312006F89
:100C8300FF120DCF0542E54270DA054180D6C2A6B8
:100C9300220F1100A00000000000F2F2F2F2F26352
:100CA3006FEC030EF1F1F1182100000000000000C9
:100CB3000000000000000000000000000000000031
:100CC3000000C0E0C0D0C3E5099488E50894135040
:100CD3000A0509E50970120508800E7508007509F3
:100CE30000750A00750B01C2AFD0D0D0E0328E7010
:100CF3008F71E4F572120DA5EF20E0F9C2807F0336
:100D0300120DCFE570FF120DCFAF71E571120DCF4C
:100D1300E4FF120DCF8F72D280228B6A8A6B896CAB
:100D2300AB6AAA6BA96C1200566013056CE56C7074
:100D330002056B14F9120056FF12000380E222121F
:100D43000DA5EF20E0F9C2807F06120DCFD280C23D
:100D5300807F62120DCFD280C2807F06120DCFD268
:100D63008022E4FDFC53A1F8EF42A153A17F43A1EC
:100D730080E59130E4FB120AB25391EF2243A120A4
:100D8300EB42A153A4DFEF42A453A4FCED42A422FF
:100D9300AD07AC06E5AD20E4FB8CABEDF5AC75AD72
:100DA3000822C2807F05120DCFE4FF120DCFD2803F
:100DB30022D2A7E4FD7F02120E0BD2AFD2EA22EEBB
:100DC3003395E08F698E68F567F566225391DF8F5F
:100DD300B2E59130E5FBAFB222E4FD7F01120E0BC9
:100DE3005394FE22120B4843984043981022746593
:100DF30073743A000D0A00D2A6E52160FCC2A62254
:100E03003098FDC298AF99228FB38DB422120E038E
:040E130022020003B4
:10100000050DE50D7002050C787CE6FF3395E0EFE9
:10101000FE08E6FD3395E0FCE42DFFEE3CF5498F3C
:091020004AF5478F481209DC2251
:10108000E4F552F550F551F54EF54FF54CF54D227E
:1010900078B8E6F978B9E6FA78BAE6FB78BBE6FC08
:1010A00078BCE6FD78BDE6FE78BEE6FF854BB385ED
:1010B000508385518212026978B8E6F978B9E6FA68
:1010C00078BAE6FB78BBE6FC78BCE6FD78BDE6FEC8
:1010D00078BEE6FF854BB385508385518212026945
:1010E00078B8E6F978B9E6FA78BAE6FB78BBE6FCB8
:1010F00078BCE6FD78BDE6FE78BEE6FF854BB3859D
:0811000050838551821202693F
:1011C0008B398A3A893B8D3CD2A6E4F541F542C37E
:1011D000E542953C7480F8654198501DAB39AA3AB8
:1011E000A93B85428285418312006FFF120DCF0516
:0D11F00042E54270DA054180D6120C622201
:101200003E9248DA3ECCCCCD3F2AAAAB400000004B
:101210003F8000003F9837F03FB504F33FD744FCD0
:101220003E3172173EB172173F0515913EDE5BD914
:10123000D2008002C200EDD2E7F8CD33EC33047067
:101240000BBD800592D502031F02031540FBD3148A
:1012500060F2F5F07C3FEE7A00C39496C8948B4020
:10126000230AC89469C8941A401A0AC89468C89492
:101270001F40110AC8945AC89425400805F07A0006
:10128000CDC2E7CDC0F090000012064FEA2323C084
:10129000E02410F582E43412F58312063F12033184
:1012A000ECC0E0EDC0E0EEC0E0EFC0E0120623903D
:1012B000000012063312032DD0E0FBD0E0FAD0E09C
:1012C000F9D0E0B2E7F812052B90000012064F901B
:1012D000120074031205C890000012063312042293
:1012E000D0E0600F241CF582E43412F58312063F2F
:1012F00012033190000012064FD0E0C3947FFDE44A
:101300009400FC1202707B187A727931783F1204D3
:101310002290000012063312033130000B7BD97A81
:091320005B79DE783E1204222202
:00000001FF
