:10000000020344E5A45403FFE4FDFC703EEF1460DA
:100010000A14600F14602024037030AFA27C00AD7E
:10002000078028AFA2EF75F004A4FDACF0E5A3C4EF
:10003000131354032DE43CAFA2EF75F010A4FDACF4
:10004000F0E5A3C4540F2DFDE43CFCAE04AF052243
:100050000207D402043BBB010689828A83E0225056
:1000600002E722BBFE02E32289828A83E49322BB59
:10007000010CE58229F582E5833AF583E0225006FA
:10008000E92582F8E622BBFE06E92582F8E222E5B0
:100090008229F582E5833AF583E49322BB01068940
:1000A000828A83F0225002F722BBFE01F322BC00B9
:1000B0000BBE0029EF8DF084FFADF022E4CCF87583
:1000C000F008EF2FFFEE33FEEC33FCEE9DEC984092
:1000D00005FCEE9DFE0FD5F0E9E4CEFD22EDF8F52E
:1000E000F0EE8420D21CFEADF075F008EF2FFFED8E
:1000F00033FD4007985006D5F0F222C398FD0FD586
:10010000F0EA22E88FF0A4CC8BF0A42CFCE98EF06E
:10011000A42CFC8AF0EDA42CFCEA8EF0A4CDA8F06F
:100120008BF0A42DCC3825F0FDE98FF0A42CCD3533
:10013000F0FCEB8EF0A4FEA9F0EB8FF0A4CFC5F09D
:100140002ECD39FEE43CFCEAA42DCE35F0FDE43C96
:10015000FC2275F008758200EF2FFFEE33FECD33E1
:10016000CDCC33CCC58233C5829BED9AEC99E58228
:1001700098400CF582EE9BFEED9AFDEC99FC0FD5B4
:10018000F0D6E4CEFBE4CDFAE4CCF9A88222B800A4
:10019000C1B90059BA002DEC8BF084CFCECDFCE56F
:1001A000F0CBF97818EF2FFFEE33FEED33FDEC3393
:1001B000FCEB33FB10D703994004EB99FB0FD8E518
:1001C000E4F9FA227818EF2FFFEE33FEED33FDEC61
:1001D00033FCC933C910D7059BE99A4007EC9BFC57
:1001E000E99AF90FD8E0E4C9FAE4CCFB2275F010E3
:1001F000EF2FFFEE33FEED33FDCC33CCC833C81008
:10020000D7079BEC9AE899400AED9BFDEC9AFCE835
:1002100099F80FD5F0DAE4CDFBE4CCFAE4C8F92282
:10022000D083D082F8E4937012740193700DA3A36D
:1002300093F8740193F5828883E473740293B5F0A4
:10024000067403936860E9A3A3A3A380D874FFF5A1
:1002500054F555E4F552F5536380207F907E0112EA
:1002600004EE0553E55370020552C3940AE5529417
:100270000040E57FE87E031204EEE4F552F5537486
:10028000322553F8E6FEE4B53D0CEEB53C08855248
:1002900054855355800E0553E55370020552640A88
:1002A000455270DBE555F47003E554F46030E4F535
:1002B00052F5536380207F907E011204EE0553E5D2
:1002C0005370020552C39404E552940040E5E5558D
:1002D0002406FFE43554EF753D00F53C805FE53FB3
:1002E0002406FFEFF556755700E4F552F553E53D4A
:1002F0002403CFE4353CCF2553CF3552FE1206946C
:10030000E5572553F582E5563552F583EFF0055351
:10031000E55370020552C3E552940140D1E53CFF1C
:100320007432253FF8A607E53F2406FFE4353EEF8B
:10033000753D00F53C053FE53F7002053E7F017EBF
:10034000000204EE787FE4F6D8FD75816F02038B1E
:1003500002049BE493A3F8E493A34003F68001F224
:1003600008DFF48029E493A3F85407240CC8C333AE
:10037000C4540F4420C8834004F456800146F6DF7D
:10038000E4800B0102040810204080900663E47EA4
:10039000019360BCA3FF543F30E509541FFEE49372
:1003A000A360010ECF54C025E060A840B8E493A339
:1003B000FAE493A3F8E493A3C8C582C8CAC583CA64
:1003C000F0A3C8C582C8CAC583CADFE9DEE780BE1C
:1003D0008B408A4189428D43D2A6E4F548F549C352
:1003E000E54995437480F8654898501DAB40AA4193
:1003F000A94285498285488312006FFF1207A9052B
:1004000049E54970DA054880D6E4F548F549C3E581
:100410004995477480F8654898501DAB44AA45A992
:100420004685498285488312006FFF1207A9054956
:10043000E54970DA054880D6C2A622C0E0C0F0C007
:1004400083C082C0D075D000C000C001C002C0030C
:10045000C004C005C006C007756A00756B00E508DA
:10046000701B30A215E4FF1207A9056BE56B700243
:10047000056A142409F8A60780E87508015391BF9E
:10048000D007D006D005D004D003D002D001D000D0
:10049000D0D0D082D083D0F0D0E0327F107E001256
:1004A000079C5394D75395D7D2AF120781AB20AA9C
:1004B00021A92212062DD2EAD2A67F007E4B120776
:1004C000C1756E046380207F2C7E011204EE156ED0
:1004D000E56ED3940050ED7BFF7A07798F1206EA20
:1004E000E50860FCE4F5087F6312005080F28E6C32
:1004F0008F6DE47F2BFEFDFCAB60AA5FA95EA85D5B
:10050000120103E47B04FAF9F812018EE4FDFCC346
:10051000ED956DEC956C501EE4FBFAC3EB9FEE6419
:1005200080F8EA64809850070BBB00010A80EC0D4C
:10053000BD00010C80D9228B4A8A4B894CE4FFFE16
:10054000C3EF9551E5506480F8EE648098502BAB72
:100550004A054CE54CAA4B7002054B14F9120056A3
:10056000FDAB4D054FE54FAA4E7002054E14F9ED57
:1005700012009C0FBF00010E80C62253C8FED2CCD1
:10058000D2CDC2C943C8045380F9439506EF8EF01B
:1005900012022005A74B00059FE100000005AF7582
:1005A000CBFF75CAF7800C75CBFF75CAE68004E4F3
:1005B000FEFF227E007F01228E648F658D6612070A
:1005C00072EF20E0F9C2807F061207A9D280C280B4
:1005D0007F021207A9E564FF1207A9AF65E565125E
:1005E00007A9AF661207A9D280C2807F041207A9AB
:1005F000D28022156F156FA86FA60608A607A86FF0
:10060000E6FE08E6FF7C007D0A1200AEEF4E6003B6
:100610001205F3A86FE6FE08E6FF7C007D0A1200D3
:10062000AEED2430FF120050056F056F22D2A38B70
:10063000588A59895AE4F55BF55CAB58AA59A95A0E
:10064000855C82855B8312006FFF1207A9055CE55C
:100650005C7002055BC3940FE55B6480948040DAB4
:10066000C2A3220F2300A00000000000F1F1F1F16D
:10067000F1636FED03200000231808000000000064
:10068000000000000000000000000000000000006A
:10069000000000008E678F68E4F569120772EF2092
:1006A000E0F9C2807F031207A9E567FF1207A9AF2F
:1006B00068E5681207A9E4FF1207A98F69D28022B2
:1006C000753E00753F05E4F53CF53D7532FF753329
:1006D000FF7534087535FF7536FF7537FF7538FFC0
:1006E0007539FF753AFF753BFF228B618A6289631A
:1006F000AB61AA62A96312005660130563E56370DB
:1007000002056214F9120056FF1207D480E2221289
:100710000772EF20E0F9C2807F061207A9D280C2DB
:10072000807F621207A9D280C2807F061207A9D2F9
:100730008022E4FDFC53A1F8EF42A153A17F43A125
:1007400080E59130E4FB1200035391EF2243A12096
:10075000EB42A153A4DFEF42A453A4FCED42A42238
:10076000AD07AC06E5AD20E4FB8CABEDF5AC75ADAB
:100770000822C2807F051207A9E4FF1207A9D280D0
:1007800022D2A7E4FD7F021207E4D2AFD2EA22749C
:100790006573742073746172740A0D00EE3395E012
:1007A0008F608E5FF55EF55D225391DF8FB2E5912C
:1007B00030E5FBAFB222E4FD7F011207E45394FE63
:1007C0002212057B43984043981022D2A6E5086088
:1007D000FCC2A6228F993099FDC299223098FDC2A1
:0D07E00098AF99228FB38DB4221207DC224E
:00000001FF
