:100000000204D8E5A45403FFE4FDFC703EEF146045
:100010000A14600F14602024037030AFA27C00AD7E
:10002000078028AFA2EF75F004A4FDACF0E5A3C4EF
:10003000131354032DE43CAFA2EF75F010A4FDACF4
:10004000F0E5A3C4540F2DFDE43CFCAE04AF052243
:100050000209000205ECBB010689828A83E0225076
:1000600002E722BBFE02E32289828A83E49322BB59
:10007000010CE58229F582E5833AF583E0225006FA
:10008000E92582F8E622BBFE06E92582F8E222E5B0
:100090008229F582E5833AF583E49322BB01068940
:1000A000828A83F0225002F722BBFE01F322BC00B9
:1000B0000BBE0029EF8DF084FFADF022E4CCF87583
:1000C000F008EF2FFFEE33FEEC33FCEE9DEC984092
:1000D00005FCEE9DFE0FD5F0E9E4CEFD22EDF8F52E
:1000E000F0EE8420D21CFEADF075F008EF2FFFED8E
:1000F00033FD4007985006D5F0F222C398FD0FD586
:10010000F0EA22E88FF0A4CC8BF0A42CFCE98EF06E
:10011000A42CFC8AF0EDA42CFCEA8EF0A4CDA8F06F
:100120008BF0A42DCC3825F0FDE98FF0A42CCD3533
:10013000F0FCEB8EF0A4FEA9F0EB8FF0A4CFC5F09D
:100140002ECD39FEE43CFCEAA42DCE35F0FDE43C96
:10015000FC2275F008758200EF2FFFEE33FECD33E1
:10016000CDCC33CCC58233C5829BED9AEC99E58228
:1001700098400CF582EE9BFEED9AFDEC99FC0FD5B4
:10018000F0D6E4CEFBE4CDFAE4CCF9A88222B800A4
:10019000C1B90059BA002DEC8BF084CFCECDFCE56F
:1001A000F0CBF97818EF2FFFEE33FEED33FDEC3393
:1001B000FCEB33FB10D703994004EB99FB0FD8E518
:1001C000E4F9FA227818EF2FFFEE33FEED33FDEC61
:1001D00033FCC933C910D7059BE99A4007EC9BFC57
:1001E000E99AF90FD8E0E4C9FAE4CCFB2275F010E3
:1001F000EF2FFFEE33FEED33FDCC33CCC833C81008
:10020000D7079BEC9AE899400AED9BFDEC9AFCE835
:1002100099F80FD5F0DAE4CDFBE4CCFAE4C8F92282
:10022000D083D082F8E4937012740193700DA3A36D
:1002300093F8740193F5828883E473740293B5F0A4
:10024000067403936860E9A3A3A3A380D88A838973
:1002500082E47374FFF551F552E545AE447806CE5D
:10026000C313CE13D8F9B54148EEB54044E543AECB
:10027000427806C333CE33CED8F9FF7C00E545542F
:100280003F2FF545EC3EF5447895E6F97896E6FA89
:100290007897E6FB7898E6FC7899E6FD789AE6FE92
:1002A000789BE6FF853FB3854483854582120251E2
:1002B00022E4F54FF550E55025E02476F9E545AE0A
:1002C000447806CEC313CE13D8F9677003EE1967CE
:1002D0007008854F51855052800E0550E5507002D0
:1002E000054F6410454F70CEE552F47003E551F4AC
:1002F000606CE545AE447806CEC313CE13D8F9F54D
:10030000418E40E552242FFFE43551FEEF7806C3BD
:1003100033CE33CED8F9FF7C00E545543F2FF54569
:10032000EC3EF544E545AE447806CEC313CE13D873
:10033000F9F5438E427895E6F97896E6FA7897E6ED
:10034000FB7898E6FC7899E6FD789AE6FE789BE6DD
:10035000FF853FB385448385458212025122E546DD
:10036000242FFFE433FEEF7806C333CE33CED8F923
:100370008E53F5541208E2E4F54FF550E54554C0AC
:100380002403FFE43544CF2550CF354FFE1207F745
:10039000E5542550F582E553354FF583EFF00550D0
:1003A000E5507002054FC39440E54F940040CDE501
:1003B00045AE447806CEC313CE13D8F9FFE54625E3
:1003C000E02475F8A60608A6078E408F41E546246E
:1003D0002FFFE433FEEF7806C333CE33CED8F9FFD8
:1003E0007C00E545543F2FF545EC3EF544E545AE30
:1003F000447806CEC313CE13D8F9F5438E42054692
:100400007895E6F97896E6FA7897E6FB7898E6FC30
:100410007899E6FD789AE6FE789BE6FF853FB385FE
:10042000448385458212025122E4F55FF5607F1016
:10043000FE1208C85394D75395D71208BAAB20AA16
:1004400021A9221207C17F007E4B1208ED1205641C
:10045000789C760AE408F60876020876A008760208
:100460000876DD0876CC755E046380207F2C7E01E3
:1004700012064C155EE55ED3940050ED7FE87E03D6
:1004800012064C85B33F7544107545C01202537572
:100490003900753A00753B9C753C07789776007873
:1004A000967600789576237899760385B33F7544E0
:1004B0001075450012025385B33F75441075458091
:1004C0001202537FC87E0012064C85B33F7544115B
:1004D00075450012025380AB787FE4F6D8FD758134
:1004E000A202051F020429E493A3F8E493A34003A6
:1004F000F68001F208DFF48029E493A3F85407247E
:100500000CC8C333C4540F4420C8834004F456803D
:100510000146F6DFE4800B010204081020408090C1
:10052000078BE47E019360BCA3FF543F30E5095480
:100530001FFEE493A360010ECF54C025E060A840E5
:10054000B8E493A3FAE493A3F8E493A3C8C582C8DC
:10055000CAC583CAF0A3C8C582C8CAC583CADFE9B1
:10056000DEE780BEE4F546F544F545F542F543F592
:1005700040F541227895E6F97896E6FA7897E6FB19
:100580007898E6FC7899E6FD789AE6FE789BE6FF97
:10059000853FB38544838545821202517895E6F9FB
:1005A0007896E6FA7897E6FB7898E6FC7899E6FD87
:1005B000789AE6FE789BE6FF853FB38544838545C0
:1005C000821202517895E6F97896E6FA7897E6FB7A
:1005D0007898E6FC7899E6FD789AE6FE789BE6FF47
:1005E000853FB3854483854582120251C0E0C0F047
:1005F000C083C082C0D075D000C000C001C002C09E
:1006000003C004C005C006C007757000757100E521
:1006100008701B30A215E4FF1208D50571E5717052
:10062000020570142409F8A60780E87508015391A3
:10063000BFD007D006D005D004D003D002D001D05F
:1006400000D0D0D082D083D0F0D0E0328E728F73C1
:10065000E47F2BFEFDFCAB5DAA5CA95BA85A1201EE
:1006600003E47B04FAF9F812018EE4FDFCC3ED9576
:1006700073EC9572501EE4FBFAC3EB9FEE6480F8B6
:10068000EA64809850070BBB00010A80EC0DBD00A6
:10069000010C80D9228B478A488949E4FFFEC3EFC9
:1006A000954EE54D6480F8EE648098502BAB47057D
:1006B00049E549AA487002054814F9120056FDABF5
:1006C0004A054CE54CAA4B7002054B14F9ED12009B
:1006D0009C0FBF00010E80C62253C8FED2CCD2CDE3
:1006E000C2C943C8045380F9439506EF8EF0120245
:1006F0002007054B0006FDE1000000070D75CBFF4C
:1007000075CAF7800C75CBFF75CAE68004E4FEFF5E
:10071000227E007F01228E648F658D661208ABEF0A
:1007200020E0F9C2807F061208D5D280C2807F0205
:100730001208D5E564FF1208D5AF65E5651208D546
:10074000AF661208D5D280C2807F041208D5D2804D
:100750002215741574A874A60608A607A874E6FEE8
:1007600008E6FF7C007D0A1200AEEF4E6003120720
:1007700051A874E6FE08E6FF7C007D0A1200AEED8B
:100780002430FF12005005740574220F2600380033
:1007900000000000F2F2F2F2F2636FEC03200000BE
:1007A000260323F1F1F1180800000000000000000A
:1007B0000000000000000000000000000000000039
:1007C00000D2A38B558A568957E4F558F559AB5595
:1007D000AA56A95785598285588312006FFF1208BF
:1007E000D50559E55970020558C3940FE558648042
:1007F000948040DAC2A3228E678F68E4F5691208FC
:10080000ABEF20E0F9C2807F031208D5E567FF1245
:1008100008D5AF68E5681208D5E4FF1208D58F69DE
:10082000D280228B618A628963AB61AA62A963125A
:10083000005660130563E5637002056214F9120047
:1008400056FF12090080E2221208ABEF20E0F9C245
:10085000807F061208D5D280C2807F621208D5D26E
:1008600080C2807F061208D5D28022E4FDFC53A10D
:10087000F8EF42A153A17F43A180E59130E4FB1240
:1008800000035391EF2243A120EB42A153A4DFEFD9
:1008900042A453A4FCED42A422AD07AC06E5AD2072
:1008A000E4FB8CABEDF5AC75AD0822C2807F051280
:1008B00008D5E4FF1208D5D28022D2A7E4FD7F023A
:1008C000120910D2AFD2EA22EE3395E08F5D8E5C32
:1008D000F55BF55A225391DF8FB2E59130E5FBAF1E
:1008E000B222E4FD7F011209105394FE221206D9B0
:1008F00043984043981022D2A6E50860FCC2A62285
:100900008F993099FDC299223098FDC298AF9922F3
:090910008FB38DB42212090822F4
:101000008B358A3689378D38D2A6E4F53DF53EC357
:10101000E53E95387480F8653D98501DAB35AA368D
:10102000A937853E82853D8312006FFF1208D505E2
:101030003EE53E70DA053D80D6E4F53DF53EC3E57C
:101040003E953C7480F8653D98501DAB39AA3AA98D
:101050003B853E82853D8312006FFF1208D5053E19
:0B106000E53E70DA053D80D6C2A622F6
:10108000E4F56AF56B6380207F907E0112064C05C3
:101090006BE56B7002056AC39404E56A6480948012
:0910A00040E37FE87E0302064CE8
:1010C000E4F56CF56D6380207F907E0112064C057F
:1010D0006DE56D7002056CC39408E56C64809480C6
:0910E00040E37FE87E0302064CA8
:10110000E4F56EF56F6380207F907E0112064C053A
:101110006FE56F7002056EC3940CE56E6480948079
:0911200040E37FE87E0302064C67
:00000001FF
