:1000000002045BE5A45403FFE4FDFC703EEF1460C2
:100010000A14600F14602024037030AFA27C00AD7E
:10002000078028AFA2EF75F004A4FDACF0E5A3C4EF
:10003000131354032DE43CAFA2EF75F010A4FDACF4
:10004000F0E5A3C4540F2DFDE43CFCAE04AF052243
:100050000208070204E7BB010689828A83E0225076
:1000600002E722BBFE02E32289828A83E49322BB59
:10007000010CE58229F582E5833AF583E0225006FA
:10008000E92582F8E622BBFE06E92582F8E222E5B0
:100090008229F582E5833AF583E49322BB01068940
:1000A000828A83F0225002F722BBFE01F322BC00B9
:1000B0000BBE0029EF8DF084FFADF022E4CCF87583
:1000C000F008EF2FFFEE33FEEC33FCEE9DEC984092
:1000D00005FCEE9DFE0FD5F0E9E4CEFD22EDF8F52E
:1000E000F0EE8420D21CFEADF075F008EF2FFFED8E
:1000F00033FD4007985006D5F0F222C398FD0FD586
:10010000F0EA22E88FF0A4CC8BF0A42CFCE98EF06E
:10011000A42CFC8AF0EDA42CFCEA8EF0A4CDA8F06F
:100120008BF0A42DCC3825F0FDE98FF0A42CCD3533
:10013000F0FCEB8EF0A4FEA9F0EB8FF0A4CFC5F09D
:100140002ECD39FEE43CFCEAA42DCE35F0FDE43C96
:10015000FC2275F008758200EF2FFFEE33FECD33E1
:10016000CDCC33CCC58233C5829BED9AEC99E58228
:1001700098400CF582EE9BFEED9AFDEC99FC0FD5B4
:10018000F0D6E4CEFBE4CDFAE4CCF9A88222B800A4
:10019000C1B90059BA002DEC8BF084CFCECDFCE56F
:1001A000F0CBF97818EF2FFFEE33FEED33FDEC3393
:1001B000FCEB33FB10D703994004EB99FB0FD8E518
:1001C000E4F9FA227818EF2FFFEE33FEED33FDEC61
:1001D00033FCC933C910D7059BE99A4007EC9BFC57
:1001E000E99AF90FD8E0E4C9FAE4CCFB2275F010E3
:1001F000EF2FFFEE33FEED33FDCC33CCC833C81008
:10020000D7079BEC9AE899400AED9BFDEC9AFCE835
:1002100099F80FD5F0DAE4CDFBE4CCFAE4C8F92282
:10022000D083D082F8E4937012740193700DA3A36D
:1002300093F8740193F5828883E473740293B5F0A4
:10024000067403936860E9A3A3A3A380D88A838973
:1002500082E47374FFF557F558E540B53E37E53F46
:10026000FE7C00E42541F541EC3EF5407882E6F95C
:100270007883E6FA7884E6FB7885E6FC7886E6FD06
:100280007887E6FE7888E6FF853DB3854083854123
:100290008212025122E4F555F556E55625E0243543
:1002A000F8E6FC08E6FDE540B5050CE4B504088574
:1002B0005557855658800E0556E55670020555640B
:1002C00004455570D5E558F47003E557F46041E5F1
:1002D00040F53EE558240BFFEFFE7C00E42541F598
:1002E00041EC3EF540F53F7882E6F97883E6FA780E
:1002F00084E6FB7885E6FC7886E6FD7887E6FE787E
:1003000088E6FF853DB385408385418212025122F4
:10031000E542240BFFE433EFF559755A001207E963
:10032000E4F555F556E42403FFE43540CF2556CFD8
:100330003555FE1206F2E55A2556F582E559355532
:10034000F583EFF00556E55670020555C3E5559463
:100350000140D2E540FFE54225E02435F87600086B
:10036000A607E54225E02435F808E6F53EE54224F7
:100370000BFFEFFE7C00E42541F541EC3EF540F536
:100380003F05427882E6F97883E6FA7884E6FB78DE
:1003900085E6FC7886E6FD7887E6FE7888E6FF85C8
:1003A0003DB385408385418212025122E4F565F513
:1003B000667F10FE1207C35394D75395D71207B523
:1003C000AB20AA21A9221206BC7F007E4B1207F4A3
:1003D0001207DD787B760AE408F60876020876A034
:1003E0000876020876DD0876CC7564046380207F89
:1003F0002C7E011205471564E564D3940050ED7F0F
:10040000E87E0312054785B33D75401175415512CD
:10041000025375470075480075497B754A07788413
:10042000760078837600788276237886760385B3A3
:100430003D75401075410012025385B33D75401162
:100440007541001202537FC87E0012054785B33DF7
:100450007540117541AA12025380AB787FE4F6D83B
:10046000FD7581880204A20203ACE493A3F8E4932F
:10047000A34003F68001F208DFF48029E493A3F897
:100480005407240CC8C333C4540F4420C883400409
:10049000F456800146F6DFE4800B010204081020C8
:1004A0004080900686E47E019360BCA3FF543F30F9
:1004B000E509541FFEE493A360010ECF54C025E06C
:1004C00060A840B8E493A3FAE493A3F8E493A3C824
:1004D000C582C8CAC583CAF0A3C8C582C8CAC583B5
:1004E000CADFE9DEE780BEC0E0C0F0C083C082C0E2
:1004F000D075D000C000C001C002C003C004C00558
:10050000C006C007757600757700E508701B30A23D
:1005100015E4FF1207D00577E577700205761424FD
:1005200009F8A60780E87508015391BFD007D006E7
:10053000D005D004D003D002D001D000D0D0D082DA
:10054000D083D0F0D0E0328E788F79E47F2BFEFD1F
:10055000FCAB63AA62A961A860120103E47B04FA00
:10056000F9F812018EE4FDFCC3ED9579EC95785015
:100570001EE4FBFAC3EB9FEE6480F8EA64809850B7
:10058000070BBB00010A80EC0DBD00010C80D922D5
:100590008B4D8A4E894FE4FFFEC3EF9554E55364BB
:1005A00080F8EE648098502BAB4D054FE54FAA4E76
:1005B0007002054E14F9120056FDAB500552E5527B
:1005C000AA517002055114F9ED12009C0FBF0001F1
:1005D0000E80C62253C8FED2CCD2CDC2C943C804B5
:1005E0005380F9439506EF8EF012022006004B006F
:1005F00005F8E1000000060875CBFF75CAF7800C0E
:1006000075CBFF75CAE68004E4FEFF227E007F0101
:10061000228E6A8F6B8D6C1207A6EF20E0F9C280E4
:100620007F061207D0D280C2807F021207D0E56A0F
:10063000FF1207D0AF6BE56B1207D0AF6C1207D07B
:10064000D280C2807F041207D0D28022157A157A18
:10065000A87AA60608A607A87AE6FE08E6FF7C00A8
:100660007D0A1200AEEF4E600312064CA87AE6FE39
:1006700008E6FF7C007D0A1200AEED2430FF120078
:1006800050057A057A220F2600380000000000F29B
:10069000F2F2F2F2636FEC03200000260323F1F183
:1006A000F118080000000000000000000000000039
:1006B000000000000000000000000000D2A38B5BDF
:1006C0008A5C895DE4F55EF55FAB5BAA5CA95D853C
:1006D0005F82855E8312006FFF1207D0055FE55FC2
:1006E0007002055EC3940FE55E6480948040DAC2B8
:1006F000A3228E6D8F6EE4F56F1207A6EF20E0F94E
:10070000C2807F031207D0E56DFF1207D0AF6EE500
:100710006E1207D0E4FF1207D08F6FD280228B6752
:100720008A688969AB67AA68A969120056601305CF
:1007300069E5697002056814F9120056FF1208078E
:1007400080E2221207A6EF20E0F9C2807F0612079E
:10075000D0D280C2807F621207D0D280C2807F0652
:100760001207D0D28022E4FDFC53A1F8EF42A1533E
:10077000A17F43A180E59130E4FB1200035391EF88
:100780002243A120EB42A153A4DFEF42A453A4FCD7
:10079000ED42A422AD07AC06E5AD20E4FB8CABED49
:1007A000F5AC75AD0822C2807F051207D0E4FF12B8
:1007B00007D0D28022D2A7E4FD7F02120817D2AF61
:1007C000D2EA22EE3395E08F638E62F561F5602206
:1007D0005391DF8FB2E59130E5FBAFB222E4F542F1
:1007E000F540F541F53FF53E22E4FD7F0112081783
:1007F0005394FE221205D443984043981022D2A667
:10080000E50860FCC2A6228F993099FDC29922307A
:1008100098FDC298AF99228FB38DB42212080F228F
:101000008B438A4489458D46D2A6E4F54BF54CC303
:10101000E54C95467480F8654B98501DAB43AA4447
:10102000A945854C82854B8312006FFF1207D005BE
:101030004CE54C70DA054B80D6E4F54BF54CC3E536
:101040004C954A7480F8654B98501DAB47AA48A947
:1010500049854C82854B8312006FFF1207D0054CE7
:0B106000E54C70DA054B80D6C2A622DA
:10110000E4F570F5716380207F907E01120547053C
:1011100071E57170020570C39404E5706480948079
:0911200040E37FE87E030205476D
:10115500E4F572F5736380207F907E0112054705E3
:1011650073E57370020572C39408E5726480948018
:0911750040E37FE87E0302054718
:1011AA00E4F574F5756380207F907E01120547058A
:1011BA0075E57570020574C3940CE57464809480B7
:0911CA0040E37FE87E03020547C3
:00000001FF
