:10000000020B20E5A45403FFE4FDFC703EEF1460F6
:100010000A14600F14602024037030AFA27C00AD7E
:10002000078028AFA2EF75F004A4FDACF0E5A3C4EF
:10003000131354032DE43CAFA2EF75F010A4FDACF4
:10004000F0E5A3C4540F2DFDE43CFCAE04AF052243
:10005000020F3B020C17BB010689828A83E0225003
:1000600002E722BBFE02E32289828A83E49322BB59
:10007000010CE58229F582E5833AF583E0225006FA
:10008000E92582F8E622BBFE06E92582F8E222E5B0
:100090008229F582E5833AF583E49322BB01068940
:1000A000828A83F0225002F722BBFE01F322BC00B9
:1000B0000BBE0029EF8DF084FFADF022E4CCF87583
:1000C000F008EF2FFFEE33FEEC33FCEE9DEC984092
:1000D00005FCEE9DFE0FD5F0E9E4CEFD22EDF8F52E
:1000E000F0EE8420D21CFEADF075F008EF2FFFED8E
:1000F00033FD4007985006D5F0F222C398FD0FD586
:10010000F0EA22E88FF0A4CC8BF0A42CFCE98EF06E
:10011000A42CFC8AF0EDA42CFCEA8EF0A4CDA8F06F
:100120008BF0A42DCC3825F0FDE98FF0A42CCD3533
:10013000F0FCEB8EF0A4FEA9F0EB8FF0A4CFC5F09D
:100140002ECD39FEE43CFCEAA42DCE35F0FDE43C96
:10015000FC2275F008758200EF2FFFEE33FECD33E1
:10016000CDCC33CCC58233C5829BED9AEC99E58228
:1001700098400CF582EE9BFEED9AFDEC99FC0FD5B4
:10018000F0D6E4CEFBE4CDFAE4CCF9A88222B800A4
:10019000C1B90059BA002DEC8BF084CFCECDFCE56F
:1001A000F0CBF97818EF2FFFEE33FEED33FDEC3393
:1001B000FCEB33FB10D703994004EB99FB0FD8E518
:1001C000E4F9FA227818EF2FFFEE33FEED33FDEC61
:1001D00033FCC933C910D7059BE99A4007EC9BFC57
:1001E000E99AF90FD8E0E4C9FAE4CCFB2275F010E3
:1001F000EF2FFFEE33FEED33FDCC33CCC833C81008
:10020000D7079BEC9AE899400AED9BFDEC9AFCE835
:1002100099F80FD5F0DAE4CDFBE4CCFAE4C8F92282
:10022000E6FC08E6FD08E6FE08E6FF22ECF608ED2F
:10023000F608EEF608EFF622D083D082F8E4937049
:1002400012740193700DA3A393F8740193F582883F
:1002500083E473740293B5F0067403936860E9A3B2
:10026000A3A3A380D80204A7E86480F8E933E833A5
:1002700060110460F0ED33EC337009E8FCE9FDEA4D
:10028000FEEBFF220460DED3EB9FEA9EE99DE8C20D
:10029000E78CF0C2F795F0400CE8CCF8E9CDF9EA2C
:1002A000CEFAEBCFFB12047285D0F0580470032015
:1002B000D5B3E80470075002B2D50204B192D5EC70
:1002C0000460F7E4CCC0E0C398F8603B9418600881
:1002D000400DD0E0FB020489E4FBFAC9FC8028E869
:1002E00030E406E4C9FBE4CAFCE830E305E4C9CA2B
:1002F000CBFCE854076010F8C3E913F9EA13FAEBF2
:1003000013FBEC13FCD8F130F52FC3E49CFCEF9BFE
:10031000FFEE9AFEED99FDD0E0FBEF4E4D4C7012D2
:1003200022DB030204AEEC2CFCEF33FFEE33FEEDD8
:1003300033FDED30E7EB020489EF2BFFEE3AFEEDE3
:1003400039FDD0E0FB50130BBB00030204B1ED13E9
:10035000FDEE13FEEF13FFEC13FC0204890204B15F
:10036000EC5D046005E8590470030204A7120472EE
:10037000580460F6EC4860F2EC7004FDFEFF22C801
:1003800060DB2481C85009C398600250060204AEA5
:100390009850CAF582E9294B4A7005AB8202049D48
:1003A00075F0007C1A7880C3EF9BEE9AED99400DB2
:1003B000C3EF9BFFEE9AFEED99FDE842F0DC23AC23
:1003C000F0D0E0FFD0E0FED0E0FDAB8220E7101BD4
:1003D000EB60BAEC2CFCEF33FFEE33FEED33FD02A5
:1003E0000489E803F830E705C0F075F000EF2FFF4F
:1003F000EE33FEED33FD40B830E7C280AA75F02041
:10040000800E75F010800575F0087D007E007F007D
:100410003392D530D50312060FEC334010EF33FF83
:10042000EE33FEED33FDEC33FCD5F0ED22E5F024A8
:100430007EA2D513CC92E7CDCEFF22EDD2E7CD330D
:10044000EC3392D524814006E4FFFEFDFC22FCE45F
:10045000CFCECDCC24E0501174FF80EDC3CC13CCB3
:10046000CD13CDCE13CECF13CF0470F030D5DE0236
:10047000060FE9D2E7C933E833F892D5EDD2E7CDDC
:1004800033EC33FC5002B2D522EC30E7100FBF0042
:100490000C0EBE00080DBD00040BEB6014A2D5EBE2
:1004A00013FCED92E7FD2274FFFCFDFEFF22E480C9
:1004B000F8A2D574FF13FC7D80E480EFEC4D601151
:1004C000E8497017ED33EC3304600DE4FCFFFEFDEA
:1004D00022E933E8330470F80204A71204725804C6
:1004E0006009E4CC248150062850090204B1284058
:1004F000030204AEC0E0EB4A7044B98006D0E0FBD2
:1005000002049DEF4E701CBD8008EBFFEAFEE9FD82
:1005100080EBE98DF0A4FEE5F00205A5E9CDF9EA4E
:10052000FEEBFFEF89F0A4FCE5F0CE89F0A42EFFEE
:10053000E435F0CD89F0A42DFEE435F08067EF4E70
:100540007005BD80D780C3EF8BF0A4ACF0EE8BF0CC
:10055000A42CFCE435F0F8EF8AF0A42CE5F038FC8C
:10056000E433CB8DF0A42CFCE5F03BF8EE8AF0A44C
:100570002CFCE5F038F8E433CF89F0A42CFCE5F04E
:1005800038CF3400CE89F0A42FFFE5F03EFEE433EF
:10059000C98DF0A42EFEE5F039CD8AF0A42FFFE539
:1005A000F03EFEE43DFD33D0E0FB50070BBB000FF7
:1005B0000204B1EC2CFCEF33FFEE33FEED33FD0211
:1005C0000489C0E0EFFBEEFAEDF9ECF81204BCD0C0
:1005D000E0F5F0EFFBEEFAEDF9ECF812061DA3A33F
:1005E000A3A3E8C0E0E9C0E0EAC0E0EBC0E0C0F0EF
:1005F0001204BC120639A3A3A3A312026CD0F0D03C
:10060000E0FBD0E0FAD0E0F9D0E0F8D5F0D422C396
:10061000E49FFFE49EFEE49DFDE49CFC22E493FC49
:10062000740193FD740293FE740393FF22E0F8A318
:10063000E0F9A3E0FAA3E0FB22E493F8740193F954
:10064000740293FA740393FB22ECF0A3EDF0A3EE93
:10065000F0A3EFF02274FFF54AF54BE556AE55785E
:1006600006CEC313CE13D8F9B55220EEB5511CE512
:1006700054AE537806C333CE33CED8F9FF7C00E5B1
:1006800056543F2FF556EC3EF55522E4F548F54912
:10069000AD49ED25E024B3F8E6547FFA08E6FBE522
:1006A00056AE557806CEC313CE13D8F9B50319EE5E
:1006B000B5021585484A85494BED25E024B3F87409
:1006C0008046F608E6F6800E0549E54970020548C1
:1006D0006410454870BAE54BF47003E54AF4604491
:1006E000E556AE557806CEC313CE13D8F9F5528E23
:1006F00051E54B242FFFE4354AFEEF7806C333CE95
:1007000033CED8F9FF7C00E556543F2FF556EC3E2A
:10071000F555E556AE557806CEC313CE13D8F9F588
:10072000548E5322E5572401F549E433F548AF4987
:10073000EF25E024B3F8E630E70DEF25E024B3F829
:10074000747F56F60207F7E549242FFFE43548FE8B
:10075000EF7806C333CE33CED8F98E4CF54D120F59
:100760001DE4F54EF54FE55654C02403FFE435551E
:10077000CF254FCF354EFE120E22E54D254FF58287
:10078000E54C354EF583EFF0054FE54F7002054E11
:10079000C39440E54E940040CDE556AE557806CE64
:1007A000C313CE13D8F9FFAD49ED25E024B3F8A665
:1007B0000608A607ED25E024B3F8E6F55108E6F5AE
:1007C00052E549242FFFE43548FEEF7806C333CEC7
:1007D00033CED8F9FF7C00E556543F2FF556EC3E5A
:1007E000F555E556AE557806CEC313CE13D8F9F5B8
:1007F000548E5385495722E5492401FF754800EF7F
:10080000540FF54902072E3E9248DA3ECCCCCD3F3C
:100810002AAAAB400000003F8000003F9837F03F1D
:10082000B504F33FD744FC3E3172173EB172173F17
:100830000515913EDE5BD9D2008002C200EDD2E701
:10084000F8CD33EC3304700BBD800592D50204B1B2
:100850000204A740FBD31460F2F5F07C3FEE7A006F
:10086000C39496C8948B40230AC89469C8941A40CC
:100870001A0AC89468C8941F40110AC8945AC894A8
:1008800025400805F07A00CDC2E7CDC0F090000009
:10089000120649EA2323C0E02417F582E43408F560
:1008A0008312063912026CECC0E0EDC0E0EEC0E04D
:1008B000EFC0E012061D90000012062D120268D053
:1008C000E0FBD0E0FAD0E0F9D0E0B2E7F812036044
:1008D00090000012064990080774031205C29000A8
:1008E0000012062D1204BCD0E0600F2423F582E430
:1008F0003408F58312063912026C90000012064982
:10090000D0E0C3947FFDE49400FC1204027B187ACB
:10091000727931783F1204BC90000012062D120249
:100920006C30000B7BD97A5B79DE783E1204BC22F6
:10093000787DE6FF3395E0EFFE08E6FD3395E0FCB9
:10094000E42DFFEE3CF5468F47F5448F457540009A
:10095000754102754200754302C3E5419436E54096
:10096000648094805079854446854547AD41747DC7
:100970002DF8E6FFEFFE747E2DF8E6FD3395E0FCE2
:10098000E42DF545EE3CF544C3E5459547FDE544CA
:100990009546FC12040278DA12022C78DA12022050
:1009A00012043B120A8AD3EF9408EE6480948040CC
:1009B00009747D2543F8A645800F78DA12022012CB
:1009C000043B747D2543F8A60774022541F541E4F4
:1009D0003540F5400543E5437002054202095922BE
:1009E0007F107E00120F035394D75395D7E4F5651B
:1009F000F5666380207F907E01120C770566E566C0
:100A000070020565C39406E5656480948040E37BCD
:100A1000107D037F20120EB1120EF5AB21AA22A980
:100A200023120DECE4F565F566C3E5669436E565DD
:100A300064809480502E7F03120E968E678F68E537
:100A400067FFAE66747D2EF8A607747E2EF8A66842
:100A50007F057E00120C7774022566F566E4356525
:100A6000F56580C5120930753A00753B00753C7D0F
:100A7000753D147B007A0079247D03120BAC6380F2
:100A8000207F147E00120C77809A8E768F77D3E5C4
:100A9000779400E57664809480403AAC76AD77EC4C
:100AA00012040212083BC004C005C006C0077F0044
:100AB0007E007D007C4012083BA804A905AA06AB75
:100AC00007D007D006D005D004120360E4FBFA7902
:100AD00080783F8044E57745767003FEFF22C3E4CB
:100AE0009577FDE49576FC12040212083BC004C021
:100AF00005C006C0077F007E007D007C4012083BD9
:100B0000A804A905AA06AB07D007D006D005D004D3
:100B1000120360E4FBFAF9784012026C12043B22E3
:100B2000787FE4F6D8FD7581DD020B670209E0E409
:100B300093A3F8E493A34003F68001F208DFF48066
:100B400029E493A3F85407240CC8C333C4540F44B6
:100B500020C8834004F456800146F6DFE4800B0190
:100B600002040810204080900DB6E47E019360BC22
:100B7000A3FF543F30E509541FFEE493A360010E28
:100B8000CF54C025E060A840B8E493A3FAE493A34F
:100B9000F8E493A3C8C582C8CAC583CAF0A3C8C570
:100BA00082C8CAC583CADFE9DEE780BE8B368A37D2
:100BB00089388D39D2A6E4F53EF53FC3E53F953936
:100BC0007480F8653E98501DAB36AA37A938853F2A
:100BD00082853E8312006FFF120F10053FE53F70C4
:100BE000DA053E80D6E4F53EF53FC3E53F953D741A
:100BF00080F8653E98501DAB3AAA3BA93C853F82E0
:100C0000853E8312006FFF120F10053FE53F70DA3B
:100C1000053E80D6C2A622C0E0C0F0C083C082C01C
:100C2000D075D000C000C001C002C003C004C00520
:100C3000C006C007757800757900E508701B30A202
:100C400015E4FF120F100579E57970020578142478
:100C500009F8A60780E87508015391BFD007D006B0
:100C6000D005D004D003D002D001D000D0D0D082A3
:100C7000D083D0F0D0E0328E7A8F7BE47F2BFEFDE4
:100C8000FCAB6CAA6BA96AA869120103E47B04FAA5
:100C9000F9F812018EE4FDFCC3ED957BEC957A50DA
:100CA0001EE4FBFAC3EB9FEE6480F8EA6480985080
:100CB000070BBB00010A80EC0DBD00010C80D9229E
:100CC0008B588A59895AE4FFFEC3EF955FE55E644D
:100CD00080F8EE648098502BAB58055AE55AAA5913
:100CE0007002055914F9120056FDAB5B055DE55D18
:100CF000AA5C7002055C14F9ED12009C0FBF0001A4
:100D00000E80C62253C8FED2CCD2CDC2C943C8047D
:100D10005380F9439506EF8EF01202380D304B00E8
:100D20000D28E10000000D3875CBFF75CAF7800C67
:100D300075CBFF75CAE68004E4FEFF227E007F01CA
:100D4000228E708F718D72120EE6EF20E0F9C28054
:100D50007F06120F10D280C2807F02120F10E57042
:100D6000FF120F10AF71E571120F10AF72120F105A
:100D7000D280C2807F04120F10D28022157C157C95
:100D8000A87CA60608A607A87CE6FE08E6FF7C006D
:100D90007D0A1200AEEF4E6003120D7CA87CE6FEC9
:100DA00008E6FF7C007D0A1200AEED2430FF120041
:100DB00050057C057C220F2700A00000000000F2F7
:100DC000F2F2F2F2636FEC03210000270324F1F149
:100DD000F118080000000000000000000000000002
:100DE000000000000000000000000000D2A38B60A3
:100DF0008A618962E4F563F564AB60AA61A96285E2
:100E0000648285638312006FFF120F100564E5642E
:100E100070020563C3940FE5636480948040DAC276
:100E2000A3228E738F74E4F575120EE6EF20E0F9BD
:100E3000C2807F03120F10E573FF120F10AF74E52D
:100E400074120F10E4FF120F108F75D280228B6D79
:100E50008A6E896FAB6DAA6EA96F1200566013057A
:100E60006FE56F7002056E14F9120056FF120F3B0A
:100E700080E222120EE6EF20E0F9C2807F06120F18
:100E800010D280C2807F62120F10D280C2807F0693
:100E9000120F10D28022E4FDFC53A1F8EF42A153BF
:100EA000A17F43A180E59130E4FB1200035391EF51
:100EB0002243A120EB42A153A4DFEF42A453A4FCA0
:100EC000ED42A422AD07AC06E5AD20E4FB8CABED12
:100ED000F5AC75AD0822E4F557F555F556F553F523
:100EE00054F551F55222C2807F05120F10E4FF1213
:100EF0000F10D28022D2A7E4FD7F02120F4BD2AF97
:100F0000D2EA22EE3395E08F6C8E6BF56AF569229A
:100F10005391DF8FB2E59130E5FBAFB222E4FD7F64
:100F200001120F4B5394FE22120D04439840439834
:100F30001022D2A6E50860FCC2A6228F993099FD46
:100F4000C299223098FDC298AF99228FB38DB422F6
:040F5000120F432217
:00000001FF
