:100000000203C7E5A45403FFE4FDFC703EEF146057
:100010000A14600F14602024037030AFA27C00AD7E
:10002000078028AFA2EF75F004A4FDACF0E5A3C4EF
:10003000131354032DE43CAFA2EF75F010A4FDACF4
:10004000F0E5A3C4540F2DFDE43CFCAE04AF052243
:10005000020791020453BB010689828A83E0225081
:1000600002E722BBFE02E32289828A83E49322BB59
:10007000010CE58229F582E5833AF583E0225006FA
:10008000E92582F8E622BBFE06E92582F8E222E5B0
:100090008229F582E5833AF583E49322BB01068940
:1000A000828A83F0225002F722BBFE01F322BC00B9
:1000B0000BBE0029EF8DF084FFADF022E4CCF87583
:1000C000F008EF2FFFEE33FEEC33FCEE9DEC984092
:1000D00005FCEE9DFE0FD5F0E9E4CEFD22EDF8F52E
:1000E000F0EE8420D21CFEADF075F008EF2FFFED8E
:1000F00033FD4007985006D5F0F222C398FD0FD586
:10010000F0EA22E88FF0A4CC8BF0A42CFCE98EF06E
:10011000A42CFC8AF0EDA42CFCEA8EF0A4CDA8F06F
:100120008BF0A42DCC3825F0FDE98FF0A42CCD3533
:10013000F0FCEB8EF0A4FEA9F0EB8FF0A4CFC5F09D
:100140002ECD39FEE43CFCEAA42DCE35F0FDE43C96
:10015000FC2275F008758200EF2FFFEE33FECD33E1
:10016000CDCC33CCC58233C5829BED9AEC99E58228
:1001700098400CF582EE9BFEED9AFDEC99FC0FD5B4
:10018000F0D6E4CEFBE4CDFAE4CCF9A88222B800A4
:10019000C1B90059BA002DEC8BF084CFCECDFCE56F
:1001A000F0CBF97818EF2FFFEE33FEED33FDEC3393
:1001B000FCEB33FB10D703994004EB99FB0FD8E518
:1001C000E4F9FA227818EF2FFFEE33FEED33FDEC61
:1001D00033FCC933C910D7059BE99A4007EC9BFC57
:1001E000E99AF90FD8E0E4C9FAE4CCFB2275F010E3
:1001F000EF2FFFEE33FEED33FDCC33CCC833C81008
:10020000D7079BEC9AE899400AED9BFDEC9AFCE835
:1002100099F80FD5F0DAE4CDFBE4CCFAE4C8F92282
:10022000D083D082F8E4937012740193700DA3A36D
:1002300093F8740193F5828883E473740293B5F0A4
:10024000067403936860E9A3A3A3A380D88A838973
:1002500082E47374FFFDFCE4F562F563743C25638E
:10026000F8E6FEE4B5480AEEB54706AC62AD638039
:100270000E0563E56370020562640A456270DDED98
:10028000F47002ECF4602BED2406FFE43CEF7548BB
:1002900000F5478546B3787DE6FB787CE6FA787B07
:1002A000E6F9787FE6FD8547838548821202510290
:1002B0000333E54A2406FFE43549EFF5647565002C
:1002C000120773E4F562F563E5482403CFE435478C
:1002D000CF2563CF3562FE12065EE5652563F582A4
:1002E000E5643562F583EFF00563E563700205624E
:1002F000C3E562940140D1E547FF743C254AF8A666
:1003000007E54A2406FFE43549EF754800F547053F
:100310004AE54A700205498546B3787DE6FB787C5C
:10032000E6FA787BE6F9787FE6FD854783854882A3
:100330001202517F017E000204B3E4F56BF56C7F7D
:1003400010FE1207595394D75395D712074BAB0899
:10035000AA09A90A1206287F007E4B12077E120600
:100360008A750B0AE4F50C750D02750EA0750F0267
:100370007510DD7511CC756A046380207F2C7E01B9
:100380001204B3156AE56AD3940050ED7FE87E034A
:100390001204B3754F0075500075510B75520778F4
:1003A0007D7600787C7600787B7612787F76038580
:1003B000B3467547107548001202536380207F20B2
:1003C0007E031204B380CC787FE4F6D8FD7581817A
:1003D00002040E02033AE493A3F8E493A34003F665
:1003E0008001F208DFF48029E493A3F85407240C79
:1003F000C8C333C4540F4420C8834004F45680015A
:1004000046F6DFE4800B01020408102040809005CE
:10041000F2E47E019360BCA3FF543F30E509541F12
:10042000FEE493A360010ECF54C025E060A840B85D
:10043000E493A3FAE493A3F8E493A3C8C582C8CADB
:10044000C583CAF0A3C8C582C8CAC583CADFE9DEAE
:10045000E780BEC0E0C0F0C083C082C0D075D000CD
:10046000C000C001C002C003C004C005C006C00770
:10047000757600757700E524701B30A215E4FF1235
:1004800007660577E57770020576142425F8A60738
:1004900080E87524015391BFD007D006D005D00461
:1004A000D003D002D001D000D0D0D082D083D0F001
:1004B000D0E0328E788F79E47F2BFEFDFCAB69AA09
:1004C00068A967A866120103E47B04FAF9F812012F
:1004D0008EE4FDFCC3ED9579EC9578501EE4FBFAB3
:1004E000C3EB9FEE6480F8EA64809850070BBB0072
:1004F000010A80EC0DBD00010C80D9228B558A5673
:100500008957E4FFFEC3EF955CE55B6480F8EE6419
:100510008098502BAB550557E557AA5670020556E3
:1005200014F9120056FDAB58055AE55AAA59700243
:10053000055914F9ED12009C0FBF00010E80C62270
:1005400053C8FED2CCD2CDC2C943C8045380F943AC
:100550009506EF8EF0120220056C4B000564E10059
:100560000000057475CBFF75CAF7800C75CBFF755D
:10057000CAE68004E4FEFF227E007F01228E708F97
:10058000718D7212073CEF20E0F9C2807F061207DE
:1005900066D280C2807F02120766E570FF1207668E
:1005A000AF71E571120766AF72120766D280C28022
:1005B0007F04120766D28022157A157AA87AA606D9
:1005C00008A607A87AE6FE08E6FF7C007D0A12006E
:1005D000AEEF4E60031205B8A87AE6FE08E6FF7C8F
:1005E000007D0A1200AEED2430FF120050057A059E
:1005F0007A220F1500380000000000F2F2F2F2F249
:10060000636FEC03080000150312F1F1F1182400E8
:1006100000000000000000000000000000000000DA
:100620000000000000000000D2A38B5D8A5E895F9D
:10063000E4F560F561AB5DAA5EA95F8561828560C6
:100640008312006FFF1207660561E56170020560A5
:10065000C3940FE5606480948040DAC2A3228E7355
:100660008F74E4F57512073CEF20E0F9C2807F0338
:10067000120766E573FF120766AF74E5741207662A
:10068000E4FF1207668F75D28022754900754A050E
:10069000E4F547F548753CFF753DFF753E08753F2D
:1006A000FF7540FF7541FF7542FF7543FF7544FFBD
:1006B0007545FF228B6D8A6E896FAB6DAA6EA96F2F
:1006C0001200566013056FE56F7002056E14F91283
:1006D0000056FF12079180E22212073CEF20E0F95A
:1006E000C2807F06120766D280C2807F62120766D0
:1006F000D280C2807F06120766D28022E4FDFC53BE
:10070000A1F8EF42A153A17F43A180E59130E4FB22
:100710001200035391EF2243A120EB42A153A4DF27
:10072000EF42A453A4FCED42A422AD07AC06E5AD14
:1007300020E4FB8CABEDF5AC75AD0822C2807F05E3
:10074000120766E4FF120766D28022D2A7E4FD7F7B
:10075000021207A1D2AFD2EA22EE3395E08F698E62
:1007600068F567F566225391DF8FB2E59130E5FBBE
:10077000AFB222E4FD7F011207A15394FE221205BD
:100780004043984043981022D2A6E52460FCC2A6BC
:10079000228F993099FDC299223098FDC298AF9965
:0E07A000228FB38DB42263802022120799228B
:101000008B4B8A4C894D8D4ED2A6E4F553F554C3D3
:10101000E554954E7480F8655398501DAB4BAA4C1F
:10102000A94D85548285538312006FFF1207660510
:1010300054E55470DA055380D6E4F553F554C3E50E
:101040005495527480F8655398501DAB4FAA50A91F
:101050005185548285538312006FFF120766055431
:0B106000E55470DA055380D6C2A622CA
:00000001FF
