:1000000002034CE5A45403FFE4FDFC703EEF1460D2
:100010000A14600F14602024037030AFA27C00AD7E
:10002000078028AFA2EF75F004A4FDACF0E5A3C4EF
:10003000131354032DE43CAFA2EF75F010A4FDACF4
:10004000F0E5A3C4540F2DFDE43CFCAE04AF052243
:1000500002079D02045BBB010689828A83E022506D
:1000600002E722BBFE02E32289828A83E49322BB59
:10007000010CE58229F582E5833AF583E0225006FA
:10008000E92582F8E622BBFE06E92582F8E222E5B0
:100090008229F582E5833AF583E49322BB01068940
:1000A000828A83F0225002F722BBFE01F322BC00B9
:1000B0000BBE0029EF8DF084FFADF022E4CCF87583
:1000C000F008EF2FFFEE33FEEC33FCEE9DEC984092
:1000D00005FCEE9DFE0FD5F0E9E4CEFD22EDF8F52E
:1000E000F0EE8420D21CFEADF075F008EF2FFFED8E
:1000F00033FD4007985006D5F0F222C398FD0FD586
:10010000F0EA22E88FF0A4CC8BF0A42CFCE98EF06E
:10011000A42CFC8AF0EDA42CFCEA8EF0A4CDA8F06F
:100120008BF0A42DCC3825F0FDE98FF0A42CCD3533
:10013000F0FCEB8EF0A4FEA9F0EB8FF0A4CFC5F09D
:100140002ECD39FEE43CFCEAA42DCE35F0FDE43C96
:10015000FC2275F008758200EF2FFFEE33FECD33E1
:10016000CDCC33CCC58233C5829BED9AEC99E58228
:1001700098400CF582EE9BFEED9AFDEC99FC0FD5B4
:10018000F0D6E4CEFBE4CDFAE4CCF9A88222B800A4
:10019000C1B90059BA002DEC8BF084CFCECDFCE56F
:1001A000F0CBF97818EF2FFFEE33FEED33FDEC3393
:1001B000FCEB33FB10D703994004EB99FB0FD8E518
:1001C000E4F9FA227818EF2FFFEE33FEED33FDEC61
:1001D00033FCC933C910D7059BE99A4007EC9BFC57
:1001E000E99AF90FD8E0E4C9FAE4CCFB2275F010E3
:1001F000EF2FFFEE33FEED33FDCC33CCC833C81008
:10020000D7079BEC9AE899400AED9BFDEC9AFCE835
:1002100099F80FD5F0DAE4CDFBE4CCFAE4C8F92282
:10022000D083D082F8E4937012740193700DA3A36D
:1002300093F8740193F5828883E473740293B5F0A4
:10024000067403936860E9A3A3A3A380D874FFFD99
:10025000FCE4F558F55974352559F8E6F9547FFB57
:10026000E542547FB5030FAC58AD5974352559F8A4
:10027000E94480F6800E0559E55970020558640A74
:10028000455870D2EDF47002ECF46018E542F53F89
:10029000ED2406FFEFFE7C00E42543F543EC3EF53C
:1002A00042F54122E5452401F559E43544F55874F9
:1002B000352559F8E630E722547FF6E542F53FE56B
:1002C000592406FFEFFE7C00E42543F543EC3EF5A0
:1002D00042F54185584485594522E5592406FFE4F5
:1002E0003558EFF55A755B0012077FE4F55CF55D54
:1002F000E5432403CFE43542CF255DCF355CFE12C4
:100300000694E55B255DF582E55A355CF583EFF0F3
:10031000055DE55D7002055CC3E55C940140D1E5D7
:1003200042FFAE5974352EF8A60774352EF8E6F55F
:100330003FE5592406FFEFFE7C00E42543F543EC3E
:100340003EF542F54185584485594522787FE4F6CB
:10035000D8FD75818B0203930203D8E493A3F8E4DC
:1003600093A34003F68001F208DFF48029E493A30D
:10037000F85407240CC8C333C4540F4420C8834026
:1003800004F456800146F6DFE4800B0102040810F5
:100390002040809005FAE47E019360BCA3FF543FA7
:1003A00030E509541FFEE493A360010ECF54C0252D
:1003B000E060A840B8E493A3FAE493A3F8E493A31D
:1003C000C8C582C8CAC583CAF0A3C8C582C8CAC581
:1003D00083CADFE9DEE780BEE4F568F5697F10FED9
:1003E0001207655394D75395D7120757AB20AA210C
:1003F000A9221206307F007E4B12078A1206667809
:100400007E760AE408F60876020876A008760208E6
:1004100076DD0876CC7567046380207F2C7E011220
:1004200004BB1567E567D3940050ED7FE87E0312A7
:1004300004BB121100754A00754B00754C7E754D5A
:10044000077B007A0079237D031210001211557F7B
:10045000C87E001204BB1211AA80D7C0E0C0F0C051
:1004600083C082C0D075D000C000C001C002C003EC
:10047000C004C005C006C007757900757A00E5089C
:10048000701B30A215E4FF120772057AE57A70023C
:100490000579142409F8A60780E87508015391BF6F
:1004A000D007D006D005D004D003D002D001D000B0
:1004B000D0D0D082D083D0F0D0E0328E7B8F7CE45D
:1004C0007F2BFEFDFCAB66AA65A964A8631201033D
:1004D000E47B04FAF9F812018EE4FDFCC3ED957C8F
:1004E000EC957B501EE4FBFAC3EB9FEE6480F8EAC8
:1004F00064809850070BBB00010A80EC0DBD000121
:100500000C80D9228B508A518952E4FFFEC3EF95AB
:1005100057E5566480F8EE648098502BAB50055236
:10052000E552AA517002055114F9120056FDAB5361
:100530000555E555AA547002055414F9ED12009CB6
:100540000FBF00010E80C62253C8FED2CCD2CDC24E
:10055000C943C8045380F9439506EF8EF012022078
:1005600005744B00056CE1000000057C75CBFF7540
:10057000CAF7800C75CBFF75CAE68004E4FEFF2243
:100580007E007F01228E6D8F6E8D6F120748EF20E7
:10059000E0F9C2807F06120772D280C2807F021209
:1005A0000772E56DFF120772AF6EE56E120772AF4C
:1005B0006F120772D280C2807F04120772D280222B
:1005C000157D157DA87DA60608A607A87DE6FE0870
:1005D000E6FF7C007D0A1200AEEF4E60031205C0FC
:1005E000A87DE6FE08E6FF7C007D0A1200AEED2441
:1005F00030FF120050057D057D220F2600380000D7
:10060000000000F2F2F2F2F2636FEC032000002629
:100610000323F1F1F11808000000000000000000C1
:1006200000000000000000000000000000000000CA
:10063000D2A38B5E8A5F8960E4F561F562AB5EAA46
:100640005FA96085628285618312006FFF12077265
:100650000562E56270020561C3940FE561648094F0
:100660008040DAC2A322754400754505E4F542F5E1
:1006700043F541F53F7535FF7536FF753708753819
:10068000FF7539FF753AFF753BFF753CFF753DFF00
:10069000753EFF228E708F71E4F572120748EF20CD
:1006A000E0F9C2807F03120772E570FF120772AF94
:1006B00071E571120772E4FF1207728F72D2802205
:1006C0008B6A8A6B896CAB6AAA6BA96C1200566044
:1006D00013056CE56C7002056B14F9120056FF12DD
:1006E000079D80E222120748EF20E0F9C2807F06D2
:1006F000120772D280C2807F62120772D280C280DB
:100700007F06120772D28022E4FDFC53A1F8EF426B
:10071000A153A17F43A180E59130E4FB1200035374
:1007200091EF2243A120EB42A153A4DFEF42A45357
:10073000A4FCED42A422AD07AC06E5AD20E4FB8CA1
:10074000ABEDF5AC75AD0822C2807F05120772E4EF
:10075000FF120772D28022D2A7E4FD7F021207ADFA
:10076000D2AFD2EA22EE3395E08F668E65F564F55E
:1007700063225391DF8FB2E59130E5FBAFB222E403
:10078000FD7F011207AD5394FE22120548439840A5
:1007900043981022D2A6E50860FCC2A6228F9930A9
:1007A00099FDC299223098FDC298AF99228FB38DDE
:0607B000B4221207A5228D
:101000008B468A4789488D49D2A6E4F54EF54FC3F1
:10101000E54F95497480F8654E98501DAB46AA4738
:10102000A948854F82854E8312006FFF1207720513
:101030004FE54F70DA054E80D6E4F54EF54FC3E527
:101040004F954D7480F8654E98501DAB4AAA4BA938
:101050004C854F82854E8312006FFF120772054F39
:0B106000E54F70DA054E80D6C2A622D4
:10110000E4F573F5746380207F907E011204BB05C3
:1011100074E57470020573C39404E573648094806D
:0911200040E37FE87E030204BBFA
:10115500E4F575F5766380207F907E011204BB056A
:1011650076E57670020575C39408E575648094800C
:0911750040E37FE87E030204BBA5
:1011AA00E4F577F5786380207F907E011204BB0511
:1011BA0078E57870020577C3940CE57764809480AB
:0911CA0040E37FE87E030204BB50
:00000001FF
