:10000000020522BB010689828A83E0225002E72290
:10001000BBFE02E32289828A83E49322BB01068924
:10002000828A83F0225002F722BBFE01F322EF8D79
:10003000F0A4A8F0CF8CF0A428CE8DF0A42EFE2240
:10004000E88FF0A4CC8BF0A42CFCE98EF0A42CFC5F
:100050008AF0EDA42CFCEA8EF0A4CDA8F08BF0A4DD
:100060002DCC3825F0FDE98FF0A42CCD35F0FCEB3C
:100070008EF0A4FEA9F0EB8FF0A4CFC5F02ECD3901
:10008000FEE43CFCEAA42DCE35F0FDE43CFC2275F8
:10009000F008758200EF2FFFEE33FECD33CDCC3369
:1000A000CCC58233C5829BED9AEC99E58298400CD1
:1000B000F582EE9BFEED9AFDEC99FC0FD5F0D6E4AF
:1000C000CEFBE4CDFAE4CCF9A88222B800C1B90095
:1000D00059BA002DEC8BF084CFCECDFCE5F0CBF9F6
:1000E0007818EF2FFFEE33FEED33FDEC33FCEB33EE
:1000F000FB10D703994004EB99FB0FD8E5E4F9FA1C
:10010000227818EF2FFFEE33FEED33FDEC33FCC900
:1001100033C910D7059BE99A4007EC9BFCE99AF993
:100120000FD8E0E4C9FAE4CCFB2275F010EF2FFF02
:10013000EE33FEED33FDCC33CCC833C810D7079B6C
:10014000EC9AE899400AED9BFDEC9AFCE899F80FCF
:10015000D5F0DAE4CDFBE4CCFAE4C8F9228A83894D
:1001600082E47374FFF532F533E4F530F5316380E2
:10017000207F907E0112036C0531E531700205305D
:10018000C3940AE530940040E57FE87E0312036CD7
:10019000E4F530F53174082531F8E6FEE4B5130CCA
:1001A000EEB51208853032853133800E0531E531E8
:1001B00070020530640A453070DBE533F47003E506
:1001C00032F46039E4F530F5316380207F907E01B0
:1001D00012036C0531E53170020530C39404E5303B
:1001E000940040E5E5332406FFE43532EF75130053
:1001F000F5128512838513821201618068E515244A
:1002000006FFEFF534753500E4F530F531E51324DC
:1002100003CFE43512CF2531CF3530FE12046EE521
:10022000352531F582E5343530F583EFF00531E5DC
:100230003170020530C3E530940140D1E512FF74FE
:10024000082515F8A607E5152406FFE43514EF7513
:100250001300F5120515E515700205148512838546
:1002600013821201617F017E0002036C8E168F17CC
:100270008C188D198A1A8B1BE4F520F521C3E52112
:100280009517E5166480F8E520648098501B63801C
:1002900020AE18AF197C007D6412002E12036C058D
:1002A00021E52170D8052080D4E4F520F521C3E5AF
:1002B00021951DE51C6480F8E520648098501B633F
:1002C0008020AE1AAF1B7C007D6412002E12036CDE
:1002D0000521E52170D8052080D4AE1EAF1F7C001B
:1002E0007D6412002E12036CE5172519CFE5163533
:1002F00018CF251BCF351AFE225394D75395D77F9D
:10030000107E00120508E4F544F5456380207FC89F
:100310007E0012036C0545E54570020544C3940652
:10032000E5446480948040E37FE87E0312036C120E
:10033000052E7FE87E0312036C12049A751208756D
:1003400013001201637FE87E0312036C75121075AF
:1003500013001201637FE87E0312036C751210759F
:1003600013001201637F017E0002036C8E468F47EB
:10037000E47F2BFEFDFCAB39AA38A937A836120062
:1003800040E47B04FAF9F81200CBE4FDFCC3ED95E0
:1003900047EC9546501EE4FBFAC3EB9FEE6480F8F1
:1003A000EA64809850070BBB00010A80EC0DBD0089
:1003B000010C80D9228B228A238924E4FFFEC3EF1B
:1003C0009529E5286480F8EE648098502BAB2205CF
:1003D00024E524AA237002052314F9120003FDABBF
:1003E000250527E527AA267002052614F9ED120037
:1003F0001C0FBF00010E80C6228E3A8F3B8D3C122F
:1004000004F9EF20E0F9C2807F06120515D280C200
:10041000807F02120515E53AFF120515AF3BE53B5B
:10042000120515AF3C120515D280C2807F0412055B
:1004300015D280228E2A8F2B8C2C8D2DE4F52EF553
:100440002FC3E52F952BE52A6480F8E52E6480986C
:10045000501B638020AE2CAF2D7C007D6412002EDB
:1004600012036C052FE52F70D8052E80D4228E3D07
:100470008F3EE4F53F1204F9EF20E0F9C2807F03DC
:10048000120515E53DFF120515AF3EE53E120515B7
:10049000E4FF1205158F3FD28022751400751505F3
:1004A000E4F512F5137508FF7509FF750A08750B59
:1004B000FF750CFF750DFF750EFF750FFF7510FFB3
:1004C0007511FF221204F9EF20E0F9C2807F0612B5
:1004D0000515D280C2807F62120515D280C2807F4E
:1004E00006120515D28022AD07AC06E5AD20E4FB6F
:1004F0008CABEDF5AC75AD0822C2807F05120515F9
:10050000E4FF120515D28022EE3395E08F398E3844
:10051000F537F536225391DF8FB2E59130E5FBAF29
:10052000B222787FE4F6D8FD7581470202F9E4FD36
:0E0530007F011205395394FE228FB38DB42241
:100800007F907E0112036CE4F542F5436380207F04
:10081000907E0112036C0543E54370020542C394C8
:0A0820000CE5426480948040E3225E
:101000007F907E0112036CE4F540F5416380207F00
:101010002C7E0112036C0541E54170020540C3942A
:0A1020000EE5406480948040E32256
:00000001FF
