:100000000210FE8F2D78857C007D007BFF7A1079B1
:10001000F67E007F08120845E4788DF608F6E52D97
:10002000240EF8C000788DE6FC08E6FDD00025E03F
:1000300025E028F8E67E007818C333CE33CED8F911
:10004000FBAA06ED25E0FFEC33FE74002FF5827469
:10005000003EF583EAF0A3EBF074002FF582740004
:100060003EF583C083C082788DE6FC08E6FD25E07E
:1000700025E0240F252DF8E67E007810C333CE331B
:10008000CED8F9FFE04EFEA3E04FFFD082D083EE42
:10009000F0A3EFF0ED25E0FFEC33FE74002FF582C6
:1000A00074003EF583C083C082788DE6FC08E6FDCF
:1000B00025E025E02410252DF8E6FEE04EFFA3E024
:1000C000D082D083CFF0A3EFF0ED25E0FFEC33FE3C
:1000D00074002FF58274003EF583C083C082788E51
:1000E000E625E025E02411252DF8E6FFE0FEA3E05B
:1000F0004FFFD082D083EEF0A3EFF0788E06E618A3
:10010000700106788EE664101846600302001E78BF
:100110008D7600087610788DE6FC08E6FD25E0FF78
:10012000EC33FE74F02FF58274FF3EF583E0FAA302
:10013000E0FB74FA2FF58274FF3EF583E06AFAA3C0
:10014000E06BFBED25E0FFEC33FE74E42FF58274E9
:10015000FF3EF583E06AFCA3E06BFD74E02FF582BF
:1001600074FF3EF583E06CFEA3E06D25E0FFEE3307
:10017000FEE4FCFDC004C005C006C00718E6FC088C
:10018000E6FD25E0FFEC33FE74F02FF58274FF3EB0
:10019000F583E0FAA3E0FB74FA2FF58274FF3EF5D5
:1001A00083E06AFAA3E06BFBED25E0FFEC33FE741D
:1001B000E42FF58274FF3EF583E06AFCA3E06BFD5B
:1001C00074E02FF58274FF3EF583E06CFEA3E06DD2
:1001D000781FCEC313CE13D8F9FFD003D002D001BD
:1001E000D000EB4FFFEA4EFEAD07AC06788EE62559
:1001F000E0FF18E633FE74002FF58274003EF583AD
:10020000ECF0A3EDF00806E618700106788EE664BF
:100210005018466003020116A82DE6FE08E6FF7896
:1002200091A60608A607E52D2402F8E6FE08E6FFDB
:100230007893A60608A607E52D2404F8E6FE08E64E
:10024000FF7895A60608A607E52D2406F8E6FE0821
:10025000E6FF7897A60608A607E52D2408F8E6FE2F
:1002600008E6FF7899A60608A607E4788DF608F652
:100270007891E6FE08E67805C333CE33CED8F9FF91
:10028000E4FCFDC004C005C006C0077891E6FE0886
:10029000E6781BCEC313CE13D8F9FFD003D002D01B
:1002A00001D000EB4FFFEA4EFE7893E6FC08E6F43F
:1002B000FDECF4789756FCED0856FD7993E77895B8
:1002C00056FA09E70856FBEA4CFCEB4D2FFFEC3ED3
:1002D000FEEF789A26FDEE1836FC788EE625E0FFD4
:1002E00018E633FE74002FF58274003EF583E0FEBD
:1002F000A3E02DFFEE3CFEEF788626FFEE1836FEDB
:10030000788FF608EFF6EE18F6EF08F67897E6FE27
:1003100008E6FF08A60608A6077895E6FE08E6FFA9
:1003200008A60608A6077893E6FE08E6781EC333FB
:10033000CE33CED8F9FFE4FCFDC004C005C006C032
:10034000077893E6FE08E67802CEC313CE13D8F9F9
:10035000FFD003D002D001D000EB4FFFEA4EFE7871
:1003600095A60608A6077891E6FE08E6FF08A60609
:1003700008A607788FE6FE08E6FF08A60608A60787
:10038000788E06E618700106788EE66414184660CA
:1003900003020270788D76000876147891E6FE08E4
:1003A000E67805C333CE33CED8F9FFE4FCFDC004B4
:1003B000C005C006C0077891E6FE08E6781BCEC3EC
:1003C00013CE13D8F9FFD003D002D001D000EB4FE9
:1003D000FFEA4EFE7993E7789566FC09E70866FD2B
:1003E00008E6FA08E6FBEC6AFCED6B2FFFEC3EFE3C
:1003F000EF789A26FDEE1836FC788EE625E0FF1899
:10040000E633FE74002FF58274003EF583E0FEA310
:10041000E02DFFEE3CFEEF7888267990F7EE183657
:1004200019F7788FE6F608E6F67899A60208A6038B
:100430007895E6FE08E6FF08A60608A6077893E684
:10044000FE08E6781EC333CE33CED8F9FFE4FCFDB8
:10045000C004C005C006C0077893E6FE08E678022F
:10046000CEC313CE13D8F9FFD003D002D001D000F1
:10047000EB4FFFEA4EFE7895A60608A6077891E6B0
:10048000FE08E6FF08A60608A607788FE6FE08E63F
:10049000FF08A60608A607788E06E61870010678FB
:1004A0008EE664281846600302039B788D76000868
:1004B00076287891E6FE08E67805C333CE33CED8A9
:1004C000F9FFE4FCFDC004C005C006C0077891E652
:1004D000FE08E6781BCEC313CE13D8F9FFD003D0A5
:1004E00002D001D000EB4FFFEA4EFE7993E77897F8
:1004F00056FC09E70856FD19E7789556FA09E7080A
:1005000056FBEA4CFCEB4DFD09E70856FA09E708F3
:1005100056FBEC4AFCED4B2FFFEC3EFEEF789A26A3
:10052000FDEE1836FC788EE625E0FF18E633FE7403
:10053000002FF58274003EF583E0FEA3E02DFFEE70
:100540003CFEEF788A26FFEE1836FE788FF608EF2D
:10055000F6EE18F6EF08F67897E6FE08E6FF08A62E
:100560000608A6077895E6FE08E6FF08A60608A690
:10057000077893E6FE08E6781EC333CE33CED8F96B
:10058000FFE4FCFDC004C005C006C0077893E6FE8A
:1005900008E67802CEC313CE13D8F9FFD003D002F9
:1005A000D001D000EB4FFFEA4EFE7895A60608A6D4
:1005B000077891E6FE08E6FF08A60608A607788FEA
:1005C000E6FE08E6FF08A60608A607788E06E618E7
:1005D000700106788EE6643C184660030204B27827
:1005E0008D760008763C7891E6FE08E67805C33300
:1005F000CE33CED8F9FFE4FCFDC004C005C006C070
:10060000077891E6FE08E6781BCEC313CE13D8F91F
:10061000FFD003D002D001D000EB4FFFEA4EFE79AD
:1006200093E7789566FC09E70866FD08E6FA08E6B0
:10063000FBEC6AFCED6B2FFFEC3EFEEF789A26FD9B
:10064000EE1836FC788EE625E0FF18E633FE7400DF
:100650002FF58274003EF583E0FEA3E02DFFEE3C13
:10066000FEEF18267990F7EE183619F7788FE6F630
:1006700008E6F67899A60208A6037895E6FE08E64D
:10068000FF08A60608A6077893E6FE08E6781EC3CC
:1006900033CE33CED8F9FFE4FCFDC004C005C0065C
:1006A000C0077893E6FE08E67802CEC313CE13D8CF
:1006B000F9FFD003D002D001D000EB4FFFEA4EFE8D
:1006C0007895A60608A6077891E6FE08E6FF08A634
:1006D0000608A607788FE6FE08E6FF08A60608A625
:1006E00007788E06E618700106788EE66450184684
:1006F00060030205E6A92D09E7789226FF19E7189D
:1007000036FEA82DA60608A607E52D2403F9E778EE
:100710009426FF19E71836FEE52D2402F8A60608F0
:10072000A607E52D2405F9E7789626FF19E7183680
:10073000FEE52D2404F8A60608A607E52D2407F9F2
:10074000E7789826FF19E71836FEE52D2406F8A667
:100750000608A607E52D2409F9E7789A26FF19E788
:100760001836FEE52D2408F8A60608A607E52D2470
:100770004EF8E4F622E709F608DFFA8046E709F2C8
:1007800008DFFA803E88828C83E709F0A3DFFA80D5
:1007900032E309F608DFFA8078E309F208DFFA802D
:1007A0007088828C83E309F0A3DFFA806489828AEF
:1007B00083E0A3F608DFFA805889828A83E0A3F2F7
:1007C00008DFFA804C80D280FA80C680D4806980AD
:1007D000F28033801080A680EA809A80A880DA8038
:1007E000E280CA803389828A83ECFAE493A3C8C585
:1007F00082C8CCC583CCF0A3C8C582C8CCC583CC85
:10080000DFE9DEE7800D89828A83E493A3F608DFBF
:10081000F9ECFAA9F0EDFB2289828A83ECFAE0A3D5
:10082000C8C582C8CCC583CCF0A3C8C582C8CCC516
:1008300083CCDFEADEE880DB89828A83E493A3F25B
:1008400008DFF980CC88F0EF60010E4E60C388F0BD
:10085000ED2402B4040050B9F582EB2402B4040084
:1008600050AF23234582239007C573BB01068982BD
:100870008A83E0225002E722BBFE02E32289828AB9
:1008800083E49322BB010689828A83F0225002F717
:1008900022BBFE01F322BC000BBE0029EF8DF084C9
:1008A000FFADF022E4CCF875F008EF2FFFEE33FE39
:1008B000EC33FCEE9DEC984005FCEE9DFE0FD5F070
:1008C000E9E4CEFD22EDF8F5F0EE8420D21CFEAD79
:1008D000F075F008EF2FFFED33FD4007985006D577
:1008E000F0F222C398FD0FD5F0EA22E88FF0A4CCF5
:1008F0008BF0A42CFCE98EF0A42CFC8AF0EDA42C47
:10090000FCEA8EF0A4CDA8F08BF0A42DCC3825F015
:10091000FDE98FF0A42CCD35F0FCEB8EF0A4FEA900
:10092000F0EB8FF0A4CFC5F02ECD39FEE43CFCEA0D
:10093000A42DCE35F0FDE43CFC2275F00875820054
:10094000EF2FFFEE33FECD33CDCC33CCC58233C594
:10095000829BED9AEC99E58298400CF582EE9BFE25
:10096000ED9AFDEC99FC0FD5F0D6E4CEFBE4CDFA80
:10097000E4CCF9A88222B800C1B90059BA002DEC24
:100980008BF084CFCECDFCE5F0CBF97818EF2FFFBC
:10099000EE33FEED33FDEC33FCEB33FB10D7039964
:1009A0004004EB99FB0FD8E5E4F9FA227818EF2F11
:1009B000FFEE33FEED33FDEC33FCC933C910D70530
:1009C0009BE99A4007EC9BFCE99AF90FD8E0E4C94F
:1009D000FAE4CCFB2275F010EF2FFFEE33FEED337F
:1009E000FDCC33CCC833C810D7079BEC9AE89940AC
:1009F0000AED9BFDEC9AFCE899F80FD5F0DAE4CD0E
:100A0000FBE4CCFAE4C8F922D083D082F8E49370F6
:100A100012740193700DA3A393F8740193F5828867
:100A200083E473740293B5F0067403936860E9A3DA
:100A3000A3A3A380D874FF78B0F608F6E50EAE0D38
:100A40007807CEC313CE13D8F9650A7003EE650993
:100A50006003020A97E50CAE0B7807C333CE33CEA2
:100A6000D8F9FF7C00E50E547F2FF50EEC3EF50D16
:100A700078A7E6F978A8E6FA78A9E6FB78AAE6FC72
:100A800078ABE6FD78ACE6FE78ADE6FF8508B38589
:100A90000D83850E82E473E478AEF608F678AEE650
:100AA000FE08E6FFC39406EE94005034EF25E024E0
:100AB0009CF9E50EAE0D7807CEC313CE13D8F967B7
:100AC0007003EE1967700F78AEE6FE08E6FF08A621
:100AD0000608A607800A78AF06E61870010680BDF2
:100AE00078B0E6FC08E6FDF47002ECF47003020B4B
:100AF0005AE50EAE0D7807CEC313CE13D8F9F50A1A
:100B00008E09ED241AFFE43CFEEF7807C333CE33A1
:100B1000CED8F9FF7C00E50E547F2FF50EEC3EF5A4
:100B20000DE50EAE0D7807CEC313CE13D8F9F50C34
:100B30008E0B78A7E6F978A8E6FA78A9E6FB78AAFA
:100B4000E6FC78ABE6FD78ACE6FE78ADE6FF85081E
:100B5000B3850D83850E82E47322E50F241AFFE42A
:100B600033FEEF7807C333CE33CED8F98E29F52A7A
:100B700012110AE478AEF608F678AEE6FE08E6FF53
:100B8000C39480EE9400502CE50E54802403FDE4C1
:100B9000350DCD2FFFED3EFE12103378AEE6FC088A
:100BA000E6252AF582E5293CF583EFF006E6187084
:100BB000010680C5E50EAE0D7807CEC313CE13D85F
:100BC000F9FFE50F25E0249BF8A60608A6078E0985
:100BD0008F0AE50FFD7C00241AFFEC33FEEF780747
:100BE000C333CE33CED8F9FF7A00E50E547F2FF50C
:100BF0000EEA3EF50DE50EAE0D7807CEC313CE130B
:100C0000D8F9F50C8E0BED2401FFE43CFE7C007D51
:100C1000061208968D0F78A7E6F978A8E6FA78A963
:100C2000E6FB78AAE6FC78ABE6FD78ACE6FE78ADAC
:100C3000E6FF8508B3850D83850E82E473228F2E2F
:100C4000A807E8244EF9D3E7648094B74052E8241B
:100C50004EF8E606FFE52E240E2FF87680E52E24CA
:100C60004EF9C3E7648094C05012E52E244EF8E696
:100C700006FFE52E240E2FF8E4F680E1AF2E1200D9
:100C800003E52E244EF9C3E7648094B85041E52E65
:100C9000244EF8E606FFE52E240E2FF8E4F680E158
:100CA000E52E244EF8E606FFE52E240E2FF876807A
:100CB000E52E244EF9C3E7648094B85012E52E2443
:100CC0004EF8E606FFE52E240E2FF8E4F680E1E567
:100CD0002E240CF9E7FE09E77818CEC313CE13D8FB
:100CE000F9FFE52E2426F8A607E52E240CF9E7FEE9
:100CF00009E77810CEC313CE13D8F9FFE52E2427C9
:100D0000F8A607E52E240CF9E7FFE52E2428F8A61F
:100D100007E52E240DF9E7FFE52E2429F8A607E5BF
:100D20002E240AF9E7FE09E77818CEC313CE13D8AC
:100D3000F9FFE52E242AF8A607E52E240AF9E7FE96
:100D400009E77810CEC313CE13D8F9FFE52E242B74
:100D5000F8A607E52E240AF9E7FFE52E242CF8A6CD
:100D600007E52E240BF9E7FFE52E242DF8A607AFA3
:100D70002E0200038F188D198A1A8B1BE51B451A4A
:100D80007003020E2DE5182450F9E71947700AE5A3
:100D9000182452F9E71947600BE5182451F876003A
:100DA00008760122E51B151BAE1A7002151A4E605B
:100DB0007CE5182452F9E719477072A819E6FFE597
:100DC00018244EF8E606FEE518240E2EF8A607E5D0
:100DD00018240BF8740826F618E436F6E518240AE9
:100DE000F8E6F608E6F6E518240BF9E71947702A45
:100DF000E518240CF80806E618700106E518240C1E
:100E0000F8E6F608E6F6E518240DF9E71947700A42
:100E1000E5182451F87600087601E518244EF9E724
:100E2000B42005AF181200030519020DA422EF2407
:100E30000AF8E4F608F6EF240CF8E4F608F6EF24D6
:100E40004EF8E4F6A8077623087601EF2402F87638
:100E5000AB087689EF2404F876DC0876FEEF2406EA
:100E6000F87654087676EF2408F876E10876F0EF05
:100E7000244FF8E4F608F6EF2451F8E4F608F622D9
:100E80008E2B8F2CE47F2BFEFDFCAB1FAA1EA91D11
:100E9000A81C1208EBE47B04FAF9F8120976E4FDC9
:100EA000FCC3ED952CEC952B501EE4FBFAC3EB9F95
:100EB000EE6480F8EA64809850070BBB00010A805A
:100EC000EC0DBD00010C80D9227F107E001210D8DD
:100ED0005394D75395D77F007E4B121115E4783188
:100EE000F66380207F907E01120E80783106C3E683
:100EF0006480948640EB7F32120E2E7DF27B037A63
:100F000000120D747F3212100463802080E88B1071
:100F10008A118912E4FFFEC3EF9517E5166480F885
:100F2000EE648098502BAB100512E512AA117002E6
:100F3000051114F912086BFDAB130515E515AA147C
:100F40007002051414F9ED1208840FBF00010E8021
:100F5000C62253C8FED2CCD2CDC2C943C8045380E6
:100F6000F9439506EF8EF0120A080F7E4B000F76BC
:100F7000E10000000F8675CBFF75CAF7800C75CBBA
:100F8000FF75CAE68004E4FEFF227E007F01228E08
:100F9000238F248D251210C9EF20E0F9C2807F062F
:100FA0001210E5D280C2807F021210E5E523FF1205
:100FB00010E5AF24E5241210E5AF251210E5D2802C
:100FC000C2807F041210E5D2802215301530A8307F
:100FD000A60608A607A830E6FE08E6FF7C007D0A04
:100FE000120896EF4E6003120FCAA830E6FE08E61C
:100FF000FF7C007D0A120896ED2430FF121138059F
:10100000300530228F2FA807E82452F9E7194760EE
:1010100004E4FEFF22E52F2450F9E71947700FAFD3
:101020002F120C3EE52F244FF876000876017E0043
:101030007F01228E268F27E4F5281210C9EF20E0C9
:10104000F9C2807F031210E5E526FF1210E5AF27F5
:10105000E5271210E5E4FF1210E58F28D280228BDD
:10106000208A218922AB20AA21A92212086B6013B1
:101070000522E5227002052114F912086BFF1211F6
:101080001F80E2221210C9EF20E0F9C2807F061211
:1010900010E5D280C2807F621210E5D280C2807FCC
:1010A000061210E5D28022AD07AC06E5AD20E4FBC8
:1010B0008CABEDF5AC75AD0822E4F50FF50DF50E32
:1010C000F50BF50CF509F50A22C2807F051210E533
:1010D000E4FF1210E5D28022EE3395E08F1F8E1EC2
:1010E000F51DF51C225391DF8FB2E59130E5FBAF82
:1010F000B222616263007999EBA1BCDCC1D6787F32
:10110000E4F6D8FD7581B1020EC9E4FD7F0112112C
:101110002F5394FE22120F52439840439810228F6F
:10112000993099FDC299223098FDC298AF99228FCB
:0B113000B38DB4221211272202111F00
:00000001FF
