:10000000020B218F993099FDC29922020C188B5353
:100010008A548955E4FFFEC3EF955AE5596480F888
:10002000EE648098502BAB530555E555AA547002E9
:10003000055414F9120056FDAB560558E558AA5759
:100040007002055714F9ED12009C0FBF00010E80DD
:02005000C622C6
:10005300020C7BBB010689828A83E0225002E722DD
:10006300BBFE02E32289828A83E49322BB010CE56F
:100073008229F582E5833AF583E0225006E9258259
:10008300F8E622BBFE06E92582F8E222E58229F59D
:1000930082E5833AF583E49322BB010689828A834E
:1000A300F0225002F722BBFE01F322BC000BBE007C
:1000B30029EF8DF084FFADF022E4CCF875F008EF62
:1000C3002FFFEE33FEEC33FCEE9DEC984005FCEE87
:1000D3009DFE0FD5F0E9E4CEFD22EDF8F5F0EE84B8
:1000E30020D21CFEADF075F008EF2FFFED33FD407D
:1000F30007985006D5F0F222C398FD0FD5F0EA22F7
:10010300E88FF0A4CC8BF0A42CFCE98EF0A42CFC9B
:100113008AF0EDA42CFCEA8EF0A4CDA8F08BF0A419
:100123002DCC3825F0FDE98FF0A42CCD35F0FCEB78
:100133008EF0A4FEA9F0EB8FF0A4CFC5F02ECD393D
:10014300FEE43CFCEAA42DCE35F0FDE43CFC227534
:10015300F008758200EF2FFFEE33FECD33CDCC33A5
:10016300CCC58233C5829BED9AEC99E58298400C0D
:10017300F582EE9BFEED9AFDEC99FC0FD5F0D6E4EB
:10018300CEFBE4CDFAE4CCF9A88222B800C1B900D1
:1001930059BA002DEC8BF084CFCECDFCE5F0CBF932
:1001A3007818EF2FFFEE33FEED33FDEC33FCEB332A
:1001B300FB10D703994004EB99FB0FD8E5E4F9FA58
:1001C300227818EF2FFFEE33FEED33FDEC33FCC93D
:1001D30033C910D7059BE99A4007EC9BFCE99AF9D0
:1001E3000FD8E0E4C9FAE4CCFB2275F010EF2FFF3F
:1001F300EE33FEED33FDCC33CCC833C810D7079BA9
:10020300EC9AE899400AED9BFDEC9AFCE899F80F0B
:10021300D5F0DAE4CDFBE4CCFAE4C8F922EB9FF5A0
:10022300F0EA9E42F0E99D42F0EC6480C864809855
:1002330045F022ECF608EDF608EEF608EFF622D0CC
:1002430083D082F8E4937012740193700DA3A39387
:10025300F8740193F5828883E473740293B5F0060E
:100263007403936860E9A3A3A3A380D80204C2E83C
:100273006480F8E933E83360110460F0ED33EC3364
:100283007009E8FCE9FDEAFEEBFF220460DED3EB34
:100293009FEA9EE99DE8C2E78CF0C2F795F0400C17
:1002A300E8CCF8E9CDF9EACEFAEBCFFB12048D8561
:1002B300D0F05804700320D5B3E80470075002B29D
:1002C300D50204CC92D5EC0460F7E4CCC0E0C3982B
:1002D300F8603B94186008400DD0E0FB0204A4E4EE
:1002E300FBFAC9FC8028E830E406E4C9FBE4CAFC55
:1002F300E830E305E4C9CACBFCE854076010F8C34F
:10030300E913F9EA13FAEB13FBEC13FCD8F130F51C
:100313002FC3E49CFCEF9BFFEE9AFEED99FDD0E02A
:10032300FBEF4E4D4C701222DB030204C9EC2CFC94
:10033300EF33FFEE33FEED33FDED30E7EB0204A4C4
:10034300EF2BFFEE3AFEED39FDD0E0FB50130BBB74
:1003530000030204CCED13FDEE13FEEF13FFEC13C9
:10036300FC0204A40204CCEC5D046005E8590470AB
:10037300030204C212048D580460F6EC4860F2ECE8
:100383007004FDFEFF22C860DB2481C85009C398B6
:10039300600250060204C99850CAF582E9294B4A03
:1003A3007005AB820204B875F0007C1A7880C3EF45
:1003B3009BEE9AED99400DC3EF9BFFEE9AFEED99EC
:1003C300FDE842F0DC23ACF0D0E0FFD0E0FED0E06B
:1003D300FDAB8220E7101BEB60BAEC2CFCEF33FF84
:1003E300EE33FEED33FD0204A4E803F830E705C065
:1003F300F075F000EF2FFFEE33FEED33FD40B83024
:10040300E7C280AAED33EC33600A047003BD8004B5
:10041300ECB2E7FC2275F020800E75F010800575B4
:10042300F0087D007E007F003392D530D50312069D
:100433002AEC334010EF33FFEE33FEED33FDEC33A4
:10044300FCD5F0ED22E5F0247EA2D513CC92E7CDC6
:10045300CEFF22EDD2E7CD33EC3392D52481400693
:10046300E4FFFEFDFC22FCE4CFCECDCC24E0501112
:1004730074FF80EDC3CC13CCCD13CDCE13CECF13ED
:10048300CF0470F030D5DE02062AE9D2E7C933E89B
:1004930033F892D5EDD2E7CD33EC33FC5002B2D52D
:1004A30022EC30E7100FBF000C0EBE00080DBD009C
:1004B300040BEB6014A2D5EB13FCED92E7FD227461
:1004C300FFFCFDFEFF22E480F8A2D574FF13FC7D40
:1004D30080E480EFEC4D6011E8497017ED33EC33A5
:1004E30004600DE4FCFFFEFD22E933E8330470F8F9
:1004F3000204C212048D58046009E4CC248150061E
:100503002850090204CC2840030204C9C0E0EB4A86
:100513007044B98006D0E0FB0204B8EF4E701CBDF6
:100523008008EBFFEAFEE9FD80EBE98DF0A4FEE530
:10053300F00205C0E9CDF9EAFEEBFFEF89F0A4FC78
:10054300E5F0CE89F0A42EFFE435F0CD89F0A42D9B
:10055300FEE435F08067EF4E7005BD80D780C3EFB2
:100563008BF0A4ACF0EE8BF0A42CFCE435F0F8EFA8
:100573008AF0A42CE5F038FCE433CB8DF0A42CFCFA
:10058300E5F03BF8EE8AF0A42CFCE5F038F8E43310
:10059300CF89F0A42CFCE5F038CF3400CE89F0A449
:1005A3002FFFE5F03EFEE433C98DF0A42EFEE5F007
:1005B30039CD8AF0A42FFFE5F03EFEE43DFD33D0B4
:1005C300E0FB50070BBB000F0204CCEC2CFCEF3319
:1005D300FFEE33FEED33FD0204A4C0E0EFFBEEFAC1
:1005E300EDF9ECF81204D7D0E0F5F0EFFBEEFAEDFD
:1005F300F9ECF8120638A3A3A3A3E8C0E0E9C0E02E
:10060300EAC0E0EBC0E0C0F01204D7120654A3A383
:10061300A3A3120276D0F0D0E0FBD0E0FAD0E0F949
:10062300D0E0F8D5F0D422C3E49FFFE49EFEE49D1E
:10063300FDE49CFC22E493FC740193FD740293FE9D
:10064300740393FF22E0F8A3E0F9A3E0FAA3E0FB2D
:1006530022E493F8740193F9740293FA740393FBFD
:1006630022ECF0A3EDF0A3EEF0A3EFF02274FFF57C
:100673005DF55EE551AE507807CEC313CE13D8F9BE
:10068300B54D20EEB54C1CE54FAE4E7807C333CEC7
:1006930033CED8F9FF7C00E551547F2FF551EC3E62
:1006A300F55022E4F55BF55CE55C25E024B5F9E55E
:1006B30051AE507807CEC313CE13D8F9677003EE4B
:1006C30019677008855B5D855C5E800E055CE55C83
:1006D3007002055B6408455B70CEE55EF47003E56C
:1006E3005DF46044E551AE507807CEC313CE13D802
:1006F300F9F54D8E4CE55E2417FFE4355DFEEF788A
:1007030007C333CE33CED8F9FF7C00E551547F2F96
:10071300F551EC3EF550E551AE507807CEC313CEFC
:1007230013D8F9F54F8E4E22E5522417FFE433FE1A
:10073300EF7807C333CE33CED8F98E5FF560120F4F
:1007430086E4F55BF55CE55154802403FFE4355002
:10075300CF255CCF355BFE120E8AE560255CF58202
:10076300E55F355BF583EFF0055CE55C7002055BE7
:10077300C39480E55B940040CDE551AE507807CE3D
:10078300C313CE13D8F9FFE55225E024B4F8A60627
:1007930008A6078E4C8F4DE5522417FFE433FEEF76
:1007A3007807C333CE33CED8F9FF7C00E551547FAD
:1007B3002FF551EC3EF550E551AE507807CEC313FB
:1007C300CE13D8F9F54F8E4EE552045407F5522255
:1007D3003E9248DA3ECCCCCD3F2AAAAB4000000083
:1007E3003F8000003F9837F03FB504F33FD744FC08
:1007F3003E3172173EB172173F0515913EDE5BD94C
:10080300D2008002C200EDD2E7F8CD33EC3304709E
:100813000BBD800592D50204CC0204C240FBD31465
:1008230060F2F5F07C3FEE7A00C39496C8948B4057
:10083300230AC89469C8941A401A0AC89468C894C9
:100843001F40110AC8945AC89425400805F07A003D
:10085300CDC2E7CDC0F0900000120664EA2323C0A6
:10086300E024E3F582E43407F5831206541202769A
:10087300ECC0E0EDC0E0EEC0E0EFC0E0120638905F
:100883000000120648120272D0E0FBD0E0FAD0E07A
:10089300F9D0E0B2E7F812036A9000001206649000
:1008A30007D374031205DD9000001206481204D723
:1008B300D0E0600F24EFF582E43407F58312065489
:1008C300120276900000120664D0E0C3947FFDE428
:1008D3009400FC12041D7B187A727931783F12045C
:1008E300D790000012064812027630000B7BD97AAB
:1008F3005B79DE783E1204D7227F107E00120F6CE4
:100903005394D75395D7120F3E7F007E4B120F910E
:100913007BFF7A0F79AC120EB6AE0CAF0D120DE958
:100923007BFF7A0F79AF120EB6E4F566F567638045
:10093300207F907E01120D280567E567700205662A
:10094300C39406E5666480948040E37B107D037F57
:1009530020120F19120F5E7B007A007911120E23F9
:10096300E4F50CF50DF508F509F50AF50B758902A3
:10097300F58CD2AFD2A9D28CE4F566F567C3E567EF
:100983009436E56664809480502E7F03120EFE8EAB
:10099300688F69E568FFAE67747E2EF8A607747FDB
:1009A3002EF8A6697F057E00120D2874022567F5CF
:1009B30067E43566F56680C5120A91753D00753E9C
:1009C30000753F7E7540147B007A00790E7D03121B
:1009D3000BADE50B6401450A709EF50AF50B6380C8
:1009E30020AE0CAF0D120DE97BFF7A0F79AF120E1B
:1009F300B6D2AF80838E778F78D3E5789400E5778E
:100A030064809480403AAC77AD78EC12041D1208F0
:100A130003C004C005C006C0077F007E007D007CC4
:100A230040120803A804A905AA06AB07D007D006FD
:100A3300D005D00412036AE4FBFA7980783F80473B
:100A4300E57845777003FEFF22C3E49578FDE495CE
:100A530077FC12041D120803120407C004C005C06A
:100A630006C0077F007E007D007C40120803A804B7
:100A7300A905AA06AB07D007D006D005D0041203F8
:100A83006AE4FBFAF9784012027612045622050D45
:100A9300E50D7002050C787EE6FF3395E0EFFE0866
:100AA300E6FD3395E0FCE42DFFEE3CF5498F4AF576
:100AB300478F48754300754402754500754602C368
:100AC300E5449436E54364809480505185474985D5
:100AD300484AAD44747E2DF8E6FFEFFE747F2DF88F
:100AE300E6FD3395E0FCE42DF548EE3CF547C3E520
:100AF30048954AFDE5479549FC12041D78CB12023F
:100B030036747E2546F8A64874022544F544E43538
:100B130043F5430546E54670A6054580A222787F46
:100B2300E4F6D8FD7581CE020B680208FCE493A3BA
:100B3300F8E493A34003F68001F208DFF48029E48C
:100B430093A3F85407240CC8C333C4540F4420C8D8
:100B5300834004F456800146F6DFE4800B0102046F
:100B63000810204080900E59E47E019360BCA3FFDF
:100B7300543F30E509541FFEE493A360010ECF54A4
:100B8300C025E060A840B8E493A3FAE493A3F8E493
:100B930093A3C8C582C8CAC583CAF0A3C8C582C8FF
:100BA300CAC583CADFE9DEE780BE8B398A3A893B4F
:100BB3008D3CD2A6E4F541F542C3E542953C7480F1
:100BC300F8654198501DAB39AA3AA93B8542828505
:100BD300418312006FFF120F790542E54270DA0577
:100BE3004180D6E4F541F542C3E54295407480F86F
:100BF300654198501DAB3DAA3EA93F854282854180
:100C03008312006FFF120F790542E54270DA054146
:100C130080D6C2A622C0E0C0F0C083C082C0D07517
:100C2300D000C000C001C002C003C004C005C0069C
:100C3300C007AE08AF09E4FCFD7B507AC3F9F8D3D3
:100C4300120220400A0509E50970120508800E7595
:100C53000800750900750A00750B01C2AFD007D0F3
:100C630006D005D004D003D002D001D000D0D0D01C
:100C730082D083D0F0D0E032C0E0C0F0C083C08225
:100C8300C0D075D000C000C001C002C003C004C002
:100C930005C006C007757900757A00E521701B3021
:100CA300A215E4FF120F79057AE57A70020579142B
:100CB3002422F8A60780E87521015391BFD007D0FD
:100CC30006D005D004D003D002D001D000D0D0D0BC
:100CD30082D083D0F0D0E032E5A45403FFE4FDFCDE
:100CE300703EEF14600A14600F1460202403703008
:100CF300AFA27C00AD078028AFA2EF75F004A4FD7E
:100D0300ACF0E5A3C4131354032DE43CAFA2EF7579
:100D1300F010A4FDACF0E5A3C4540F2DFDE43CFC9E
:100D2300AE04AF05228E7B8F7CE47F2BFEFDFCABF4
:100D33006DAA6CA96BA86A120103E47B04FAF9F8A3
:100D430012018EE4FDFCC3ED957CEC957B501EE413
:100D5300FBFAC3EB9FEE6480F8EA64809850070BBC
:100D6300BB00010A80EC0DBD00010C80D92253C8E1
:100D7300FED2CCD2CDC2C943C8045380F9439506F1
:100D8300EF8EF01202420D9D4B000D95E100000025
:100D93000DA575CBFF75CAF7800C75CBFF75CAE639
:100DA3008004E4FEFF227E007F01228E718F728D0C
:100DB30073120F4FEF20E0F9C2807F06120F79D232
:100DC30080C2807F02120F79E571FF120F79AF7233
:100DD300E572120F79AF73120F79D280C2807F044C
:100DE300120F79D28022157D157DA87DA60608A64F
:100DF30007A87DE6FE08E6FF7C007D0A1200AEEF41
:100E03004E6003120DE9A87DE6FE08E6FF7C007D37
:100E13000A1200AEED2430FF120FBB057D057D22C3
:100E2300D2A38B618A628963E4F564F565AB61AA39
:100E330062A96385658285648312006FFF120F794F
:100E43000565E56570020564C3940FE564648094E9
:100E53008040DAC2A3220F1100A00000000000F2BC
:100E6300F2F2F2F2636FEC030EF1F1F118210000DC
:100E7300000000000000000000000000000000006F
:100E8300000000000000008E748F75E4F576120FE9
:100E93004FEF20E0F9C2807F03120F79E574FF1250
:100EA3000F79AF75E575120F79E4FF120F798F761D
:100EB300D280228B6E8A6F8970AB6EAA6FA9701273
:100EC300005660130570E5707002056F14F9120087
:100ED30056FF12000380E222120F4FEF20E0F9C207
:100EE300807F06120F79D280C2807F62120F79D27F
:100EF30080C2807F06120F79D28022E4FDFC53A1C9
:100F0300F8EF42A153A17F43A180E59130E4FB12A6
:100F13000CDB5391EF2243A120EB42A153A4DFEF5B
:100F230042A453A4FCED42A422AD07AC06E5AD20D8
:100F3300E4FB8CABEDF5AC75AD0822755207E4F517
:100F430050F551F54EF54FF54CF54D22C2807F0516
:100F5300120F79E4FF120F79D28022D2A7E4FD7F2A
:100F630002120FB2D2AFD2EA22EE3395E08F6D8E2A
:100F73006CF56BF56A225391DF8FB2E59130E5FB97
:100F8300AFB222E4FD7F01120FB25394FE22120D81
:100F93007143984043981022D2A6E52160FCC2A673
:100FA300223098FDC298AF9922733A000D0A008F40
:0B0FB300B38DB422120FA42202000331
:00000001FF
