:10000000020B67E5A45403FFE4FDFC703EEF1460AF
:100010000A14600F14602024037030AFA27C00AD7E
:10002000078028AFA2EF75F004A4FDACF0E5A3C4EF
:10003000131354032DE43CAFA2EF75F010A4FDACF4
:10004000F0E5A3C4540F2DFDE43CFCAE04AF052243
:10005000021947021958BB010689828A83E022509F
:1000600002E722BBFE02E32289828A83E49322BB59
:10007000010CE58229F582E5833AF583E0225006FA
:10008000E92582F8E622BBFE06E92582F8E222E5B0
:100090008229F582E5833AF583E49322BB01068940
:1000A000828A83F0225002F722BBFE01F322EF8DF9
:1000B000F0A4A8F0CF8CF0A428CE8DF0A42EFE22C0
:1000C000BC000BBE0029EF8DF084FFADF022E4CC24
:1000D000F875F008EF2FFFEE33FEEC33FCEE9DECED
:1000E000984005FCEE9DFE0FD5F0E9E4CEFD22ED33
:1000F000F8F5F0EE8420D21CFEADF075F008EF2F7D
:10010000FFED33FD4007985006D5F0F222C398FD6D
:100110000FD5F0EA22C2D5EC30E709B2D5E4C39D91
:10012000FDE49CFCEE30E715B2D5E4C39FFFE49EEE
:10013000FE1200C0C3E49DFDE49CFC80031200C0DD
:1001400030D507C3E49FFFE49EFE22BB0110E58289
:1001500029F582E5833AF583E0F5F0A3E022500922
:10016000E92582F886F008E622BBFE0AE92582F836
:10017000E2F5F008E222E5832AF583E993F5F0A39E
:10018000E99322F8BB0111E58229F582E5833AF56E
:1001900083E8F0E5F0A3F0225009E92582C8F608CB
:1001A000A6F022BBFE09E92582C8F2E5F008F2229A
:1001B000E88FF0A4CC8BF0A42CFCE98EF0A42CFCEE
:1001C0008AF0EDA42CFCEA8EF0A4CDA8F08BF0A46C
:1001D0002DCC3825F0FDE98FF0A42CCD35F0FCEBCB
:1001E0008EF0A4FEA9F0EB8FF0A4CFC5F02ECD3990
:1001F000FEE43CFCEAA42DCE35F0FDE43CFC227587
:10020000F008758200EF2FFFEE33FECD33CDCC33F7
:10021000CCC58233C5829BED9AEC99E58298400C5F
:10022000F582EE9BFEED9AFDEC99FC0FD5F0D6E43D
:10023000CEFBE4CDFAE4CCF9A88222B800C1B90023
:1002400059BA002DEC8BF084CFCECDFCE5F0CBF984
:100250007818EF2FFFEE33FEED33FDEC33FCEB337C
:10026000FB10D703994004EB99FB0FD8E5E4F9FAAA
:10027000227818EF2FFFEE33FEED33FDEC33FCC98F
:1002800033C910D7059BE99A4007EC9BFCE99AF922
:100290000FD8E0E4C9FAE4CCFB2275F010EF2FFF91
:1002A000EE33FEED33FDCC33CCC833C810D7079BFB
:1002B000EC9AE899400AED9BFDEC9AFCE899F80F5E
:1002C000D5F0DAE4CDFBE4CCFAE4C8F922D083D04F
:1002D00082F8E4937012740193700DA3A393F874E1
:1002E0000193F5828883E473740293B5F006740376
:1002F000936860E9A3A3A3A380D875F020800E754E
:10030000F010800575F0087D007E007F003392D5E7
:1003100030D5031206A4EC334010EF33FFEE33FE6A
:10032000ED33FDEC33FCD5F0ED22E5F0247EA2D5D3
:1003300013CC92E7CDCEFF22EDD2E7CD33EC339252
:10034000D524814006E4FFFEFDFC22FCE4CFCECDA7
:10035000CC24E0501174FF80EDC3CC13CCCD13CD71
:10036000CE13CECF13CF0470F030D5DE0206A4E951
:10037000D2E7C933E833F892D5EDD2E7CD33EC3389
:10038000FC5002B2D522EC30E7100FBF000C0EBEBD
:1003900000080DBD00040BEB6014A2D5EB13FCEDBF
:1003A00092E7FD2274FFFCFDFEFF22E480F8A2D557
:1003B00074FF13FC7D80E480EF0203A4E86480F8FE
:1003C000E933E83360110460F0ED33EC337009E891
:1003D000FCE9FDEAFEEBFF220460DED3EB9FEA9E20
:1003E000E99DE8C2E78CF0C2F795F0400CE8CCF844
:1003F000E9CDF9EACEFAEBCFFB12036F85D0F058C6
:1004000004700320D5B3E80470075002B2D502038C
:10041000AE92D5EC0460F7E4CCC0E0C398F8603B42
:1004200094186008400DD0E0FB020386E4FBFAC993
:10043000FC8028E830E406E4C9FBE4CAFCE830E3C9
:1004400005E4C9CACBFCE854076010F8C3E913F906
:10045000EA13FAEB13FBEC13FCD8F130F52FC3E4ED
:100460009CFCEF9BFFEE9AFEED99FDD0E0FBEF4E7A
:100470004D4C701222DB030203ABEC2CFCEF33FF7C
:10048000EE33FEED33FDED30E7EB020386EF2BFF9D
:10049000EE3AFEED39FDD0E0FB50130BBB0003023A
:1004A00003AEED13FDEE13FEEF13FFEC13FC02039E
:1004B00086EC4D6011E8497017ED33EC3304600DA4
:1004C000E4FCFFFEFD22E933E8330470F80203A4E4
:1004D00012036F58046009E4CC24815006285009A7
:1004E0000203AE2840030203ABC0E0EB4A7044B9FC
:1004F0008006D0E0FB02039AEF4E701CBD8008EB33
:10050000FFEAFEE9FD80EBE98DF0A4FEE5F00205CF
:100510009AE9CDF9EAFEEBFFEF89F0A4FCE5F0CE15
:1005200089F0A42EFFE435F0CD89F0A42DFEE4354A
:10053000F08067EF4E7005BD80D780C3EF8BF0A4CD
:10054000ACF0EE8BF0A42CFCE435F0F8EF8AF0A4CC
:100550002CE5F038FCE433CB8DF0A42CFCE5F03B2B
:10056000F8EE8AF0A42CFCE5F038F8E433CF89F0FB
:10057000A42CFCE5F038CF3400CE89F0A42FFFE5A1
:10058000F03EFEE433C98DF0A42EFEE5F039CD8AAD
:10059000F0A42FFFE5F03EFEE43DFD33D0E0FB503C
:1005A000070BBB000F0203AEEC2CFCEF33FFEE3366
:1005B000FEED33FD0203860203AEEC5D046005E848
:1005C000590470030203A412036F580460F6EC4848
:1005D00060F2EC7004FDFEFF22C860DB2481C8508D
:1005E00009C398600250060203AB9850CAF582E92D
:1005F000294B4A7005AB8202039A75F0007C1A7889
:1006000080C3EF9BEE9AED99400DC3EF9BFFEE9AEE
:10061000FEED99FDE842F0DC23ACF0D0E0FFD0E045
:10062000FED0E0FDAB8220E7101BEB60BAEC2CFCA7
:10063000EF33FFEE33FEED33FD020386E803F830BF
:10064000E705C0F075F000EF2FFFEE33FEED33FD50
:1006500040B830E7C280AAC0E0EFFBEEFAEDF9EC5B
:10066000F81204B1D0E0F5F0EFFBEEFAEDF9ECF89A
:100670001206B2A3A3A3A3E8C0E0E9C0E0EAC0E089
:10068000EBC0E0C0F01204B11206CEA3A3A3A312E4
:1006900003C0D0F0D0E0FBD0E0FAD0E0F9D0E0F831
:1006A000D5F0D422C3E49FFFE49EFEE49DFDE49CCC
:1006B000FC22E493FC740193FD740293FE74039393
:1006C000FF22E0F8A3E0F9A3E0FAA3E0FB22E49321
:1006D000F8740193F9740293FA740393FB22ECF01B
:1006E000A3EDF0A3EEF0A3EFF0223A70FA83BCAAD8
:1006F000E9E43E81E0F8BF9DE9E63F80000039284B
:100700003C1ABB9969663DA335E3BF255DE73FC948
:100710000FDB418DDBCCC44936EE45C9913FC5B0F6
:10072000F83D3F800000C317F534452FFA73C60A21
:10073000FDDD1207F304A2E192001420E0159006FB
:10074000EA740412065780301207F330E102B20057
:1007500020E0EBA883A9829000001206DE8982883F
:10076000839006FE74041206578582F090000012F2
:1007700006C285F0821204B1ED4C6007300004EC33
:100780006480FC221207F3C0E0A883A982900000D5
:100790001206DE8982888390072274031206578529
:1007A00082F09000001206C285F0821204B190001F
:1007B00000E0CCF0A3E0CDF0A3E0CEF0A3E0CFF0DA
:1007C0009007127403120657D0828582F0900000C1
:1007D0001206C285F082E58230E0071205BAB20047
:1007E0008096EFCBFFEECAFEEDC9FDECC8FC12050A
:1007F000BA8085ED33EC547FCC33920024605007EF
:10080000D0E0D0E00203A47B837AF97922783E120B
:1008100004B1EDF933ECF83324815011EFFBEEFA1B
:100820001203381202FAECB2E7FC1203C0ED33EC0B
:1008300033602F2403F8C313FCED92E7FDE8248115
:10084000E4501FECF8EDF9EEFAEFFB120338EF0479
:10085000C2E0FCF582120304ECB2E7FC1203C0E52F
:100860008203FAED33EC3360071413FCED92E7FDDD
:10087000EA2274FF78CBF608F6E54A65487001E491
:10088000702EE549FE7C00E4254BF54BEC3EF54A25
:1008900078BAE678BBE678BCE678BDE678BEE6785E
:1008A000BFE678C0E68547B3854A83854B82E4730B
:1008B000E478C9F608F678C9E6FE08E6FFC39402B4
:1008C000EE9400502DEF25E02443F8E6FC08E6FD09
:1008D000E54AB50513E4B5040F78C9E6FE08E6FF5E
:1008E00008A60608A607800A78CA06E61870C70692
:1008F00080C478CBE6FC08E6FDF47002ECF46038C6
:10090000E54AF548ED240EFFEFFE7C00E4254BF5AB
:100910004BEC3EF54AF54978BAE678BBE678BCE69A
:1009200078BDE678BEE678BFE678C0E68547B38551
:100930004A83854B82E47322E54C240EFFE433EFB7
:10094000F573757400120FB2E478C9F608F678C929
:10095000E6FE08E6FFC3EE94015029E42403FDE41B
:10096000354ACD2FFFED3EFE120EA478C9E6FC08F5
:10097000E62574F582E5733CF583EFF006E6187022
:10098000CD0680CAE54AFF7E00E54C25E02443F809
:10099000A60608A6078F48E54C240EFFEFFE7C0054
:1009A000E4254BF54BEC3EF54AF549E54C04540182
:1009B000F54C78BAE678BBE678BCE678BDE678BE5A
:1009C000E678BFE678C0E68547B3854A83854B82E3
:1009D000E473228E2F8F308B318A328933120ED0FE
:1009E0008E378F38E478C5F608F6AE2FAF307C002E
:1009F0007D02120115AC06AD0778C5E6FE08E6FFDC
:100A0000C39DEC6480F8EE6480984003020AADE573
:100A10003824FFFDE53734FFFC120CDA78C7A60650
:100A200008A60778C5E6FE08E6FF7C007D061200F2
:100A3000AEAC2FAD30120115AC06AD07EC1202FFC3
:100A4000120732120338AD0778C8E625E0FF18E632
:100A500033AB31AA32A9338F82F583EE8DF01201C8
:100A60008378C5E6FE08E6FF7C007D061200AEAC8A
:100A70002FAD30120115AC06AD07EC1202FF1207C4
:100A800048120338AD0778C8E625E0FF18E633AB17
:100A900034AA35A9368F82F583EE8DF01201837862
:100AA000C606E61860030209EA060209EA22AB520A
:100AB000AA53A9548F828E8312014B78B8A6F008EE
:100AC000F678B3E625E0FF18E633AB4FAA50A951FC
:100AD0008F82F58312014BFD78B1E625E0FF18E621
:100AE000338F82F583E5F08DF012018378B3E6252C
:100AF000E0FF18E633AB52AA53A9548F82F5831254
:100B0000014BFD78B1E625E0FF18E6338F82F583CF
:100B1000E5F08DF012018378B6E6FC08E6FD78B3C7
:100B2000E625E0FF18E633FEAB4FAA50A9518F82AD
:100B3000F583EC8DF012018378B8E6FD08E6AB5240
:100B4000AA53A9548F828E83CD8DF012018378B180
:100B500006E618600875830C75820DE473067583CC
:100B60000C75820DE47322787FE4F6D8FD7581CE92
:100B7000020BAE020C7CE493A3F8E493A34003F6CB
:100B80008001F208DFF48029E493A3F85407240CD1
:100B9000C8C333C4540F4420C8834004F4568001B2
:100BA00046F6DFE4800B0102040810204080900F1D
:100BB00020E47E019360BCA3FF543F30E509541F3D
:100BC000FEE493A360010ECF54C025E060A840B8B6
:100BD000E493A3FAE493A3F8E493A3C8C582C8CA34
:100BE000C583CAF0A3C8C582C8CAC583CADFE9DE07
:100BF000E780BE8E4D8F4E8B4F8A508951120ED09A
:100C000078B4A60608A607E478B0F608F678B0E649
:100C1000FE08E6FFC3954EE54D6480F8EE648098CB
:100C2000400875830B758266E47378B4E6FC08E6C9
:100C3000FD120CDA78B2EEF608EFF678B0E6FC08B2
:100C4000E6FDD3EF9DEC6480F8EE64809850087563
:100C5000830B75824EE47378B1E625E0FF18E63326
:100C6000FEAB4FAA50A9518F82F58312014B78B683
:100C7000A6F008F675830A7582AEE4737F107E00D5
:100C8000120F985394D75395D7E47878F608F66303
:100C900080207F907E01120D2F787906E618700172
:100CA00006C37879E6940618E66480948040E0787C
:100CB00078760008760863802018E6FE08E6FF755F
:100CC000520075530075548A7B007A00797A120BB2
:100CD000F37F647E00120D2F80D58C6F8D70AB0773
:100CE000AA06E478C3F608F678C1F608F6C378C217
:100CF000E69570E56F6480F5F018E6648095F05035
:100D00002678C4E625E0FF18E633FEEB5401FDEE3D
:100D1000F6EF4D08F6EAA2E713FAEB13FB78C206EA
:100D2000E61870C90680C678C3E6FE08E6FF228E84
:100D3000758F76E47F2BFEFDFCAB65AA64A963A8E2
:100D4000621201B0E47B04FAF9F812023BE4FDFC04
:100D5000C3ED9576EC9575501EE4FBFAC3EB9FEE60
:100D60006480F8EA64809850070BBB00010A80ECAD
:100D70000DBD00010C80D9228B558A568957E4FF9E
:100D8000FEC3EF955CE55B6480F8EE648098502BC1
:100D9000AB550557E557AA567002055614F91200CF
:100DA00056FDAB58055AE55AAA597002055914F96F
:100DB000ED12009C0FBF00010E80C62253C8FED268
:100DC000CCD2CDC2C943C8045380F9439506EF8EF7
:100DD000F01202CD0DE84B000DE0E10000000DF037
:100DE00075CBFF75CAF7800C75CBFF75CAE680041A
:100DF000E4FEFF227E007F01228E698F6A8D6B12D6
:100E00000F7BEF20E0F9C2807F06120FA5D280C2CF
:100E1000807F02120FA5E569FF120FA5AF6AE56A90
:100E2000120FA5AF6B120FA5D280C2807F04120FE4
:100E3000A5D2802215771577A877A60608A607A859
:100E400077E6FE08E6FF7C007D0A1200C0EF4E60E8
:100E500003120E34A877E6FE08E6FF7C007D0A1236
:100E600000C0ED2430FF1200500577057722D2A391
:100E70008B5D8A5E895FE4F560F561AB5DAA5EA972
:100E80005F85618285608312006FFF120FA5056187
:100E9000E56170020560C3940FE560648094804052
:100EA000DAC2A3228E6C8F6DE4F56E120F7BEF20F9
:100EB000E0F9C2807F03120FA5E56CFF120FA5AF0A
:100EC0006DE56D120FA5E4FF120FA58F6ED2802283
:100ED000E478CDF608F6C3EF9402EE648094804087
:100EE00012EEA2E713FEEF13FF78CE06E61870E6C7
:100EF0000680E378CDE6FE08E6FF228B668A6789E6
:100F000068AB66AA67A96812005660130568E568B1
:100F10007002056714F9120056FF12194780E22289
:100F200018080000000000000000000000000000A1
:100F30000000000000000000000000E4FDFC53A1E0
:100F4000F8EF42A153A17F43A180E59130E4FB1269
:100F500000035391EF2243A120EB42A153A4DFEF02
:100F600042A453A4FCED42A422AD07AC06E5AD209B
:100F7000E4FB8CABEDF5AC75AD0822C2807F0512A9
:100F80000FA5E4FF120FA5D28022D2A7E4FD7F02B5
:100F9000120FCFD2AFD2EA22EE3395E08F658E6486
:100FA000F563F562225391DF8FB2E59130E5FBAF37
:100FB000B222E4FD7F01120FCF5394FE22120DBC2A
:100FC000439840439810223098FDC298AF99228FE1
:080FD000B38DB422120FC722F9
:101500008E218F228B238A24892578A6A62108A6DE
:101510002278A6E6FE08E6FFC39402EE648094807B
:101520005003021779EEA2E71379ACF7EF1309F72E
:10153000E408F608F678AEF608F6C378A9E6952230
:10154000E5216480F5F018E6648095F04003021709
:101550006878AFE625E0FF18E633FEAB29AA2AA992
:101560002B8F82F58312014B789AA6F008F6AB2CEC
:10157000AA2DA92E8F828E8312014B789CA6F0088B
:10158000F678A8E6FE08E6FF08A60608A60779A9E9
:10159000E778AD26FF19E71836FEC318E69FEE641C
:1015A00080F5F018E6648095F0400302174C79ABA3
:1015B000E778AD26FF19E71836FEEF25E0FFEE339A
:1015C000AB26AA27A9288F82F58312014BFDACF028
:1015D000789CE6FE08E6FF1200AEC006C00779ABB5
:1015E000E778AD26FF19E71836FEEF25E0FFEE336A
:1015F000AB23AA24A9258F82F58312014BFBAAF005
:10160000789AE6FE08E6FFAD03AC021200AEAC0627
:10161000AD07D007D006C3ED9F78A3F6EC9E18F671
:10162000789CE6FE08E6FFAD03AC021200AEC006F1
:10163000C00779ABE778AD26FF19E71836FEEF252E
:10164000E0FFEE33AB26AA27A9288F82F58312018B
:101650004BFDACF0789AE6FE08E6FF1200AED0E053
:101660002F78A5F6D0E03E18F678ABE625E0FF1817
:10167000E633FEAB23AA24A9258F82F58312014B02
:10168000789EA6F008F6AB26AA27A9288F828E831B
:1016900012014B78A0A6F008F6799FE778A326FD03
:1016A00019E71836FC78ABE625E0FF18E633AB23E4
:1016B000AA24A9258F82F583EC8DF012018379A1EC
:1016C000E778A526FD19E71836FC78ABE625E0FF9C
:1016D00018E633AB26AA27A9288F82F583EC8DF074
:1016E000120183C3799FE778A396FD19E71896FC4A
:1016F00079ABE778AD26FF19E71836FEEF25E0FF56
:10170000EE33AB23AA24A9258F82F583EC8DF0124A
:101710000183C379A1E778A596FD19E71896FC79AE
:10172000ABE778AD26FF19E71836FEEF25E0FFEEB0
:1017300033AB26AA27A9288F82F583EC8DF01201FE
:101740008378AB06E61870010602158E78A6E6FED1
:1017500008E678A926F618EE36F678AF06E61860A1
:101760000302153A0602153A78A6E6A2E71379A60F
:0A177000F708E61309F7021511222D
:101800008B398A3A893B8D3CD2A6E4F541F542C337
:10181000E542953C7480F8654198501DAB39AA3A71
:10182000A93B85428285418312006FFF120FA505F7
:1018300042E54270DA054180D6E4F541F542C3E560
:101840004295407480F8654198501DAB3DAA3EA971
:101850003F85428285418312006FFF120FA505422A
:0B186000E54270DA054180D6C2A622E6
:10193B00E4F54CF54AF54BF549F548228F9930996A
:10194B00FDC29922D2A6E50860FCC2A622C0E0C067
:10195B00F0C083C082C0D075D000C000C001C002EF
:10196B00C003C004C005C006C007757100757200C6
:10197B00E508701B30A215E4FF120FA50572E57286
:10198B0070020571142409F8A60780E87508015345
:10199B0091BFD007D006D005D004D003D002D00120
:1019AB00D000D0D0D082D083D0F0D0E032120F7BD9
:1019BB00EF20E0F9C2807F06120FA5D280C2807F94
:1019CB0062120FA5D280C2807F06120FA5D2802291
:00000001FF
