:10000000020B008E798F7AE47F2BFEFDFCAB67AA92
:1000100066A965A8641201B0E47B04FAF9F812023B
:100020003BE4FDFCC3ED957AEC9579501EE4FBFAB8
:10003000C3EB9FEE6480F8EA64809850070BBB0026
:10004000010A80EC0DBD00010C80D9228FB38DB464
:01005000228D
:10005300021958BB010689828A83E0225002E722F3
:10006300BBFE02E32289828A83E49322BB010CE56F
:100073008229F582E5833AF583E0225006E9258259
:10008300F8E622BBFE06E92582F8E222E58229F59D
:1000930082E5833AF583E49322BB010689828A834E
:1000A300F0225002F722BBFE01F322EF8DF0A4A849
:1000B300F0CF8CF0A428CE8DF0A42EFE22BC000B32
:1000C300BE0029EF8DF084FFADF022E4CCF875F08B
:1000D30008EF2FFFEE33FEEC33FCEE9DEC9840056A
:1000E300FCEE9DFE0FD5F0E9E4CEFD22EDF8F5F030
:1000F300EE8420D21CFEADF075F008EF2FFFED3338
:10010300FD4007985006D5F0F222C398FD0FD5F0B5
:10011300EA22C2D5EC30E709B2D5E4C39DFDE49CE5
:10012300FCEE30E715B2D5E4C39FFFE49EFE120058
:10013300C0C3E49DFDE49CFC80031200C030D507DE
:10014300C3E49FFFE49EFE22BB0110E58229F582F2
:10015300E5833AF583E0F5F0A3E0225009E925822F
:10016300F886F008E622BBFE0AE92582F8E2F5F0FC
:1001730008E222E5832AF583E993F5F0A3E99322C4
:10018300F8BB0111E58229F582E5833AF583E8F0AE
:10019300E5F0A3F0225009E92582C8F608A6F0226B
:1001A300BBFE09E92582C8F2E5F008F222E88FF0E8
:1001B300A4CC8BF0A42CFCE98EF0A42CFC8AF0EDEB
:1001C300A42CFCEA8EF0A4CDA8F08BF0A42DCC389F
:1001D30025F0FDE98FF0A42CCD35F0FCEB8EF0A4D7
:1001E300FEA9F0EB8FF0A4CFC5F02ECD39FEE43C91
:1001F300FCEAA42DCE35F0FDE43CFC2275F0087535
:100203008200EF2FFFEE33FECD33CDCC33CCC5824E
:1002130033C5829BED9AEC99E58298400CF582EE0A
:100223009BFEED9AFDEC99FC0FD5F0D6E4CEFBE4F2
:10023300CDFAE4CCF9A88222B800C1B90059BA00BA
:100243002DEC8BF084CFCECDFCE5F0CBF97818EF15
:100253002FFFEE33FEED33FDEC33FCEB33FB10D716
:1002630003994004EB99FB0FD8E5E4F9FA227818D7
:10027300EF2FFFEE33FEED33FDEC33FCC933C91032
:10028300D7059BE99A4007EC9BFCE99AF90FD8E064
:10029300E4C9FAE4CCFB2275F010EF2FFFEE33FE36
:1002A300ED33FDCC33CCC833C810D7079BEC9AE8A9
:1002B30099400AED9BFDEC9AFCE899F80FD5F0DA2A
:1002C300E4CDFBE4CCFAE4C8F922D083D082F8E48D
:1002D300937012740193700DA3A393F8740193F5B3
:1002E300828883E473740293B5F0067403936860A1
:1002F300E9A3A3A3A380D875F020800E75F0108026
:100303000575F0087D007E007F003392D530D5035C
:100313001206A4EC334010EF33FFEE33FEED33FD52
:10032300EC33FCD5F0ED22E5F0247EA2D513CC927C
:10033300E7CDCEFF22EDD2E7CD33EC3392D5248146
:100343004006E4FFFEFDFC22FCE4CFCECDCC24E04E
:10035300501174FF80EDC3CC13CCCD13CDCE13CE8F
:10036300CF13CF0470F030D5DE0206A4E9D2E7C97B
:1003730033E833F892D5EDD2E7CD33EC33FC5002BA
:10038300B2D522EC30E7100FBF000C0EBE00080DF3
:10039300BD00040BEB6014A2D5EB13FCED92E7FD5B
:1003A3002274FFFCFDFEFF22E480F8A2D574FF1344
:1003B300FC7D80E480EF0203A4E86480F8E933E87D
:1003C3003360110460F0ED33EC337009E8FCE9FDB0
:1003D300EAFEEBFF220460DED3EB9FEA9EE99DE891
:1003E300C2E78CF0C2F795F0400CE8CCF8E9CDF900
:1003F300EACEFAEBCFFB12036F85D0F058047003FB
:1004030020D5B3E80470075002B2D50203AE92D5EB
:10041300EC0460F7E4CCC0E0C398F8603B94186048
:1004230008400DD0E0FB020386E4FBFAC9FC8028F8
:10043300E830E406E4C9FBE4CAFCE830E305E4C9B8
:10044300CACBFCE854076010F8C3E913F9EA13FABE
:10045300EB13FBEC13FCD8F130F52FC3E49CFCEF5A
:100463009BFFEE9AFEED99FDD0E0FBEF4E4D4C70F5
:100473001222DB030203ABEC2CFCEF33FFEE33FE63
:10048300ED33FDED30E7EB020386EF2BFFEE3AFE93
:10049300ED39FDD0E0FB50130BBB00030203AEEDBF
:1004A30013FDEE13FEEF13FFEC13FC020386EC4D7A
:1004B3006011E8497017ED33EC3304600DE4FCFF81
:1004C300FEFD22E933E8330470F80203A412036F3C
:1004D30058046009E4CC248150062850090203AE75
:1004E3002840030203ABC0E0EB4A7044B98006D056
:1004F300E0FB02039AEF4E701CBD8008EBFFEAFE9F
:10050300E9FD80EBE98DF0A4FEE5F002059AE9CD63
:10051300F9EAFEEBFFEF89F0A4FCE5F0CE89F0A445
:100523002EFFE435F0CD89F0A42DFEE435F080678D
:10053300EF4E7005BD80D780C3EF8BF0A4ACF0EE17
:100543008BF0A42CFCE435F0F8EF8AF0A42CE5F052
:1005530038FCE433CB8DF0A42CFCE5F03BF8EE8AB9
:10056300F0A42CFCE5F038F8E433CF89F0A42CFC9C
:10057300E5F038CF3400CE89F0A42FFFE5F03EFE3E
:10058300E433C98DF0A42EFEE5F039CD8AF0A42F13
:10059300FFE5F03EFEE43DFD33D0E0FB50070BBB2F
:1005A300000F0203AEEC2CFCEF33FFEE33FEED3312
:1005B300FD0203860203AEEC5D046005E859047096
:1005C300030203A412036F580460F6EC4860F2ECD4
:1005D3007004FDFEFF22C860DB2481C85009C39864
:1005E300600250060203AB9850CAF582E9294B4AD0
:1005F3007005AB8202039A75F0007C1A7880C3EF12
:100603009BEE9AED99400DC3EF9BFFEE9AFEED9999
:10061300FDE842F0DC23ACF0D0E0FFD0E0FED0E018
:10062300FDAB8220E7101BEB60BAEC2CFCEF33FF31
:10063300EE33FEED33FD020386E803F830E705C031
:10064300F075F000EF2FFFEE33FEED33FD40B830D1
:10065300E7C280AAC0E0EFFBEEFAEDF9ECF8120472
:10066300B1D0E0F5F0EFFBEEFAEDF9ECF81206B2DB
:10067300A3A3A3A3E8C0E0E9C0E0EAC0E0EBC0E0C5
:10068300C0F01204B11206CEA3A3A3A31203C0D0D9
:10069300F0D0E0FBD0E0FAD0E0F9D0E0F8D5F0D428
:1006A30022C3E49FFFE49EFEE49DFDE49CFC22E460
:1006B30093FC740193FD740293FE740393FF22E091
:1006C300F8A3E0F9A3E0FAA3E0FB22E493F87401B2
:1006D30093F9740293FA740393FB22ECF0A3EDF005
:1006E300A3EEF0A3EFF0223A70FA83BCAAE9E43E4A
:1006F30081E0F8BF9DE9E63F80000039283C1ABB42
:100703009969663DA335E3BF255DE73FC90FDB412B
:100713008DDBCCC44936EE45C9913FC5B0F83D3FAA
:10072300800000C317F534452FFA73C60AFDDD12A6
:1007330007F304A2E192001420E0159006EA740482
:1007430012065780301207F330E102B20020E0EBCB
:10075300A883A982900CFA1206DE89828883900608
:10076300FE74041206578582F0900CFA1206C285B5
:10077300F0821204B1ED4C6007300004EC6480FC9D
:10078300221207F3C0E0A883A982900CFA1206DEB6
:100793008982888390072274031206578582F0901A
:1007A3000CFA1206C285F0821204B1900CFAE0CC66
:1007B300F0A3E0CDF0A3E0CEF0A3E0CFF0900712DA
:1007C3007403120657D0828582F0900CFA1206C287
:1007D30085F082E58230E0071205BAB2008096EF19
:1007E300CBFFEECAFEEDC9FDECC8FC1205BA80854D
:1007F300ED33EC547FCC33920024605007D0E0D02B
:10080300E00203A47B837AF97922783E1204B1EDE6
:10081300F933ECF83324815011EFFBEEFA1203386D
:100823001202FAECB2E7FC1203C0ED33EC33602F93
:100833002403F8C313FCED92E7FDE82481E4501F81
:10084300ECF8EDF9EEFAEFFB120338EF04C2E0FC2B
:10085300F582120304ECB2E7FC1203C0E58203FA4B
:10086300ED33EC3360071413FCED92E7FDEA2274D9
:10087300FF78DFF608F6E53865367001E47035E594
:1008830037FE7C00E42539F539EC3EF53878CEE6C1
:10089300F978CFE6FA78D0E6FB78D1E6FC78D2E6B1
:1008A300FD78D3E6FE78D4E6FF8535B385388385B6
:1008B3003982E473E478DDF608F678DDE6FE08E6CF
:1008C300FFC39403EE9400502DEF25E0242FF8E6A8
:1008D300FC08E6FDE538B50513E4B5040F78DDE65D
:1008E300FE08E6FF08A60608A607800A78DE06E6E5
:1008F3001870010680C478DFE6FC08E6FDF4700298
:10090300ECF47003020949E538F536ED240DFFEFE9
:10091300FE7C00E42539F539EC3EF538F53778CE21
:10092300E6F978CFE6FA78D0E6FB78D1E6FC78D220
:10093300E6FD78D3E6FE78D4E6FF8535B3853883C4
:10094300853982E47322E53A240DFFE433EFF5772A
:10095300757800120CDCE478DDF608F678DDE6FE47
:1009630008E6FFC3EE94015029E42403FDE435387F
:10097300CD2FFFED3EFE120C0A78DDE6FC08E625DE
:1009830078F582E5773CF583EFF006E6187001060B
:1009930080CAE538FF7E00E53A25E0242FF8A60655
:1009A30008A6078F36E53AFD7C00240DFFEFFE7A9B
:1009B30000E42539F539EA3EF538F537ED2401FF32
:1009C300EC33FE7D031200C08D3A78CEE6F978CF82
:1009D300E6FA78D0E6FB78D1E6FC78D2E6FD78D368
:1009E300E6FE78D4E6FF8535B3853883853982E41E
:1009F30073227F107E00120CC25394D75395D7E411
:100A0300F573F574FF7E4B120D3DAE73AF74120B8D
:100A1300D07BFF7A0C79EF120C61E4787CF608F650
:100A23006380207F907E01120003787D06E61870B4
:100A33000106C3787DE6940618E66480948040E05E
:100A4300787C76000876087540007541007542A6EB
:100A530078D0760078CF760078CE769E78D47608F4
:100A630078D3760085B33575381775390012087257
:100A7300787CE6FE08E6FF78D3EEF678D4EFF675D9
:100A8300260075270075288E752900752A00752B99
:100A93009E752C00752D00752EA678D0760078CF24
:100AA300760078CE767E85B33575381175390012A8
:100AB3000872787CE6FE08E6FF78D3EEF678D4EF8A
:100AC300F675540075550075568E78D0760078CF3C
:100AD300760078CE767E85B3357538157539001274
:100AE30008720574E57470020573AE73AF74120B6C
:100AF300D07BFF7A0C79EF120C61020A43787FE412
:100B0300F6D8FD7581E2020B470209F5E493A3F8D9
:100B1300E493A34003F68001F208DFF48029E49311
:100B2300A3F85407240CC8C333C4540F4420C88308
:100B33004004F456800146F6DFE4800B010204080A
:100B430010204080900C86E47E019360BCA3FF5488
:100B53003F30E509541FFEE493A360010ECF54C058
:100B630025E060A840B8E493A3FAE493A3F8E493E0
:100B7300A3C8C582C8CAC583CAF0A3C8C582C8CAE8
:100B8300C583CADFE9DEE780BE8B578A588959E4FB
:100B9300FFFEC3EF955EE55D6480F8EE64809850D8
:100BA3002BAB570559E559AA587002055814F91289
:100BB3000056FDAB5A055CE55CAA5B7002055B144D
:100BC300F9ED12009C0FBF00010E80C622157B15A4
:100BD3007BA87BA60608A607A87BE6FE08E6FF7CA3
:100BE300007D0A1200C0EF4E6003120BD0A87BE613
:100BF300FE08E6FF7C007D0A1200C0ED2430FF12E0
:100C03000CF2057B057B228E6E8F6FE4F570120C60
:100C1300B3EF20E0F9C2807F03120CCFE56EFF1221
:100C23000CCFAF6FE56F120CCFE4FF120CCF8F70B8
:100C3300D28022E478E1F608F6C3EF9402EE6480F2
:100C430094804012EEA2E713FEEF13FF78E206E66C
:100C53001870E60680E378E1E6FE08E6FF228B687B
:100C63008A69896AAB68AA69A96A12005660130582
:100C73006AE56A7002056914F9120056FF120CE75F
:100C830080E22218080000000000000000000000BD
:100C93000000000000000000000000000000AD079D
:100CA300AC06E5AD20E4FB8CABEDF5AC75AD0822ED
:100CB300C2807F05120CCFE4FF120CCFD28022EE4C
:100CC3003395E08F678E66F565F564225391DF8F68
:100CD300B2E59130E5FBAFB222E4FD7F0112004C97
:100CE3005394FE228F993099FDC299220D0A000276
:020CF3000CE70C
:100D000053C8FED2CCD2CDC2C943C8045380F943E4
:100D10009506EF8EF01202CD0D2C4B000D24E10054
:100D200000000D3475CBFF75CAF7800C75CBFF75CD
:100D3000CAE68004E4FEFF227E007F0122120D003D
:070D40004398404398102284
:100E000078B0E6FE08E6FF1200AEC006C00779BF64
:100E1000E778C126FF19E71836FEEF25E0FFEE332D
:100E2000AB23AA24A9258F82F58312014BFBAAF0DC
:100E300078AEE6FE08E6FFAD03AC021200AEAC06EB
:100E4000AD07D007D006C3ED9F78B7F6EC9E18F635
:100E500078B0E6FE08E6FFAD03AC021200AEC006B5
:100E6000C00779BFE778C126FF19E71836FEEF25DE
:100E7000E0FFEE33AB26AA27A9288F82F583120163
:100E80004BFDACF078AEE6FE08E6FF1200AED0E017
:100E90002F78B9F6D0E03E18F678BFE625E0FF18C7
:100EA000E633FEAB23AA24A9258F82F58312014BDA
:100EB00078B2A6F008F6AB26AA27A9288F828E83DF
:100EC00012014B78B4A6F008F679B3E778B726FD9F
:100ED00019E71836FC78BFE625E0FF18E633AB23A8
:100EE000AA24A9258F82F583EC8DF0120183753831
:070EF0000F753900020872C2
:100F000079B5E778B926FD19E71836FC78BFE625EC
:100F1000E0FF18E633AB26AA27A9288F82F583ECD9
:100F20008DF0120183C379B3E778B796FD19E718FE
:100F300096FC79BFE778C126FF19E71836FEEF2542
:100F4000E0FFEE33AB23AA24A9258F82F583EC8D35
:100F5000F0120183C379B5E778B996FD19E71896C1
:100F6000FC79BFE778C126FF19E71836FEEF25E0C8
:100F7000FFEE33AB26AA27A9288F82F583EC8DF0EC
:100F800012018378BF06E6187001067538117539AD
:100F90009A02087278BAE6FE08E678BD26F618EEE0
:100FA00036F678C306E618600975381175394002BF
:100FB00008720675381175394002087278BAE6A2CF
:100FC000E71379BAF708E61309F77538117539117F
:040FD000020872227F
:101100008E218F228B238A24892578BAA62108A6CE
:101110002278BAE6FE08E6FFC39402EE648094806B
:10112000500975380F7539D3020872EEA2E71379AA
:10113000C0F7EF1309F7E408F608F678C2F608F6E8
:10114000C378BDE69522E5216480F5F018E6648059
:1011500095F0400975380F7539BC02087278C3E6FE
:1011600025E0FF18E633FEAB29AA2AA92B8F82F5CA
:101170008312014B78AEA6F008F6AB2CAA2DA92E4F
:101180008F828E8312014B78B0A6F008F678BCE609
:10119000FE08E6FF08A60608A60779BDE778C1267F
:1011A000FF19E71836FEC318E69FEE6480F5F018C5
:1011B000E6648095F0400975380F7539940208721D
:1011C00079BFE778C126FF19E71836FEEF25E0FF63
:1011D000EE33AB26AA27A9288F82F58312014B781C
:0F11E000D2F678D1A6F075380E75390002087274
:101300008C718D72AB07AA06E478D7F608F678D50B
:10131000F608F6C378D6E69572E5716480F5F018A4
:10132000E6648095F0502678D8E625E0FF18E6338D
:10133000FEEB5401FDEEF6EF4D08F6EAA2E713FAD4
:10134000EB13FB78D606E61870C90680C678D7E698
:05135000FE08E6FF228B
:1013580043A120EB42A153A4DFEF42A453A4FCED28
:0313680042A4227A
:10140000AB54AA55A9568F828E8312014B78CCA675
:10141000F008F678C7E625E0FF18E633AB51AA528C
:10142000A9538F82F58312014BFD78C5E625E0FFB5
:1014300018E6338F82F583E5F08DF012018378C7CB
:10144000E625E0FF18E633AB54AA55A9568F82F57E
:101450008312014BFD78C5E625E0FF18E6338F8245
:10146000F583E5F08DF012018378CAE6FC08E6FD0D
:1014700078C7E625E0FF18E633FEAB51AA52A95320
:101480008F82F583EC8DF012018378CCE6FD08E6BF
:10149000AB54AA55A9568F828E83CD8DF01201834D
:1014A00078C506E618600975381575391A0208728C
:0B14B0000675381575391A0208722203
:101500008E4F8F508B518A528953120C3678C8A651
:101510000608A607E478C4F608F678C4E6FE08E6EE
:10152000FFC39550E54F6480F8EE648098400975DC
:1015300038147539BA02087278C8E6FC08E6FD78F6
:10154000D1F678D2F675381375390012087278C65C
:10155000EEF608EFF678C4E6FC08E6FDD3EF9DEC66
:101560006480F8EE64809850097538147539A002CB
:10157000087278C5E625E0FF18E633FEAB51AA52A3
:10158000A9538F82F58312014B78CAA6F008F6752D
:081590003814753900020872DD
:10162600E5A45403FFE4FDFC703EEF14600A146069
:101636000F14602024037030AFA27C00AD07802811
:10164600AFA2EF75F004A4FDACF0E5A3C4131354E8
:10165600032DE43CAFA2EF75F010A4FDACF0E5A3BA
:0D166600C4540F2DFDE43CFCAE04AF052282
:101700008E3B8F3C8B3D8A3E893F120C368E438F39
:1017100044E478D9F608F6AE3BAF3C7C007D02127B
:101720000115AC06AD0778D9E6FE08E6FFC39DECCF
:101730006480F8EE64809840097538177539F802AE
:101740000872E54424FFFDE54334FFFC78D1F678C8
:10175000D2F675381375390012087278DBA60608C0
:10176000A60778D9E6FE08E6FF7C007D061200AEEB
:10177000AC3BAD3C120115AC06AD07EC1202FF12FA
:101780000732120338AD0778DCE625E0FF18E633B0
:10179000AB3DAA3EA93F8F82F583EE8DF012018307
:1017A00078D9E6FE08E6FF7C007D061200AEAC3B71
:1017B000AD3C120115AC06AD07EC1202FF12074852
:1017C000120338AD0778DCE625E0FF18E633AB40BE
:1017D000AA41A9428F82F583EE8DF012018378DA57
:1017E00006E618600975381775391702087206750C
:0917F0003817753917020872223E
:101800008B458A4689478D48D2A6E4F54DF54EC3EF
:10181000E54E95487480F8654D98501DAB45AA4635
:10182000A947854E82854D8312006FFF120CCF05AC
:101830004EE54E70DA054D80D6E4F54DF54EC3E524
:101840004E954C7480F8654D98501DAB49AA4AA935
:101850004B854E82854D8312006FFF120CCF054ED3
:10186000E54E70DA054D80D6C2A6228E6B8F6C8D48
:101870006D120CB3EF20E0F9C2807F06120CCFD2BC
:1018800080C2807F02120CCFE56BFF120CCFAF6CD1
:10189000E56C120CCFAF6D120CCFD280C2807F04EA
:0618A000120CCFD28022E1
:1018E300D2A38B5F8A608961E4F562F563AB5FAA7B
:1018F30060A96185638285628312006FFF120CCF3A
:101903000563E56370020562C3940FE56264809426
:101913008040DAC2A3223098FDC298AF9922D2A7A1
:10192300E4FD7F0212004CD2AFD2EA22121919222F
:0C193B00E4F53AF538F539F537F53622B9
:10194F00D2A6E50860FCC2A622C0E0C0F0C083C0EA
:10195F0082C0D075D000C000C001C002C003C00457
:10196F00C005C006C007757500757600E508701BC9
:10197F0030A215E4FF120CCF0576E57670020575DF
:10198F00142409F8A60780E87508015391BFD00702
:10199F00D006D005D004D003D002D001D000D0D0D3
:1019AF00D082D083D0F0D0E032120CB3EF20E0F928
:1019BF00C2807F06120CCFD280C2807F62120CCF02
:1019CF00D280C2807F06120CCFD28022E4FDFC535E
:1019DF00A1F8EF42A153A17F43A180E59130E4FB31
:0719EF001216265391EF22AE
:00000001FF
