:10000000020ADD8E778F78E47F2BFEFDFCAB67AABA
:1000100066A965A8641201B0E47B04FAF9F812023B
:100020003BE4FDFCC3ED9578EC9577501EE4FBFABC
:10003000C3EB9FEE6480F8EA64809850070BBB0026
:10004000010A80EC0DBD00010C80D9228FB38DB464
:01005000228D
:10005300021958BB010689828A83E0225002E722F3
:10006300BBFE02E32289828A83E49322BB010CE56F
:100073008229F582E5833AF583E0225006E9258259
:10008300F8E622BBFE06E92582F8E222E58229F59D
:1000930082E5833AF583E49322BB010689828A834E
:1000A300F0225002F722BBFE01F322EF8DF0A4A849
:1000B300F0CF8CF0A428CE8DF0A42EFE22BC000B32
:1000C300BE0029EF8DF084FFADF022E4CCF875F08B
:1000D30008EF2FFFEE33FEEC33FCEE9DEC9840056A
:1000E300FCEE9DFE0FD5F0E9E4CEFD22EDF8F5F030
:1000F300EE8420D21CFEADF075F008EF2FFFED3338
:10010300FD4007985006D5F0F222C398FD0FD5F0B5
:10011300EA22C2D5EC30E709B2D5E4C39DFDE49CE5
:10012300FCEE30E715B2D5E4C39FFFE49EFE120058
:10013300C0C3E49DFDE49CFC80031200C030D507DE
:10014300C3E49FFFE49EFE22BB0110E58229F582F2
:10015300E5833AF583E0F5F0A3E0225009E925822F
:10016300F886F008E622BBFE0AE92582F8E2F5F0FC
:1001730008E222E5832AF583E993F5F0A3E99322C4
:10018300F8BB0111E58229F582E5833AF583E8F0AE
:10019300E5F0A3F0225009E92582C8F608A6F0226B
:1001A300BBFE09E92582C8F2E5F008F222E88FF0E8
:1001B300A4CC8BF0A42CFCE98EF0A42CFC8AF0EDEB
:1001C300A42CFCEA8EF0A4CDA8F08BF0A42DCC389F
:1001D30025F0FDE98FF0A42CCD35F0FCEB8EF0A4D7
:1001E300FEA9F0EB8FF0A4CFC5F02ECD39FEE43C91
:1001F300FCEAA42DCE35F0FDE43CFC2275F0087535
:100203008200EF2FFFEE33FECD33CDCC33CCC5824E
:1002130033C5829BED9AEC99E58298400CF582EE0A
:100223009BFEED9AFDEC99FC0FD5F0D6E4CEFBE4F2
:10023300CDFAE4CCF9A88222B800C1B90059BA00BA
:100243002DEC8BF084CFCECDFCE5F0CBF97818EF15
:100253002FFFEE33FEED33FDEC33FCEB33FB10D716
:1002630003994004EB99FB0FD8E5E4F9FA227818D7
:10027300EF2FFFEE33FEED33FDEC33FCC933C91032
:10028300D7059BE99A4007EC9BFCE99AF90FD8E064
:10029300E4C9FAE4CCFB2275F010EF2FFFEE33FE36
:1002A300ED33FDCC33CCC833C810D7079BEC9AE8A9
:1002B30099400AED9BFDEC9AFCE899F80FD5F0DA2A
:1002C300E4CDFBE4CCFAE4C8F922D083D082F8E48D
:1002D300937012740193700DA3A393F8740193F5B3
:1002E300828883E473740293B5F0067403936860A1
:1002F300E9A3A3A3A380D875F020800E75F0108026
:100303000575F0087D007E007F003392D530D5035C
:100313001206A4EC334010EF33FFEE33FEED33FD52
:10032300EC33FCD5F0ED22E5F0247EA2D513CC927C
:10033300E7CDCEFF22EDD2E7CD33EC3392D5248146
:100343004006E4FFFEFDFC22FCE4CFCECDCC24E04E
:10035300501174FF80EDC3CC13CCCD13CDCE13CE8F
:10036300CF13CF0470F030D5DE0206A4E9D2E7C97B
:1003730033E833F892D5EDD2E7CD33EC33FC5002BA
:10038300B2D522EC30E7100FBF000C0EBE00080DF3
:10039300BD00040BEB6014A2D5EB13FCED92E7FD5B
:1003A3002274FFFCFDFEFF22E480F8A2D574FF1344
:1003B300FC7D80E480EF0203A4E86480F8E933E87D
:1003C3003360110460F0ED33EC337009E8FCE9FDB0
:1003D300EAFEEBFF220460DED3EB9FEA9EE99DE891
:1003E300C2E78CF0C2F795F0400CE8CCF8E9CDF900
:1003F300EACEFAEBCFFB12036F85D0F058047003FB
:1004030020D5B3E80470075002B2D50203AE92D5EB
:10041300EC0460F7E4CCC0E0C398F8603B94186048
:1004230008400DD0E0FB020386E4FBFAC9FC8028F8
:10043300E830E406E4C9FBE4CAFCE830E305E4C9B8
:10044300CACBFCE854076010F8C3E913F9EA13FABE
:10045300EB13FBEC13FCD8F130F52FC3E49CFCEF5A
:100463009BFFEE9AFEED99FDD0E0FBEF4E4D4C70F5
:100473001222DB030203ABEC2CFCEF33FFEE33FE63
:10048300ED33FDED30E7EB020386EF2BFFEE3AFE93
:10049300ED39FDD0E0FB50130BBB00030203AEEDBF
:1004A30013FDEE13FEEF13FFEC13FC020386EC4D7A
:1004B3006011E8497017ED33EC3304600DE4FCFF81
:1004C300FEFD22E933E8330470F80203A412036F3C
:1004D30058046009E4CC248150062850090203AE75
:1004E3002840030203ABC0E0EB4A7044B98006D056
:1004F300E0FB02039AEF4E701CBD8008EBFFEAFE9F
:10050300E9FD80EBE98DF0A4FEE5F002059AE9CD63
:10051300F9EAFEEBFFEF89F0A4FCE5F0CE89F0A445
:100523002EFFE435F0CD89F0A42DFEE435F080678D
:10053300EF4E7005BD80D780C3EF8BF0A4ACF0EE17
:100543008BF0A42CFCE435F0F8EF8AF0A42CE5F052
:1005530038FCE433CB8DF0A42CFCE5F03BF8EE8AB9
:10056300F0A42CFCE5F038F8E433CF89F0A42CFC9C
:10057300E5F038CF3400CE89F0A42FFFE5F03EFE3E
:10058300E433C98DF0A42EFEE5F039CD8AF0A42F13
:10059300FFE5F03EFEE43DFD33D0E0FB50070BBB2F
:1005A300000F0203AEEC2CFCEF33FFEE33FEED3312
:1005B300FD0203860203AEEC5D046005E859047096
:1005C300030203A412036F580460F6EC4860F2ECD4
:1005D3007004FDFEFF22C860DB2481C85009C39864
:1005E300600250060203AB9850CAF582E9294B4AD0
:1005F3007005AB8202039A75F0007C1A7880C3EF12
:100603009BEE9AED99400DC3EF9BFFEE9AFEED9999
:10061300FDE842F0DC23ACF0D0E0FFD0E0FED0E018
:10062300FDAB8220E7101BEB60BAEC2CFCEF33FF31
:10063300EE33FEED33FD020386E803F830E705C031
:10064300F075F000EF2FFFEE33FEED33FD40B830D1
:10065300E7C280AAC0E0EFFBEEFAEDF9ECF8120472
:10066300B1D0E0F5F0EFFBEEFAEDF9ECF81206B2DB
:10067300A3A3A3A3E8C0E0E9C0E0EAC0E0EBC0E0C5
:10068300C0F01204B11206CEA3A3A3A31203C0D0D9
:10069300F0D0E0FBD0E0FAD0E0F9D0E0F8D5F0D428
:1006A30022C3E49FFFE49EFEE49DFDE49CFC22E460
:1006B30093FC740193FD740293FE740393FF22E091
:1006C300F8A3E0F9A3E0FAA3E0FB22E493F87401B2
:1006D30093F9740293FA740393FB22ECF0A3EDF005
:1006E300A3EEF0A3EFF0223A70FA83BCAAE9E43E4A
:1006F30081E0F8BF9DE9E63F80000039283C1ABB42
:100703009969663DA335E3BF255DE73FC90FDB412B
:100713008DDBCCC44936EE45C9913FC5B0F83D3FAA
:10072300800000C317F534452FFA73C60AFDDD12A6
:1007330007F304A2E192001420E0159006EA740482
:1007430012065780301207F330E102B20020E0EBCB
:10075300A883A982900CDE1206DE89828883900624
:10076300FE74041206578582F0900CDE1206C285D1
:10077300F0821204B1ED4C6007300004EC6480FC9D
:10078300221207F3C0E0A883A982900CDE1206DED2
:100793008982888390072274031206578582F0901A
:1007A3000CDE1206C285F0821204B1900CDEE0CC9E
:1007B300F0A3E0CDF0A3E0CEF0A3E0CFF0900712DA
:1007C3007403120657D0828582F0900CDE1206C2A3
:1007D30085F082E58230E0071205BAB2008096EF19
:1007E300CBFFEECAFEEDC9FDECC8FC1205BA80854D
:1007F300ED33EC547FCC33920024605007D0E0D02B
:10080300E00203A47B837AF97922783E1204B1EDE6
:10081300F933ECF83324815011EFFBEEFA1203386D
:100823001202FAECB2E7FC1203C0ED33EC33602F93
:100833002403F8C313FCED92E7FDE82481E4501F81
:10084300ECF8EDF9EEFAEFFB120338EF04C2E0FC2B
:10085300F582120304ECB2E7FC1203C0E58203FA4B
:10086300ED33EC3360071413FCED92E7FDEA2274D9
:10087300FF78DDF608F6E53865367001E47035E596
:1008830037FE7C00E42539F539EC3EF53878CCE6C3
:10089300F978CDE6FA78CEE6FB78CFE6FC78D0E6B9
:1008A300FD78D1E6FE78D2E6FF8535B385388385BA
:1008B3003982E473E478DBF608F678DBE6FE08E6D3
:1008C300FFC39403EE9400502DEF25E0242FF8E6A8
:1008D300FC08E6FDE538B50513E4B5040F78DBE65F
:1008E300FE08E6FF08A60608A607800A78DC06E6E7
:1008F3001870010680C478DDE6FC08E6FDF470029A
:10090300ECF47003020949E538F536ED240DFFEFE9
:10091300FE7C00E42539F539EC3EF538F53778CC23
:10092300E6F978CDE6FA78CEE6FB78CFE6FC78D028
:10093300E6FD78D1E6FE78D2E6FF8535B3853883C8
:10094300853982E47322E53A240DFFE433EFF5752C
:10095300757600120CF5E478DBF608F678DBE6FE34
:1009630008E6FFC3EE94015029E42403FDE435387F
:10097300CD2FFFED3EFE120BE778DBE6FC08E62504
:1009830076F582E5753CF583EFF006E6187001060F
:1009930080CAE538FF7E00E53A25E0242FF8A60655
:1009A30008A6078F36E53AFD7C00240DFFEFFE7A9B
:1009B30000E42539F539EA3EF538F537ED2401FF32
:1009C300EC33FE7D031200C08D3A78CCE6F978CD86
:1009D300E6FA78CEE6FB78CFE6FC78D0E6FD78D170
:1009E300E6FE78D2E6FF8535B3853883853982E420
:1009F30073227F107E00120CDB5394D75395D7E4F8
:100A0300787AF608F66380207F907E0112000378DF
:100A13007B06E618700106C3787BE6940618E66445
:100A230080948040E0787A76000876086380201806
:100A3300E6FE08E6FF78D1EEF678D2EFF6754000D1
:100A43007541007542A478CE760078CD760078CCD7
:100A5300769C85B335753817753900120872787A24
:100A6300E6FE08E6FF78D1EEF678D2EFF6752600BB
:100A730075270075288C752900752A00752B9C75C0
:100A83002C00752D00752EA478CE760078CD7600D7
:100A930078CC767C85B33575380D753900120872BC
:100AA300787AE6FE08E6FF78D1EEF678D2EFF675AF
:100AB300540075550075568C78CE760078CD760047
:100AC30078CC767C85B33575381575390012087284
:100AD3007F647E00120003020A28787FE4F6D8FDC3
:100AE3007581E0020B240209F5E493A3F8E493A3D0
:100AF3004003F68001F208DFF48029E493A3F8545D
:100B030007240CC8C333C4540F4420C8834004F4DF
:100B130056800146F6DFE4800B01020408102040F2
:100B230080900C63E47E019360BCA3FF543F30E5E7
:100B330009541FFEE493A360010ECF54C025E06067
:100B4300A840B8E493A3FAE493A3F8E493A3C8C535
:100B530082C8CAC583CAF0A3C8C582C8CAC583CA26
:100B6300DFE9DEE780BE8B578A588959E4FFFEC36D
:100B7300EF955EE55D6480F8EE648098502BAB578B
:100B83000559E559AA587002055814F9120056FD83
:100B9300AB5A055CE55CAA5B7002055B14F9ED12C8
:100BA300009C0FBF00010E80C62215791579A87924
:100BB300A60608A607A879E6FE08E6FF7C007D0ADC
:100BC3001200C0EF4E6003120BADA879E6FE08E6F3
:100BD300FF7C007D0A1200C0ED2430FF120EFB05DE
:100BE300790579228E6E8F6FE4F570120CBEEF20BB
:100BF300E0F9C2807F03120CE8E56EFF120CE8AF48
:100C03006FE56F120CE8E4FF120CE88F70D28022BC
:100C1300E478DFF608F6C3EF9402EE648094804034
:100C230012EEA2E713FEEF13FF78E006E61870E674
:100C33000680E378DFE6FE08E6FF228B688A69898F
:100C43006AAB68AA69A96A1200566013056AE56A65
:100C53007002056914F9120056FF12194780E22247
:100C63001808000000000000000000000000000061
:100C73000000000000000000000000E4FDFC53A1A0
:100C8300F8EF42A153A17F43A180E59130E4FB1229
:100C930016265391EF2243A120EB42A153A4DFEF89
:100CA30042A453A4FCED42A422AD07AC06E5AD205B
:100CB300E4FB8CABEDF5AC75AD0822C2807F051269
:100CC3000CE8E4FF120CE8D28022D2A7E4FD7F02F5
:100CD30012004CD2AFD2EA22EE3395E08F678E66D4
:100CE300F565F564225391DF8FB2E59130E5FBAFF3
:100CF300B222E4FD7F0112004C5394FE228E218F19
:100D0300228B238A24892578B8A62108A62278B8BD
:100D1300E6FE08E6FFC39402EE64809480500975F2
:100D2300380F7539D6020872EEA2E71379BEF7EFD2
:100D33001309F7E408F608F678C0F608F6C378BB9B
:100D4300E69522E5216480F5F018E6648095F0408D
:100D53000985B33575380F7539BC02087278C1E659
:100D630025E0FF18E633FEAB29AA2AA92B8F82F5CB
:100D73008312014B78ACA6F008F6AB2CAA2DA92E52
:100D83008F828E8312014B78AEA6F008F678BAE60E
:100D9300FE08E6FF08A60608A60779BBE778BF2684
:100DA300FF19E71836FEC318E69FEE6480F5F018C6
:100DB300E6648095F0400985B33575380F7539942D
:100DC30002087279BDE778BF26FF19E71836FEEFF0
:100DD30025E0FFEE33AB26AA27A9288F82F58312DD
:100DE300014B78D0F678CFA6F075380E753900022E
:0C0DF30008721218A64398404398102282
:100E000078AEE6FE08E6FF1200AEC006C00779BD68
:100E1000E778BF26FF19E71836FEEF25E0FFEE332F
:100E2000AB23AA24A9258F82F58312014BFBAAF0DC
:100E300078ACE6FE08E6FFAD03AC021200AEAC06ED
:100E4000AD07D007D006C3ED9F78B5F6EC9E18F637
:100E500078AEE6FE08E6FFAD03AC021200AEC006B7
:100E6000C00779BDE778BF26FF19E71836FEEF25E2
:100E7000E0FFEE33AB26AA27A9288F82F583120163
:100E80004BFDACF078ACE6FE08E6FF1200AED0E019
:100E90002F78B7F6D0E03E18F678BDE625E0FF18CB
:100EA000E633FEAB23AA24A9258F82F58312014BDA
:100EB00078B0A6F008F6AB26AA27A9288F828E83E1
:100EC00012014B78B2A6F008F679B1E778B526FDA5
:100ED00019E71836FC78BDE625E0FF18E633AB23AA
:100EE000AA24A9258F82F583EC8DF0120183753831
:0E0EF0000F75390002087212191922021947F3
:100F000079B3E778B726FD19E71836FC78BDE625F2
:100F1000E0FF18E633AB26AA27A9288F82F583ECD9
:100F20008DF0120183C379B1E778B596FD19E71802
:100F300096FC79BDE778BF26FF19E71836FEEF2546
:100F4000E0FFEE33AB23AA24A9258F82F583EC8D35
:100F5000F0120183C379B3E778B796FD19E71896C5
:100F6000FC79BDE778BF26FF19E71836FEEF25E0CC
:100F7000FFEE33AB26AA27A9288F82F583EC8DF0EC
:100F800012018378BD06E61870010675380D7539B3
:100F90009D02087278B8E6FE08E678BB26F618EEE1
:100FA00036F678C106E618600975380D75394002C5
:100FB00008720675380D75394002087278B8E6A2D5
:100FC000E71379B8F708E61309F785B33575380DD7
:070FD00075391102087222BD
:101300008C718D72AB07AA06E478D5F608F678D30F
:10131000F608F6C378D4E69572E5716480F5F018A6
:10132000E6648095F0502678D6E625E0FF18E6338F
:10133000FEEB5401FDEEF6EF4D08F6EAA2E713FAD4
:10134000EB13FB78D406E61870C90680C678D5E69C
:05135000FE08E6FF228B
:1014000078C5E625E0FF18E633AB51AA52A9538F01
:1014100082F58312014BFD78C3E625E0FF18E63321
:101420008F82F583E5F08DF012018378C5E625E023
:10143000FF18E633AB54AA55A9568F82F5831201E3
:101440004BFD78C3E625E0FF18E6338F82F583E590
:10145000F08DF012018378C8E6FC08E6FD78C5E659
:1014600025E0FF18E633FEAB51AA52A9538F82F54F
:1014700083EC8DF012018378CAE6FD08E6AB54AA2E
:1014800055A9568F828E83CD8DF012018378C306C5
:10149000E618600975381575391A0208720675382C
:0814A0001575391A02087222C9
:101500008E4F8F508B518A528953120C1378C6A676
:101510000608A607E478C2F608F678C2E6FE08E6F2
:10152000FFC39550E54F6480F8EE648098400975DC
:1015300038147539A702087278C6E678CFF608E63F
:1015400078D0F67538147539A712087278C4EEF69B
:1015500008EFF678C2E6FC08E6FDD3EF9DEC648068
:10156000F8EE648098500975381475398D02087248
:1015700078C3E625E0FF18E633FEAB51AA52A95323
:101580008F82F58312014B78C8A6F008F6AB54AAF7
:1015900055A9568F828E8312014B78CAA6F008F6A1
:0915A00075381475390002087257
:10162600E5A45403FFE4FDFC703EEF14600A146069
:101636000F14602024037030AFA27C00AD07802811
:10164600AFA2EF75F004A4FDACF0E5A3C4131354E8
:10165600032DE43CAFA2EF75F010A4FDACF0E5A3BA
:0D166600C4540F2DFDE43CFCAE04AF052282
:101700008E3B8F3C8B3D8A3E893F120C138E438F5C
:1017100044E478D7F608F6AE3BAF3C7C007D02127D
:101720000115AC06AD0778D7E6FE08E6FFC39DECD1
:101730006480F8EE64809840030217DAE54424FFE1
:10174000FDE54334FFFC12130078D9A60608A6076E
:1017500078D7E6FE08E6FF7C007D061200AEAC3BC3
:10176000AD3C120115AC06AD07EC1202FF120732B8
:10177000120338AD0778DAE625E0FF18E633AB3D13
:10178000AA3EA93F8F82F583EE8DF012018378D7B0
:10179000E6FE08E6FF7C007D061200AEAC3BAD3CE9
:1017A000120115AC06AD07EC1202FF120748120336
:1017B00038AD0778DAE625E0FF18E633AB40AA41FA
:1017C000A9428F82F583EE8DF012018378D806E668
:0B17D00018600302171706021717220B
:101800008B458A4689478D48D2A6E4F54DF54EC3EF
:10181000E54E95487480F8654D98501DAB45AA4635
:10182000A947854E82854D8312006FFF120CE80593
:101830004EE54E70DA054D80D6E4F54DF54EC3E524
:101840004E954C7480F8654D98501DAB49AA4AA935
:101850004B854E82854D8312006FFF120CE8054EBA
:10186000E54E70DA054D80D6C2A6228E6B8F6C8D48
:101870006D120CBEEF20E0F9C2807F06120CE8D298
:1018800080C2807F02120CE8E56BFF120CE8AF6C9F
:10189000E56C120CE8AF6D120CE8D280C2807F04B8
:1018A000120CE8D2802253C8FED2CCD2CDC2C9439A
:1018B000C8045380F9439506EF8EF01202CD18D27A
:1018C0004B0018CAE100000018DA75CBFF75CAF7A3
:1018D000800C75CBFF75CAE68004E4FEFF227E0013
:1018E0007F0122D2A38B5F8A608961E4F562F56390
:1018F000AB5FAA60A96185638285628312006FFF76
:10190000120CE80563E56370020562C3940FE5629B
:101910006480948040DAC2A3223098FDC298AF99C7
:0119200022A4
:10193B00E4F53AF538F539F537F536228F993099C4
:10194B00FDC29922D2A6E50860FCC2A622C0E0C067
:10195B00F0C083C082C0D075D000C000C001C002EF
:10196B00C003C004C005C006C007757300757400C2
:10197B00E508701B30A215E4FF120CE80574E57442
:10198B0070020573142409F8A60780E87508015343
:10199B0091BFD007D006D005D004D003D002D00120
:1019AB00D000D0D0D082D083D0F0D0E032120CBE99
:1019BB00EF20E0F9C2807F06120CE8D280C2807F54
:1019CB0062120CE8D280C2807F06120CE8D2802211
:00000001FF
