:100000000204F8BB010689828A83E0225002E722BB
:10001000BBFE02E32289828A83E49322BB01068924
:10002000828A83F0225002F722BBFE01F322EF8D79
:10003000F0A4A8F0CF8CF0A428CE8DF0A42EFE2240
:10004000E88FF0A4CC8BF0A42CFCE98EF0A42CFC5F
:100050008AF0EDA42CFCEA8EF0A4CDA8F08BF0A4DD
:100060002DCC3825F0FDE98FF0A42CCD35F0FCEB3C
:100070008EF0A4FEA9F0EB8FF0A4CFC5F02ECD3901
:10008000FEE43CFCEAA42DCE35F0FDE43CFC2275F8
:10009000F008758200EF2FFFEE33FECD33CDCC3369
:1000A000CCC58233C5829BED9AEC99E58298400CD1
:1000B000F582EE9BFEED9AFDEC99FC0FD5F0D6E4AF
:1000C000CEFBE4CDFAE4CCF9A88222B800C1B90095
:1000D00059BA002DEC8BF084CFCECDFCE5F0CBF9F6
:1000E0007818EF2FFFEE33FEED33FDEC33FCEB33EE
:1000F000FB10D703994004EB99FB0FD8E5E4F9FA1C
:10010000227818EF2FFFEE33FEED33FDEC33FCC900
:1001100033C910D7059BE99A4007EC9BFCE99AF993
:100120000FD8E0E4C9FAE4CCFB2275F010EF2FFF02
:10013000EE33FEED33FDCC33CCC833C810D7079B6C
:10014000EC9AE899400AED9BFDEC9AFCE899F80FCF
:10015000D5F0DAE4CDFBE4CCFAE4C8F92274FFF57B
:1001600032F533E4F530F5316380207F907E011263
:1001700003420531E53170020530C3940AE530943D
:100180000040E57FE87E03120342E4F530F5317468
:10019000082531F8E6FEE4B5130CEEB512088530FB
:1001A00032853133800E0531E53170020530640A45
:1001B000453070DBE533F47003E532F46030E4F58C
:1001C00030F5316380207F907E011203420531E5D6
:1001D0003170020530C39404E530940040E5E53306
:1001E0002406FFE43532EF751300F512805FE51544
:1001F0002406FFEFF534753500E4F530F531E513ED
:100200002403CFE43512CF2531CF3530FE1204441C
:10021000E5352531F582E5343530F583EFF00531EC
:10022000E53170020530C3E530940140D1E512FF9D
:1002300074082515F8A607E5152406FFE43514EF24
:10024000751300F5120515E515700205147F017E82
:10025000000203428E168F178C188D198A1A8B1B79
:10026000E4F520F521C3E5219517E5166480F8E54E
:1002700020648098501B638020AE18AF197C007DED
:100280006412002E1203420521E52170D80520805A
:10029000D4E4F520F521C3E521951DE51C6480F823
:1002A000E520648098501B638020AE1AAF1B7C0051
:1002B0007D6412002E1203420521E52170D805202D
:1002C00080D4AE1EAF1F7C007D6412002E1203424C
:1002D000E5172519CFE5163518CF251BCF351AFEA2
:1002E000225394D75395D77F107E001204DEE4F595
:1002F00044F5456380207FC87E001203420545E532
:100300004570020544C39406E5446480948040E34C
:100310007FE87E031203421205047FE87E03120386
:10032000421204701208007FE87E0312034212108A
:10033000007FE87E031203421210007F017E00025C
:1003400003428E468F47E47F2BFEFDFCAB39AA3873
:10035000A937A836120040E47B04FAF9F81200CB62
:10036000E4FDFCC3ED9547EC9546501EE4FBFAC353
:10037000EB9FEE6480F8EA64809850070BBB0001A5
:100380000A80EC0DBD00010C80D9228B228A2389C2
:1003900024E4FFFEC3EF9529E5286480F8EE64802D
:1003A00098502BAB220524E524AA237002052314C0
:1003B000F9120003FDAB250527E527AA26700205E3
:1003C0002614F9ED12001C0FBF00010E80C6228E0C
:1003D0003A8F3B8D3C1204CFEF20E0F9C2807F06BC
:1003E0001204EBD280C2807F021204EBE53AFF12C6
:1003F00004EBAF3BE53B1204EBAF3C1204EBD280C5
:10040000C2807F041204EBD280228E2A8F2B8C2C88
:100410008D2DE4F52EF52FC3E52F952BE52A64806D
:10042000F8E52E648098501B638020AE2CAF2D7CA5
:10043000007D6412002E120342052FE52F70D805AF
:100440002E80D4228E3D8F3EE4F53F1204CFEF2064
:10045000E0F9C2807F031204EBE53DFF1204EBAF2D
:100460003EE53E1204EBE4FF1204EB8F3FD2802204
:10047000751400751505E4F512F5137508FF750977
:10048000FF750A08750BFF750CFF750DFF750EFFE4
:10049000750FFF7510FF7511FF221204CFEF20E0DA
:1004A000F9C2807F061204EBD280C2807F62120400
:1004B000EBD280C2807F061204EBD28022AD07AC63
:1004C00006E5AD20E4FB8CABEDF5AC75AD0822C2C2
:1004D000807F051204EBE4FF1204EBD28022EE339E
:1004E00095E08F398E38F537F536225391DF8FB28C
:1004F000E59130E5FBAFB222787FE4F6D8FD758157
:10050000470202E1E4FD7F0112050F5394FE228FA2
:04051000B38DB422D1
:100800007F907E01120342E4F542F5436380207F2E
:10081000907E011203420543E54370020542C394F2
:0A0820000CE5426480948040E3225E
:101000007F907E01120342E4F540F5416380207F2A
:101010002C7E011203420541E54170020540C39454
:0A1020000EE5406480948040E32256
:00000001FF
