:100000000203FAE5A45403FFE4FDFC703EEF146024
:100010000A14600F14602024037030AFA27C00AD7E
:10002000078028AFA2EF75F004A4FDACF0E5A3C4EF
:10003000131354032DE43CAFA2EF75F010A4FDACF4
:10004000F0E5A3C4540F2DFDE43CFCAE04AF052243
:1000500002084C0204F1BB010689828A83E0225027
:1000600002E722BBFE02E32289828A83E49322BB59
:10007000010CE58229F582E5833AF583E0225006FA
:10008000E92582F8E622BBFE06E92582F8E222E5B0
:100090008229F582E5833AF583E49322BB01068940
:1000A000828A83F0225002F722BBFE01F322BC00B9
:1000B0000BBE0029EF8DF084FFADF022E4CCF87583
:1000C000F008EF2FFFEE33FEEC33FCEE9DEC984092
:1000D00005FCEE9DFE0FD5F0E9E4CEFD22EDF8F52E
:1000E000F0EE8420D21CFEADF075F008EF2FFFED8E
:1000F00033FD4007985006D5F0F222C398FD0FD586
:10010000F0EA22E88FF0A4CC8BF0A42CFCE98EF06E
:10011000A42CFC8AF0EDA42CFCEA8EF0A4CDA8F06F
:100120008BF0A42DCC3825F0FDE98FF0A42CCD3533
:10013000F0FCEB8EF0A4FEA9F0EB8FF0A4CFC5F09D
:100140002ECD39FEE43CFCEAA42DCE35F0FDE43C96
:10015000FC2275F008758200EF2FFFEE33FECD33E1
:10016000CDCC33CCC58233C5829BED9AEC99E58228
:1001700098400CF582EE9BFEED9AFDEC99FC0FD5B4
:10018000F0D6E4CEFBE4CDFAE4CCF9A88222B800A4
:10019000C1B90059BA002DEC8BF084CFCECDFCE56F
:1001A000F0CBF97818EF2FFFEE33FEED33FDEC3393
:1001B000FCEB33FB10D703994004EB99FB0FD8E518
:1001C000E4F9FA227818EF2FFFEE33FEED33FDEC61
:1001D00033FCC933C910D7059BE99A4007EC9BFC57
:1001E000E99AF90FD8E0E4C9FAE4CCFB2275F010E3
:1001F000EF2FFFEE33FEED33FDCC33CCC833C81008
:10020000D7079BEC9AE899400AED9BFDEC9AFCE835
:1002100099F80FD5F0DAE4CDFBE4CCFAE4C8F92282
:10022000D083D082F8E4937012740193700DA3A36D
:1002300093F8740193F5828883E473740293B5F0A4
:10024000067403936860E9A3A3A3A380D874FFF5A1
:100250005FF560E4F55DF55E6380207F907E0112BE
:100260000551055EE55E7002055DC3940AE55D9487
:100270000040E57FE87E03120551E4F55DF55E740C
:100280003D255EF8E6FEE4B5480CEEB54708855D11
:100290005F855E60800E055EE55E7002055D640A46
:1002A000455D70DBE560F47003E55FF46030E4F514
:1002B0005DF55E6380207F907E01120551055EE54D
:1002C0005E7002055DC39404E55D940040E5E56061
:1002D0002406FFE4355FEF754800F547805FE54A87
:1002E0002406FFEFF561756200E4F55DF55EE54813
:1002F0002403CFE43547CF255ECF355DFE120706D8
:10030000E562255EF582E561355DF583EFF0055E1A
:10031000E55E7002055DC3E55D940140D1E547FFF0
:10032000743D254AF8A607E54A2406FFE43549EF5F
:10033000754800F547054AE54A700205497F017E88
:10034000000205517F107E001208145394D7539574
:10035000D7E4F568F5696380207F2C7E0112055192
:100360000569E56970020568C39406E568648094D0
:100370008040E37B107D037F201207D27F007E4BFD
:100380001208397BFF7A0779BF12075C120806ABA7
:1003900008AA09A90A1206D07F031207A48E6A8F41
:1003A0006BE56AFF3395E08F0BE56BF50C7F04126C
:1003B00007A48E6A8F6BE56AFF3395E08F0DE56BBE
:1003C000F50E7F061207A48E6A8F6BE56AFF3395E0
:1003D000E08F0FE56BF510754F0075500075510BF0
:1003E0007552067B007A0079117D041204866380C1
:1003F000207F327E00120551809E787FE4F6D8FD82
:1004000075817D020441020344E493A3F8E493A3BD
:100410004003F68001F208DFF48029E493A3F85446
:1004200007240CC8C333C4540F4420C8834004F4C9
:1004300056800146F6DFE4800B01020408102040DC
:10044000809005DEE47E019360BCA3FF543F30E55D
:1004500009541FFEE493A360010ECF54C025E06051
:10046000A840B8E493A3FAE493A3F8E493A3C8C51F
:1004700082C8CAC583CAF0A3C8C582C8CAC583CA10
:10048000DFE9DEE780BE8B4B8A4C894D8D4ED2A6CC
:10049000E4F553F554C3E554954E7480F8655398CC
:1004A000501DAB4BAA4CA94D855482855383120035
:1004B0006FFF1208210554E55470DA055380D6E425
:1004C000F553F554C3E55495527480F8655398502C
:1004D0001DAB4FAA50A95185548285538312006FDA
:1004E000FF1208210554E55470DA055380D6C2A6E0
:1004F00022C0E0C0F0C083C082C0D075D000C00070
:10050000C001C002C003C004C005C006C0077579A1
:1005100000757A00E525701B30A215E4FF12082152
:10052000057AE57A70020579142426F8A60780E892
:100530007525015391BFD007D006D005D004D00354
:10054000D002D001D000D0D0D082D083D0F0D0E083
:10055000328E7B8F7CE47F2BFEFDFCAB6FAA6EA9F5
:100560006DA86C120103E47B04FAF9F812018EE421
:10057000FDFCC3ED957CEC957B501EE4FBFAC3EBD0
:100580009FEE6480F8EA64809850070BBB00010A74
:1005900080EC0DBD00010C80D9228B558A568957FD
:1005A000E4FFFEC3EF955CE55B6480F8EE64809841
:1005B000502BAB550557E557AA567002055614F94E
:1005C000120056FDAB58055AE55AAA597002055952
:1005D00014F9ED12009C0FBF00010E80C6220F1609
:1005E00000A80000000000F1F1F1F1F1A36FEC03AD
:1005F000080000160511F1F2F3F4F5060B000102F4
:1006000004080F1825000000000000000000000092
:10061000000000000000000000000000000053C8BF
:10062000FED2CCD2CDC2C943C8045380F94395064B
:10063000EF8EF0120220064A4B000642E100000055
:10064000065275CBFF75CAF7800C75CBFF75CAE6ED
:100650008004E4FEFF227E007F01228E738F748D62
:10066000751207F7EF20E0F9C2807F06120821D249
:1006700080C2807F02120821E573FF120821AF7447
:10068000E574120821AF75120821D280C2807F0460
:10069000120821D28022157D157DA87DA60608A608
:1006A00007A87DE6FE08E6FF7C007D0A1200AEEF9B
:1006B0004E6003120696A87DE6FE08E6FF7C007DEC
:1006C0000A1200AEED2430FF120050057D057D2298
:1006D000D2A38B638A648965E4F566F567AB63AA88
:1006E00064A96585678285668312006FFF12082101
:1006F0000567E56770020566C3940FE5666480943C
:100700008040DAC2A3228E768F77E4F5781207F75D
:10071000EF20E0F9C2807F03120821E576FF12087E
:1007200021AF77E577120821E4FF1208218F78D2F4
:100730008022754900754A05E4F547F548753DFF87
:10074000753EFF753F087540FF7541FF7542FF75A7
:1007500043FF7544FF7545FF7546FF228B708A7114
:100760008972AB70AA71A97212005660130572E506
:10077000727002057114F9120056FF12084C80E2E3
:10078000221207F7EF20E0F9C2807F06120821D27B
:1007900080C2807F62120821D280C2807F06120848
:1007A00021D28022E4FDFC53A1F8EF42A153A17FA6
:1007B00043A180E59130E4FB1200035391EF2272D4
:1007C000662067756573742070726F6772616D0A59
:1007D0000D0043A120EB42A153A4DFEF42A453A498
:1007E000FCED42A422AD07AC06E5AD20E4FB8CABEA
:1007F000EDF5AC75AD0822C2807F05120821E4FF3B
:10080000120821D28022D2A7E4FD7F0212085CD216
:10081000AFD2EA22EE3395E08F6F8E6EF56DF56CF8
:10082000225391DF8FB2E59130E5FBAFB222E4FDB8
:100830007F0112085C5394FE2212061E4398404327
:10084000981022D2A6E52560FCC2A6228F99309985
:10085000FDC299223098FDC298AF99228FB38DB412
:050860002212085422E1
:00000001FF
