:10000000020B18E5A45403FFE4FDFC703EEF1460FE
:100010000A14600F14602024037030AFA27C00AD7E
:10002000078028AFA2EF75F004A4FDACF0E5A3C4EF
:10003000131354032DE43CAFA2EF75F010A4FDACF4
:10004000F0E5A3C4540F2DFDE43CFCAE04AF052243
:10005000020F34020C0FBB010689828A83E0225012
:1000600002E722BBFE02E32289828A83E49322BB59
:10007000010CE58229F582E5833AF583E0225006FA
:10008000E92582F8E622BBFE06E92582F8E222E5B0
:100090008229F582E5833AF583E49322BB01068940
:1000A000828A83F0225002F722BBFE01F322BC00B9
:1000B0000BBE0029EF8DF084FFADF022E4CCF87583
:1000C000F008EF2FFFEE33FEEC33FCEE9DEC984092
:1000D00005FCEE9DFE0FD5F0E9E4CEFD22EDF8F52E
:1000E000F0EE8420D21CFEADF075F008EF2FFFED8E
:1000F00033FD4007985006D5F0F222C398FD0FD586
:10010000F0EA22E88FF0A4CC8BF0A42CFCE98EF06E
:10011000A42CFC8AF0EDA42CFCEA8EF0A4CDA8F06F
:100120008BF0A42DCC3825F0FDE98FF0A42CCD3533
:10013000F0FCEB8EF0A4FEA9F0EB8FF0A4CFC5F09D
:100140002ECD39FEE43CFCEAA42DCE35F0FDE43C96
:10015000FC2275F008758200EF2FFFEE33FECD33E1
:10016000CDCC33CCC58233C5829BED9AEC99E58228
:1001700098400CF582EE9BFEED9AFDEC99FC0FD5B4
:10018000F0D6E4CEFBE4CDFAE4CCF9A88222B800A4
:10019000C1B90059BA002DEC8BF084CFCECDFCE56F
:1001A000F0CBF97818EF2FFFEE33FEED33FDEC3393
:1001B000FCEB33FB10D703994004EB99FB0FD8E518
:1001C000E4F9FA227818EF2FFFEE33FEED33FDEC61
:1001D00033FCC933C910D7059BE99A4007EC9BFC57
:1001E000E99AF90FD8E0E4C9FAE4CCFB2275F010E3
:1001F000EF2FFFEE33FEED33FDCC33CCC833C81008
:10020000D7079BEC9AE899400AED9BFDEC9AFCE835
:1002100099F80FD5F0DAE4CDFBE4CCFAE4C8F92282
:10022000D083D082F8E4937012740193700DA3A36D
:1002300093F8740193F5828883E473740293B5F0A4
:10024000067403936860E9A3A3A3A380D874F8CCD1
:100250006480CCC86480C8F582046043C3EB9FF51A
:10026000F0EA9E42F0E99D42F0E89C45F060305093
:1002700018E5825FFFE582F42B5582FB50210ABA14
:10028000001D09B90019088016E5825BFBE582F4C0
:100290002F5582FF50090EBE00050DBD00010CC395
:1002A000EB9FF5F0EA9E42F0E99D42F0E89C45F0B4
:1002B0006007CC4820E701B3EC2275F020800E7572
:1002C000F010800575F0087D007E007F003392D528
:1002D00030D503120664EC334010EF33FFEE33FEEB
:1002E000ED33FDEC33FCD5F0ED22E5F0247EA2D514
:1002F00013CC92E7CDCEFF22EDD2E7CD33EC339293
:10030000D524814006E4FFFEFDFC22FCE4CFCECDE7
:10031000CC24E0501174FF80EDC3CC13CCCD13CDB1
:10032000CE13CECF13CF0470F030D5DE020664E9D1
:10033000D2E7C933E833F892D5EDD2E7CD33EC33C9
:10034000FC5002B2D522EC30E7100FBF000C0EBEFD
:1003500000080DBD00040BEB6014A2D5EB13FCEDFF
:1003600092E7FD2274FFFCFDFEFF22E480F8A2D597
:1003700074FF13FC7D80E480EF020364E86480F87E
:10038000E933E83360110460F0ED33EC337009E8D1
:10039000FCE9FDEAFEEBFF220460DED3EB9FEA9E60
:1003A000E99DE8C2E78CF0C2F795F0400CE8CCF884
:1003B000E9CDF9EACEFAEBCFFB12032F85D0F05846
:1003C00004700320D5B3E80470075002B2D50203CD
:1003D0006E92D5EC0460F7E4CCC0E0C398F8603BC3
:1003E00094186008400DD0E0FB020346E4FBFAC914
:1003F000FC8028E830E406E4C9FBE4CAFCE830E30A
:1004000005E4C9CACBFCE854076010F8C3E913F946
:10041000EA13FAEB13FBEC13FCD8F130F52FC3E42D
:100420009CFCEF9BFFEE9AFEED99FDD0E0FBEF4EBA
:100430004D4C701222DB0302036BEC2CFCEF33FFFC
:10044000EE33FEED33FDED30E7EB020346EF2BFF1D
:10045000EE3AFEED39FDD0E0FB50130BBB0003027A
:10046000036EED13FDEE13FEEF13FFEC13FC02031E
:1004700046EC4D6011E8497017ED33EC3304600D24
:10048000E4FCFFFEFD22E933E8330470F802036464
:1004900012032F58046009E4CC2481500628500927
:1004A00002036E28400302036BC0E0EB4A7044B9BC
:1004B0008006D0E0FB02035AEF4E701CBD8008EBB3
:1004C000FFEAFEE9FD80EBE98DF0A4FEE5F0020510
:1004D0005AE9CDF9EAFEEBFFEF89F0A4FCE5F0CE96
:1004E00089F0A42EFFE435F0CD89F0A42DFEE4358B
:1004F000F08067EF4E7005BD80D780C3EF8BF0A40E
:10050000ACF0EE8BF0A42CFCE435F0F8EF8AF0A40C
:100510002CE5F038FCE433CB8DF0A42CFCE5F03B6B
:10052000F8EE8AF0A42CFCE5F038F8E433CF89F03B
:10053000A42CFCE5F038CF3400CE89F0A42FFFE5E1
:10054000F03EFEE433C98DF0A42EFEE5F039CD8AED
:10055000F0A42FFFE5F03EFEE43DFD33D0E0FB507C
:10056000070BBB000F02036EEC2CFCEF33FFEE33E6
:10057000FEED33FD02034602036EEC5D046005E808
:100580005904700302036412032F580460F6EC4808
:1005900060F2EC7004FDFEFF22C860DB2481C850CD
:1005A00009C3986002500602036B9850CAF582E9AD
:1005B000294B4A7005AB8202035A75F0007C1A7809
:1005C00080C3EF9BEE9AED99400DC3EF9BFFEE9A2F
:1005D000FEED99FDE842F0DC23ACF0D0E0FFD0E086
:1005E000FED0E0FDAB8220E7101BEB60BAEC2CFCE8
:1005F000EF33FFEE33FEED33FD020346E803F83040
:10060000E705C0F075F000EF2FFFEE33FEED33FD90
:1006100040B830E7C280AAC0E0EFFBEEFAEDF9EC9B
:10062000F8120471D0E0F5F0EFFBEEFAEDF9ECF81A
:10063000120672A3A3A3A3E8C0E0E9C0E0EAC0E009
:10064000EBC0E0C0F012047112068EA3A3A3A312A4
:100650000380D0F0D0E0FBD0E0FAD0E0F9D0E0F8B1
:10066000D5F0D422C3E49FFFE49EFEE49DFDE49C0C
:10067000FC22E493FC740193FD740293FE740393D3
:10068000FF22E0F8A3E0F9A3E0FAA3E0FB22E49361
:10069000F8740193F9740293FA740393FB22ECF05B
:1006A000A3EDF0A3EEF0A3EFF02274FFF565F5667D
:1006B000E559AE587807CEC313CE13D8F9B55520F7
:1006C000EEB5541CE557AE567807C333CE33CED8BB
:1006D000F9FF7C00E559547F2FF559EC3EF558227F
:1006E000E4F563F564E56425E0249DF9E559AE5829
:1006F0007807CEC313CE13D8F9677003EE1967706D
:1007000008856365856466800E0564E5647002058E
:10071000636408456370CEE566F47003E565F460D4
:1007200044E559AE587807CEC313CE13D8F9F55522
:100730008E54E5662417FFE43565FEEF7807C33372
:10074000CE33CED8F9FF7C00E559547F2FF559EC14
:100750003EF558E559AE587807CEC313CE13D8F9F5
:10076000F5578E5622E55A2417FFE433FEEF78073B
:10077000C333CE33CED8F98E67F568120F16E4F581
:1007800063F564E55954802403FFE43558CF2564AC
:10079000CF3563FE120E1AE5682564F582E56735EC
:1007A00063F583EFF00564E56470020563C394802C
:1007B000E563940040CDE559AE587807CEC313CE1B
:1007C00013D8F9FFE55A25E0249CF8A60608A607E9
:1007D0008E548F55E55A2417FFE433FEEF7807C394
:1007E00033CE33CED8F9FF7C00E559547F2FF5592D
:1007F000EC3EF558E559AE587807CEC313CE13D862
:10080000F9F5578E56E55A045407F55A22E4F54B8C
:10081000F54C7F10FE120EFC5394DF5395DF7B10D6
:100820007D037F20120EA9120EEEAB21AA22A9236E
:10083000120DE4120ECEE4F54BF54C6380207F2CB4
:100840007E01120C6F054CE54C7002054BC39406FB
:10085000E54B940040E57FE87E03120C6F7F0312A6
:100860000E8E8E4D8F4E7F04120E8E8E4F8F507FC8
:1008700006120E8E8E518F52E54E78B3F6E54DFF7F
:100880003395E008A607E55008F6E54FFF3395E0FD
:1008900008A607E55208F6E551FF3395E008A607DC
:1008A0007F03120E8E8E4D8F4E7F04120E8E8E4F52
:1008B0008F507F06120E8E8E518F52E54E78B9F60C
:1008C000E54DFF3395E008A607E55008F6E54FFF34
:1008D0003395E008A607E55208F6E551FF3395E0A9
:1008E00008A6077F03120E8E8E4D8F4E7F04120EC8
:1008F0008E8E4F8F507F06120E8E8E518F52E54E88
:1009000078BFF6E54DFF08A607E55008F6E54FFF6E
:1009100008A607E55208F6E551FF08A6077B007A0E
:100920000079B37D127C00120A7775450075460088
:1009300075478075481C7B007A0079247D03120B73
:10094000A47FC87E00120C6F63802002085D3E9277
:1009500048DA3ECCCCCD3F2AAAAB400000003F8015
:1009600000003F9837F03FB504F33FD744FC3E31D9
:1009700072173EB172173F0515913EDE5BD9D2006A
:100980008002C200EDD2E7F8CD33EC3304700BBD2A
:10099000800592D502036E02036440FBD31460F21B
:1009A000F5F07C3FEE7A00C39496C8948B40230AFE
:1009B000C89469C8941A401A0AC89468C8941F4019
:1009C000110AC8945AC89425400805F07A00CDC28F
:1009D000E7CDC0F090000012069EEA2323C0E02479
:1009E0005EF582E43409F58312068E120380ECC0B2
:1009F000E0EDC0E0EEC0E0EFC0E012067290000053
:100A000012068212037CD0E0FBD0E0FAD0E0F9D0ED
:100A1000E0B2E7F812057A90000012069E90094EA7
:100A20007403120617900000120682120471D0E0BF
:100A3000600F246AF582E43409F58312068E1203EE
:100A40008090000012069ED0E0C3947FFDE49400E5
:100A5000FC1202BF7B187A727931783F12047190D0
:100A6000000012068212038030000B7BD97A5B797A
:100A7000DE783E120471228C398D3A8B368A3789A2
:100A8000381200567880F6753B00753C01C3E53C92
:100A9000953AE5396480F8E53B6480985079AB3647
:100AA000AA37A938E53C24FFFFE53B34FF8F82F5E8
:100AB0008312006FFF3395E0FE853C82853B8312F5
:100AC000006FFD3395E0FCC3ED9FFDEC9EFC120230
:100AD000BF8F408E3F8D3E8C3D120982E4FBFA7938
:100AE000C0784012024D5012AB36AA37A938853C67
:100AF00082853B8312006FFF800BAF40AE3FAD3E5F
:100B0000AC3D1202F87480253CF8A607053CE53C94
:100B10007002053B020A8D22787FE4F6D8FD7581CC
:100B2000C4020B5F02080DE493A3F8E493A340030F
:100B3000F68001F208DFF48029E493A3F854072437
:100B40000CC8C333C4540F4420C8834004F45680F7
:100B50000146F6DFE4800B0102040810204080907B
:100B60000DAEE47E019360BCA3FF543F30E5095411
:100B70001FFEE493A360010ECF54C025E060A8409F
:100B8000B8E493A3FAE493A3F8E493A3C8C582C896
:100B9000CAC583CAF0A3C8C582C8CAC583CADFE96B
:100BA000DEE780BE8B418A4289438D44D2A6E4F5BC
:100BB00049F54AC3E54A95447480F8654998501D43
:100BC000AB41AA42A943854A8285498312006FFF3F
:100BD000120F09054AE54A70DA054980D6E4F5495D
:100BE000F54AC3E54A95487480F8654998501DABAD
:100BF00045AA46A947854A8285498312006FFF129C
:100C00000F09054AE54A70DA054980D6C2A622C016
:100C1000E0C0F0C083C082C0D075D000C000C00169
:100C2000C002C003C004C005C006C007757B0075C4
:100C30007C00E508701B30A215E4FF120F09057C4B
:100C4000E57C7002057B142409F8A60780E8750886
:100C5000015391BFD007D006D005D004D003D002F5
:100C6000D001D000D0D0D082D083D0F0D0E0328E6E
:100C70007D8F7EE47F2BFEFDFCAB71AA70A96FA86F
:100C80006E120103E47B04FAF9F812018EE4FDFC14
:100C9000C3ED957EEC957D501EE4FBFAC3EB9FEE11
:100CA0006480F8EA64809850070BBB00010A80EC6E
:100CB0000DBD00010C80D9228B5B8A5C895DE4FF4D
:100CC000FEC3EF9562E5616480F8EE648098502B76
:100CD000AB5B055DE55DAA5C7002055C14F9120072
:100CE00056FDAB5E0560E560AA5F7002055F14F912
:100CF000ED12009C0FBF00010E80C62253C8FED229
:100D0000CCD2CDC2C943C8045380F9439506EF8EB7
:100D1000F01202200D284B000D20E10000000D30E4
:100D200075CBFF75CAF7800C75CBFF75CAE68004DA
:100D3000E4FEFF227E007F01228E758F768D771272
:100D40000EDFEF20E0F9C2807F06120F09D280C2C9
:100D5000807F02120F09E575FF120F09AF76E57665
:100D6000120F09AF77120F09D280C2807F04120FD1
:100D700009D28022157F157FA87FA60608A607A89E
:100D80007FE6FE08E6FF7C007D0A1200AEEF4E60B3
:100D900003120D74A87FE6FE08E6FF7C007D0A12B0
:100DA00000AEED2430FF120050057F057F220F2793
:100DB00000E00000000000F2F2F2F2F2636FEC03D8
:100DC000210000270324F1F1F118080000000000C1
:100DD0000000000000000000000000000000000013
:100DE00000000000D2A38B698A6A896BE4F56CF578
:100DF0006DAB69AA6AA96B856D82856C8312006FE1
:100E0000FF120F09056DE56D7002056CC3940FE5C7
:100E10006C6480948040DAC2A3228E788F79E4F5E6
:100E20007A120EDFEF20E0F9C2807F03120F09E58E
:100E300078FF120F09AF79E579120F09E4FF120F5D
:100E4000098F7AD280228B728A738974AB72AA73EB
:100E5000A97412005660130574E5747002057314CA
:100E6000F9120056FF120F3480E222120EDFEF203B
:100E7000E0F9C2807F06120F09D280C2807F621221
:100E80000F09D280C2807F06120F09D28022E4FDB2
:100E9000FC53A1F8EF42A153A17F43A180E591301B
:100EA000E4FB1200035391EF2243A120EB42A15334
:100EB000A4DFEF42A453A4FCED42A422AD07AC068C
:100EC000E5AD20E4FB8CABEDF5AC75AD0822755AB1
:100ED00007E4F558F559F556F557F554F55522C27E
:100EE000807F05120F09E4FF120F09D28022D2A7DA
:100EF000E4FD7F02120F44D2AFD2EA22EE3395E036
:100F00008F718E70F56FF56E225391DF8FB2E59180
:100F100030E5FBAFB222E4FD7F01120F445394FE93
:100F200022120CFC43984043981022D2A6E5086098
:100F3000FCC2A6228F993099FDC299223098FDC239
:0D0F400098AF99228FB38DB422120F3C227E
:00000001FF
