:100000000203A7E5A45403FFE4FDFC703EEF146077
:100010000A14600F14602024037030AFA27C00AD7E
:10002000078028AFA2EF75F004A4FDACF0E5A3C4EF
:10003000131354032DE43CAFA2EF75F010A4FDACF4
:10004000F0E5A3C4540F2DFDE43CFCAE04AF052243
:10005000020805020517BB010689828A83E0225047
:1000600002E722BBFE02E32289828A83E49322BB59
:10007000010CE58229F582E5833AF583E0225006FA
:10008000E92582F8E622BBFE06E92582F8E222E5B0
:100090008229F582E5833AF583E49322BB01068940
:1000A000828A83F0225002F722BBFE01F322BC00B9
:1000B0000BBE0029EF8DF084FFADF022E4CCF87583
:1000C000F008EF2FFFEE33FEEC33FCEE9DEC984092
:1000D00005FCEE9DFE0FD5F0E9E4CEFD22EDF8F52E
:1000E000F0EE8420D21CFEADF075F008EF2FFFED8E
:1000F00033FD4007985006D5F0F222C398FD0FD586
:10010000F0EA22E88FF0A4CC8BF0A42CFCE98EF06E
:10011000A42CFC8AF0EDA42CFCEA8EF0A4CDA8F06F
:100120008BF0A42DCC3825F0FDE98FF0A42CCD3533
:10013000F0FCEB8EF0A4FEA9F0EB8FF0A4CFC5F09D
:100140002ECD39FEE43CFCEAA42DCE35F0FDE43C96
:10015000FC2275F008758200EF2FFFEE33FECD33E1
:10016000CDCC33CCC58233C5829BED9AEC99E58228
:1001700098400CF582EE9BFEED9AFDEC99FC0FD5B4
:10018000F0D6E4CEFBE4CDFAE4CCF9A88222B800A4
:10019000C1B90059BA002DEC8BF084CFCECDFCE56F
:1001A000F0CBF97818EF2FFFEE33FEED33FDEC3393
:1001B000FCEB33FB10D703994004EB99FB0FD8E518
:1001C000E4F9FA227818EF2FFFEE33FEED33FDEC61
:1001D00033FCC933C910D7059BE99A4007EC9BFC57
:1001E000E99AF90FD8E0E4C9FAE4CCFB2275F010E3
:1001F000EF2FFFEE33FEED33FDCC33CCC833C81008
:10020000D7079BEC9AE899400AED9BFDEC9AFCE835
:1002100099F80FD5F0DAE4CDFBE4CCFAE4C8F92282
:10022000D083D082F8E4937012740193700DA3A36D
:1002300093F8740193F5828883E473740293B5F0A4
:10024000067403936860E9A3A3A3A380D874FFF5A1
:1002500051F552E545AE447807CEC313CE13D8F915
:10026000B54113EEB5400FE543FE7C00E42545F5AE
:1002700045EC3EF54422E4F54FF550E55025E024E9
:1002800076F9E545AE447807CEC313CE13D8F967A7
:100290007003EE19677008854F51855052800E0526
:1002A00050E5507002054F6418454F70CEE552F48A
:1002B0007003E551F46044E545AE447807CEC313BE
:1002C000CE13D8F9F5418E40E552240CFFE43551A8
:1002D000FEEF7807C333CE33CED8F9FF7C00E54577
:1002E000547F2FF545EC3EF544E545AE447807CE06
:1002F000C313CE13D8F9F5438E4222E546240CFFF2
:10030000E433FEEF7807C333CE33CED8F98E53F5FE
:10031000541207E7E4F54FF550E545547F2403FFF9
:10032000E433CF2550CF354FFE1206ECE55425506F
:10033000F582E553354FF583EFF00550E550700237
:10034000054FC39480E54F940040CEE545AE447818
:1003500007CEC313CE13D8F9FFE54625E02475F880
:10036000A60608A607E54625E02475F8E6F5400848
:10037000E6F541E546240CFFE433FEEF7807C3338E
:10038000CE33CED8F9FF7C00E545547F2FF545EC00
:100390003EF544E545AE447807CEC313CE13D8F9F5
:1003A000F5438E42054622787FE4F6D8FD7581AA92
:1003B0000203EE020433E493A3F8E493A34003F6AC
:1003C0008001F208DFF48029E493A3F85407240C99
:1003D000C8C333C4540F4420C8834004F45680017A
:1003E00046F6DFE4800B01020408102040809004F0
:1003F000B6E47E019360BCA3FF543F30E509541F6F
:10040000FEE493A360010ECF54C025E060A840B87D
:10041000E493A3FAE493A3F8E493A3C8C582C8CAFB
:10042000C583CAF0A3C8C582C8CAC583CADFE9DECE
:10043000E780BEE4F55FF5607F10FE1207CD5394B0
:10044000D75395D71207BFAB20AA21A9221206B60F
:100450007F007E4B1207F21207A078A4760AE40808
:10046000F60876020876A00876020876DD0876CCD3
:10047000755E046380207F2C7E01120577155EE592
:100480005ED3940050ED7FE87E031205771210A929
:10049000753900753A00753BA4753C077B007A00FE
:1004A00079237D031210001210807FC87E00120590
:1004B000771210D280D70F2600380000000000F21B
:1004C000F2F2F2F2636FEC03200000260323F1F155
:1004D000F11808000000000000000000000000000B
:1004E000000000000000000000000020287500004F
:1004F00000000000000000000000000000000000FC
:1005000000000000000000000000000000000000EB
:1005100000000000000000C0E0C0F0C083C082C046
:10052000D075D000C000C001C002C003C004C00527
:10053000C006C007757000757100E508701B30A219
:1005400015E4FF1207DA0571E571700205701424D5
:1005500009F8A60780E87508015391BFD007D006B7
:10056000D005D004D003D002D001D000D0D0D082AA
:10057000D083D0F0D0E0328E728F73E47F2BFEFDFB
:10058000FCAB5DAA5CA95BA85A120103E47B04FAE8
:10059000F9F812018EE4FDFCC3ED9573EC957250F1
:1005A0001EE4FBFAC3EB9FEE6480F8EA6480985087
:1005B000070BBB00010A80EC0DBD00010C80D922A5
:1005C0008B478A488949E4FFFEC3EF954EE54D64A9
:1005D00080F8EE648098502BAB470549E549AA485E
:1005E0007002054814F9120056FDAB4A054CE54C63
:1005F000AA4B7002054B14F9ED12009C0FBF0001CD
:100600000E80C62253C8FED2CCD2CDC2C943C80484
:100610005380F9439506EF8EF012022006304B000E
:100620000628E1000000063875CBFF75CAF7800C7C
:1006300075CBFF75CAE68004E4FEFF227E007F01D1
:10064000228E648F658D661207B0EF20E0F9C280BC
:100650007F061207DAD280C2807F021207DAE564D1
:10066000FF1207DAAF65E5651207DAAF661207DA3F
:10067000D280C2807F041207DAD2802215741574EA
:10068000A874A60608A607A874E6FE08E6FF7C0084
:100690007D0A1200AEEF4E600312067CA874E6FEDF
:1006A00008E6FF7C007D0A1200AEED2430FF120048
:1006B000500574057422D2A38B558A568957E4F5E8
:1006C00058F559AB55AA56A95785598285588312B2
:1006D000006FFF1207DA0559E55970020558C394F7
:1006E0000FE5586480948040DAC2A3228E678F6839
:1006F000E4F5691207B0EF20E0F9C2807F0312072A
:10070000DAE567FF1207DAAF68E5681207DAE4FF97
:100710001207DA8F69D280228B618A628963AB61AA
:10072000AA62A96312005660130563E563700205AF
:100730006214F9120056FF12080580E2221207B077
:10074000EF20E0F9C2807F061207DAD280C2807FF4
:10075000621207DAD280C2807F061207DAD28022C4
:10076000E4FDFC53A1F8EF42A153A17F43A180E532
:100770009130E4FB1200035391EF2243A120EB429E
:10078000A153A4DFEF42A453A4FCED42A422AD0781
:10079000AC06E5AD20E4FB8CABEDF5AC75AD082205
:1007A000E4F546F544F545F542F543F540F54122BB
:1007B000C2807F051207DAE4FF1207DAD28022D264
:1007C000A7E4FD7F02120815D2AFD2EA22EE3395DC
:1007D000E08F5D8E5CF55BF55A225391DF8FB2E5B9
:1007E0009130E5FBAFB222E4FD7F0112081553946E
:1007F000FE2212060443984043981022D2A6E50830
:1008000060FCC2A6228F993099FDC299223098FDD2
:0E081000C298AF99228FB38DB42212080D2228
:101000008B358A3689378D38D2A6E4F53DF53EC357
:10101000E53E95387480F8653D98501DAB35AA368D
:10102000A937853E82853D8312006FFF1207DA05DE
:101030003EE53E70DA053D80D6E4F53DF53EC3E57C
:101040003E953C7480F8653D98501DAB39AA3AA98D
:101050003B853E82853D8312006FFF1207DA053E15
:0B106000E53E70DA053D80D6C2A622F6
:10108000E4F56AF56B6380207F907E011205770599
:101090006BE56B7002056AC39404E56A6480948012
:1010A00040E37FE87E03020577E4F56CF56D63802D
:1010B000207F907E01120577056DE56D7002056C4D
:1010C000C39408E56C6480948040E37FE87E03026B
:1010D0000577E4F56EF56F6380207F907E01120541
:1010E00077056FE56F7002056EC3940CE56E648042
:0B10F000948040E37FE87E0302057758
:00000001FF
